{
  "_format": "hh-sol-artifact-1",
  "contractName": "DisputeResolution",
  "sourceName": "contracts/DisputeResolution.sol",
  "abi": [
    {
      "inputs": [
        {
          "internalType": "address",
          "name": "_cUSD",
          "type": "address"
        },
        {
          "internalType": "address",
          "name": "_market",
          "type": "address"
        },
        {
          "internalType": "address",
          "name": "_ledger",
          "type": "address"
        },
        {
          "internalType": "address",
          "name": "admin",
          "type": "address"
        }
      ],
      "stateMutability": "nonpayable",
      "type": "constructor"
    },
    {
      "inputs": [],
      "name": "AccessControlBadConfirmation",
      "type": "error"
    },
    {
      "inputs": [
        {
          "internalType": "address",
          "name": "account",
          "type": "address"
        },
        {
          "internalType": "bytes32",
          "name": "neededRole",
          "type": "bytes32"
        }
      ],
      "name": "AccessControlUnauthorizedAccount",
      "type": "error"
    },
    {
      "inputs": [
        {
          "internalType": "uint256",
          "name": "disputeId",
          "type": "uint256"
        }
      ],
      "name": "DisputeNotFound",
      "type": "error"
    },
    {
      "inputs": [],
      "name": "EmptyDescription",
      "type": "error"
    },
    {
      "inputs": [],
      "name": "EnforcedPause",
      "type": "error"
    },
    {
      "inputs": [],
      "name": "ExpectedPause",
      "type": "error"
    },
    {
      "inputs": [
        {
          "internalType": "enum DisputeResolution.DisputeStatus",
          "name": "current",
          "type": "uint8"
        },
        {
          "internalType": "enum DisputeResolution.DisputeStatus",
          "name": "expected",
          "type": "uint8"
        }
      ],
      "name": "InvalidDisputeStatus",
      "type": "error"
    },
    {
      "inputs": [
        {
          "internalType": "address",
          "name": "caller",
          "type": "address"
        },
        {
          "internalType": "uint256",
          "name": "disputeId",
          "type": "uint256"
        }
      ],
      "name": "NotPartyToDispute",
      "type": "error"
    },
    {
      "inputs": [
        {
          "internalType": "uint256",
          "name": "offerId",
          "type": "uint256"
        }
      ],
      "name": "OfferNotInEscrow",
      "type": "error"
    },
    {
      "anonymous": false,
      "inputs": [
        {
          "indexed": true,
          "internalType": "uint256",
          "name": "disputeId",
          "type": "uint256"
        },
        {
          "indexed": false,
          "internalType": "address",
          "name": "cancelledBy",
          "type": "address"
        }
      ],
      "name": "DisputeCancelled",
      "type": "event"
    },
    {
      "anonymous": false,
      "inputs": [
        {
          "indexed": true,
          "internalType": "uint256",
          "name": "disputeId",
          "type": "uint256"
        },
        {
          "indexed": true,
          "internalType": "uint256",
          "name": "offerId",
          "type": "uint256"
        },
        {
          "indexed": true,
          "internalType": "address",
          "name": "openedBy",
          "type": "address"
        },
        {
          "indexed": false,
          "internalType": "enum DisputeResolution.DisputeType",
          "name": "disputeType",
          "type": "uint8"
        }
      ],
      "name": "DisputeOpened",
      "type": "event"
    },
    {
      "anonymous": false,
      "inputs": [
        {
          "indexed": true,
          "internalType": "uint256",
          "name": "disputeId",
          "type": "uint256"
        },
        {
          "indexed": false,
          "internalType": "enum DisputeResolution.DisputeStatus",
          "name": "status",
          "type": "uint8"
        },
        {
          "indexed": false,
          "internalType": "address",
          "name": "resolvedBy",
          "type": "address"
        },
        {
          "indexed": false,
          "internalType": "uint256",
          "name": "refundAmount",
          "type": "uint256"
        }
      ],
      "name": "DisputeResolved",
      "type": "event"
    },
    {
      "anonymous": false,
      "inputs": [
        {
          "indexed": false,
          "internalType": "address",
          "name": "account",
          "type": "address"
        }
      ],
      "name": "Paused",
      "type": "event"
    },
    {
      "anonymous": false,
      "inputs": [
        {
          "indexed": true,
          "internalType": "bytes32",
          "name": "role",
          "type": "bytes32"
        },
        {
          "indexed": true,
          "internalType": "bytes32",
          "name": "previousAdminRole",
          "type": "bytes32"
        },
        {
          "indexed": true,
          "internalType": "bytes32",
          "name": "newAdminRole",
          "type": "bytes32"
        }
      ],
      "name": "RoleAdminChanged",
      "type": "event"
    },
    {
      "anonymous": false,
      "inputs": [
        {
          "indexed": true,
          "internalType": "bytes32",
          "name": "role",
          "type": "bytes32"
        },
        {
          "indexed": true,
          "internalType": "address",
          "name": "account",
          "type": "address"
        },
        {
          "indexed": true,
          "internalType": "address",
          "name": "sender",
          "type": "address"
        }
      ],
      "name": "RoleGranted",
      "type": "event"
    },
    {
      "anonymous": false,
      "inputs": [
        {
          "indexed": true,
          "internalType": "bytes32",
          "name": "role",
          "type": "bytes32"
        },
        {
          "indexed": true,
          "internalType": "address",
          "name": "account",
          "type": "address"
        },
        {
          "indexed": true,
          "internalType": "address",
          "name": "sender",
          "type": "address"
        }
      ],
      "name": "RoleRevoked",
      "type": "event"
    },
    {
      "anonymous": false,
      "inputs": [
        {
          "indexed": false,
          "internalType": "address",
          "name": "account",
          "type": "address"
        }
      ],
      "name": "Unpaused",
      "type": "event"
    },
    {
      "inputs": [],
      "name": "ARBITER_ROLE",
      "outputs": [
        {
          "internalType": "bytes32",
          "name": "",
          "type": "bytes32"
        }
      ],
      "stateMutability": "view",
      "type": "function"
    },
    {
      "inputs": [],
      "name": "DEFAULT_ADMIN_ROLE",
      "outputs": [
        {
          "internalType": "bytes32",
          "name": "",
          "type": "bytes32"
        }
      ],
      "stateMutability": "view",
      "type": "function"
    },
    {
      "inputs": [],
      "name": "cUSD",
      "outputs": [
        {
          "internalType": "contract IERC20",
          "name": "",
          "type": "address"
        }
      ],
      "stateMutability": "view",
      "type": "function"
    },
    {
      "inputs": [
        {
          "internalType": "uint256",
          "name": "disputeId",
          "type": "uint256"
        }
      ],
      "name": "cancelDispute",
      "outputs": [],
      "stateMutability": "nonpayable",
      "type": "function"
    },
    {
      "inputs": [
        {
          "internalType": "uint256",
          "name": "",
          "type": "uint256"
        }
      ],
      "name": "disputes",
      "outputs": [
        {
          "internalType": "uint256",
          "name": "disputeId",
          "type": "uint256"
        },
        {
          "internalType": "uint256",
          "name": "offerId",
          "type": "uint256"
        },
        {
          "internalType": "address",
          "name": "farmer",
          "type": "address"
        },
        {
          "internalType": "address",
          "name": "buyer",
          "type": "address"
        },
        {
          "internalType": "enum DisputeResolution.DisputeType",
          "name": "disputeType",
          "type": "uint8"
        },
        {
          "internalType": "string",
          "name": "description",
          "type": "string"
        },
        {
          "internalType": "enum DisputeResolution.DisputeStatus",
          "name": "status",
          "type": "uint8"
        },
        {
          "internalType": "address",
          "name": "openedBy",
          "type": "address"
        },
        {
          "internalType": "uint256",
          "name": "openedAt",
          "type": "uint256"
        },
        {
          "internalType": "uint256",
          "name": "resolvedAt",
          "type": "uint256"
        },
        {
          "internalType": "address",
          "name": "resolvedBy",
          "type": "address"
        },
        {
          "internalType": "string",
          "name": "resolutionNote",
          "type": "string"
        },
        {
          "internalType": "uint256",
          "name": "refundAmount",
          "type": "uint256"
        }
      ],
      "stateMutability": "view",
      "type": "function"
    },
    {
      "inputs": [
        {
          "internalType": "uint256",
          "name": "disputeId",
          "type": "uint256"
        }
      ],
      "name": "getDispute",
      "outputs": [
        {
          "components": [
            {
              "internalType": "uint256",
              "name": "disputeId",
              "type": "uint256"
            },
            {
              "internalType": "uint256",
              "name": "offerId",
              "type": "uint256"
            },
            {
              "internalType": "address",
              "name": "farmer",
              "type": "address"
            },
            {
              "internalType": "address",
              "name": "buyer",
              "type": "address"
            },
            {
              "internalType": "enum DisputeResolution.DisputeType",
              "name": "disputeType",
              "type": "uint8"
            },
            {
              "internalType": "string",
              "name": "description",
              "type": "string"
            },
            {
              "internalType": "enum DisputeResolution.DisputeStatus",
              "name": "status",
              "type": "uint8"
            },
            {
              "internalType": "address",
              "name": "openedBy",
              "type": "address"
            },
            {
              "internalType": "uint256",
              "name": "openedAt",
              "type": "uint256"
            },
            {
              "internalType": "uint256",
              "name": "resolvedAt",
              "type": "uint256"
            },
            {
              "internalType": "address",
              "name": "resolvedBy",
              "type": "address"
            },
            {
              "internalType": "string",
              "name": "resolutionNote",
              "type": "string"
            },
            {
              "internalType": "uint256",
              "name": "refundAmount",
              "type": "uint256"
            }
          ],
          "internalType": "struct DisputeResolution.Dispute",
          "name": "",
          "type": "tuple"
        }
      ],
      "stateMutability": "view",
      "type": "function"
    },
    {
      "inputs": [
        {
          "internalType": "uint256",
          "name": "offerId",
          "type": "uint256"
        }
      ],
      "name": "getDisputesByOffer",
      "outputs": [
        {
          "internalType": "uint256[]",
          "name": "",
          "type": "uint256[]"
        }
      ],
      "stateMutability": "view",
      "type": "function"
    },
    {
      "inputs": [
        {
          "internalType": "uint256",
          "name": "offerId",
          "type": "uint256"
        }
      ],
      "name": "getOfferDetails",
      "outputs": [
        {
          "internalType": "uint256",
          "name": "_offerId",
          "type": "uint256"
        },
        {
          "internalType": "uint256",
          "name": "lotId",
          "type": "uint256"
        },
        {
          "internalType": "address",
          "name": "farmer",
          "type": "address"
        },
        {
          "internalType": "uint256",
          "name": "askPriceWei",
          "type": "uint256"
        },
        {
          "internalType": "address",
          "name": "buyer",
          "type": "address"
        },
        {
          "internalType": "uint256",
          "name": "escrowAmount",
          "type": "uint256"
        },
        {
          "internalType": "uint8",
          "name": "status",
          "type": "uint8"
        }
      ],
      "stateMutability": "pure",
      "type": "function"
    },
    {
      "inputs": [
        {
          "internalType": "bytes32",
          "name": "role",
          "type": "bytes32"
        }
      ],
      "name": "getRoleAdmin",
      "outputs": [
        {
          "internalType": "bytes32",
          "name": "",
          "type": "bytes32"
        }
      ],
      "stateMutability": "view",
      "type": "function"
    },
    {
      "inputs": [
        {
          "internalType": "bytes32",
          "name": "role",
          "type": "bytes32"
        },
        {
          "internalType": "address",
          "name": "account",
          "type": "address"
        }
      ],
      "name": "grantRole",
      "outputs": [],
      "stateMutability": "nonpayable",
      "type": "function"
    },
    {
      "inputs": [
        {
          "internalType": "bytes32",
          "name": "role",
          "type": "bytes32"
        },
        {
          "internalType": "address",
          "name": "account",
          "type": "address"
        }
      ],
      "name": "hasRole",
      "outputs": [
        {
          "internalType": "bool",
          "name": "",
          "type": "bool"
        }
      ],
      "stateMutability": "view",
      "type": "function"
    },
    {
      "inputs": [],
      "name": "ledger",
      "outputs": [
        {
          "internalType": "contract HarvestLedger",
          "name": "",
          "type": "address"
        }
      ],
      "stateMutability": "view",
      "type": "function"
    },
    {
      "inputs": [],
      "name": "market",
      "outputs": [
        {
          "internalType": "contract FarmerMarket",
          "name": "",
          "type": "address"
        }
      ],
      "stateMutability": "view",
      "type": "function"
    },
    {
      "inputs": [
        {
          "internalType": "uint256",
          "name": "offerId",
          "type": "uint256"
        },
        {
          "internalType": "enum DisputeResolution.DisputeType",
          "name": "disputeType",
          "type": "uint8"
        },
        {
          "internalType": "string",
          "name": "description",
          "type": "string"
        }
      ],
      "name": "openDispute",
      "outputs": [
        {
          "internalType": "uint256",
          "name": "disputeId",
          "type": "uint256"
        }
      ],
      "stateMutability": "nonpayable",
      "type": "function"
    },
    {
      "inputs": [],
      "name": "pause",
      "outputs": [],
      "stateMutability": "nonpayable",
      "type": "function"
    },
    {
      "inputs": [],
      "name": "paused",
      "outputs": [
        {
          "internalType": "bool",
          "name": "",
          "type": "bool"
        }
      ],
      "stateMutability": "view",
      "type": "function"
    },
    {
      "inputs": [
        {
          "internalType": "bytes32",
          "name": "role",
          "type": "bytes32"
        },
        {
          "internalType": "address",
          "name": "callerConfirmation",
          "type": "address"
        }
      ],
      "name": "renounceRole",
      "outputs": [],
      "stateMutability": "nonpayable",
      "type": "function"
    },
    {
      "inputs": [
        {
          "internalType": "uint256",
          "name": "disputeId",
          "type": "uint256"
        },
        {
          "internalType": "enum DisputeResolution.DisputeStatus",
          "name": "resolution",
          "type": "uint8"
        },
        {
          "internalType": "string",
          "name": "resolutionNote",
          "type": "string"
        },
        {
          "internalType": "uint256",
          "name": "refundAmount",
          "type": "uint256"
        }
      ],
      "name": "resolveDispute",
      "outputs": [],
      "stateMutability": "nonpayable",
      "type": "function"
    },
    {
      "inputs": [
        {
          "internalType": "bytes32",
          "name": "role",
          "type": "bytes32"
        },
        {
          "internalType": "address",
          "name": "account",
          "type": "address"
        }
      ],
      "name": "revokeRole",
      "outputs": [],
      "stateMutability": "nonpayable",
      "type": "function"
    },
    {
      "inputs": [
        {
          "internalType": "bytes4",
          "name": "interfaceId",
          "type": "bytes4"
        }
      ],
      "name": "supportsInterface",
      "outputs": [
        {
          "internalType": "bool",
          "name": "",
          "type": "bool"
        }
      ],
      "stateMutability": "view",
      "type": "function"
    },
    {
      "inputs": [],
      "name": "totalDisputes",
      "outputs": [
        {
          "internalType": "uint256",
          "name": "",
          "type": "uint256"
        }
      ],
      "stateMutability": "view",
      "type": "function"
    },
    {
      "inputs": [],
      "name": "unpause",
      "outputs": [],
      "stateMutability": "nonpayable",
      "type": "function"
    }
  ],
  "bytecode": "0x60e06040523480156200001157600080fd5b50604051620018303803806200183083398101604081905262000034916200015e565b6001600160a01b0380851660805283811660a052821660c0526200005a60008262000092565b50620000877fbb08418a67729a078f87bbc8d02a770929bb68f5bfdf134ae2ead6ed38e2f4ae8262000092565b5050505050620001bb565b6000828152602081815260408083206001600160a01b038516845290915281205460ff1662000137576000838152602081815260408083206001600160a01b03861684529091529020805460ff19166001179055620000ee3390565b6001600160a01b0316826001600160a01b0316847f2f8788117e7eff1d82e926ec794901d17c78024a50270940304540a733656f0d60405160405180910390a45060016200013b565b5060005b92915050565b80516001600160a01b03811681146200015957600080fd5b919050565b600080600080608085870312156200017557600080fd5b620001808562000141565b9350620001906020860162000141565b9250620001a06040860162000141565b9150620001b06060860162000141565b905092959194509250565b60805160a05160c05161163e620001f260003960006102b2015260006103300152600081816101740152610c8a015261163e6000f3fe608060405234801561001057600080fd5b50600436106101425760003560e01c80635c975abb116100b8578063a217fddf1161007c578063a217fddf1461036d578063c5e4ccc414610375578063d547741f1461037d578063df02935c14610390578063e3a96cbd146103a3578063f84b8c83146103c357600080fd5b80635c975abb146103005780636e85ddb31461030b57806380f556051461032b5780638456cb591461035257806391d148541461035a57600080fd5b806336568abe1161010a57806336568abe146102075780633f4ba83a1461021a5780634d104adf146102225780634fb64be21461024957806356397c35146102ad578063564a565d146102d457600080fd5b806301ffc9a7146101475780631fccf6721461016f578063248a9ca3146101ae5780632e6d1108146101df5780632f2ff15d146101f2575b600080fd5b61015a610155366004610fe3565b6103d6565b60405190151581526020015b60405180910390f35b6101967f000000000000000000000000000000000000000000000000000000000000000081565b6040516001600160a01b039091168152602001610166565b6101d16101bc366004611014565b60009081526020819052604090206001015490565b604051908152602001610166565b6101d16101ed366004611076565b61040d565b6102056102003660046110d6565b61045e565b005b6102056102153660046110d6565b610489565b6102056104c1565b6101d17fbb08418a67729a078f87bbc8d02a770929bb68f5bfdf134ae2ead6ed38e2f4ae81565b610267610257366004611014565b9060009081908190819081908190565b6040805197885260208801969096526001600160a01b03948516958701959095526060860192909252909116608084015260a083015260ff1660c082015260e001610166565b6101967f000000000000000000000000000000000000000000000000000000000000000081565b6102e76102e2366004611014565b6104d7565b6040516101669d9c9b9a99989796959493929190611192565b60015460ff1661015a565b61031e610319366004611014565b610675565b604051610166919061123f565b6101967f000000000000000000000000000000000000000000000000000000000000000081565b6102056106d7565b61015a6103683660046110d6565b6106ea565b6101d1600081565b6002546101d1565b61020561038b3660046110d6565b610713565b61020561039e366004611014565b610738565b6103b66103b1366004611014565b61083d565b6040516101669190611283565b6102056103d136600461138f565b610add565b60006001600160e01b03198216637965db0b60e01b148061040757506301ffc9a760e01b6001600160e01b03198316145b92915050565b6000610417610d86565b60008290036104395760405163d937d5df60e01b815260040160405180910390fd5b6000808060405163ef2e612160e01b8152600481018990526024015b60405180910390fd5b60008281526020819052604090206001015461047981610dac565b6104838383610db6565b50505050565b6001600160a01b03811633146104b25760405163334bd91960e11b815260040160405180910390fd5b6104bc8282610e48565b505050565b60006104cc81610dac565b6104d4610eb3565b50565b600360208190526000918252604090912080546001820154600283015493830154600484018054939592946001600160a01b039384169493831693600160a01b90930460ff169290919061052a9061140d565b80601f01602080910402602001604051908101604052809291908181526020018280546105569061140d565b80156105a35780601f10610578576101008083540402835291602001916105a3565b820191906000526020600020905b81548152906001019060200180831161058657829003601f168201915b5050506005840154600685015460078601546008870154600988018054979860ff8616986001600160a01b0361010090970487169850949650929491909116926105ec9061140d565b80601f01602080910402602001604051908101604052809291908181526020018280546106189061140d565b80156106655780601f1061063a57610100808354040283529160200191610665565b820191906000526020600020905b81548152906001019060200180831161064857829003601f168201915b50505050509080600a015490508d565b6000818152600460209081526040918290208054835181840281018401909452808452606093928301828280156106cb57602002820191906000526020600020905b8154815260200190600101908083116106b7575b50505050509050919050565b60006106e281610dac565b6104d4610f05565b6000918252602082815260408084206001600160a01b0393909316845291905290205460ff1690565b60008281526020819052604090206001015461072e81610dac565b6104838383610e48565b610740610d86565b600061074b82610f40565b600581015490915061010090046001600160a01b03163314610789576040516302a5393360e61b815233600482015260248101839052604401610455565b6000600582015460ff1660048111156107a4576107a4611112565b141580156107cb57506001600582015460ff1660048111156107c8576107c8611112565b14155b156107f55760058101546040516365f90bc360e01b81526104559160ff16906000906004016114e2565b60058101805460ff1916600417905560405133815282907fa9c2f5372a198481024db5d759e3fe6f0b499f84953d1d226e54e66c2a0276479060200160405180910390a25050565b6108ba604080516101a081018252600080825260208201819052918101829052606081018290529060808201908152606060208201526040016000815260200160006001600160a01b03168152602001600081526020016000815260200160006001600160a01b0316815260200160608152602001600081525090565b6108c382610f40565b604080516101a081018252825481526001830154602082015260028301546001600160a01b039081169282019290925260038084015492831660608301529092916080840191600160a01b90910460ff169081111561092457610924611112565b600381111561093557610935611112565b81526020016004820180546109499061140d565b80601f01602080910402602001604051908101604052809291908181526020018280546109759061140d565b80156109c25780601f10610997576101008083540402835291602001916109c2565b820191906000526020600020905b8154815290600101906020018083116109a557829003601f168201915b5050509183525050600582015460209091019060ff1660048111156109e9576109e9611112565b60048111156109fa576109fa611112565b815260058201546001600160a01b03610100909104811660208301526006830154604083015260078301546060830152600883015416608082015260098201805460a090920191610a4a9061140d565b80601f0160208091040260200160405190810160405280929190818152602001828054610a769061140d565b8015610ac35780601f10610a9857610100808354040283529160200191610ac3565b820191906000526020600020905b815481529060010190602001808311610aa657829003601f168201915b50505050508152602001600a820154815250509050919050565b7fbb08418a67729a078f87bbc8d02a770929bb68f5bfdf134ae2ead6ed38e2f4ae610b0781610dac565b610b0f610d86565b6000610b1a87610f40565b90506000600582015460ff166004811115610b3757610b37611112565b14158015610b5e57506001600582015460ff166004811115610b5b57610b5b611112565b14155b15610b885760058101546040516365f90bc360e01b81526104559160ff16906000906004016114e2565b6002866004811115610b9c57610b9c611112565b14158015610bbc57506003866004811115610bb957610bb9611112565b14155b15610bdf578560026040516365f90bc360e01b81526004016104559291906114e2565b60058101805487919060ff19166001836004811115610c0057610c00611112565b02179055504260078201556008810180546001600160a01b0319163317905560098101610c2e8587836114fd565b50600a81018390556003866004811115610c4a57610c4a611112565b148015610c575750600083115b15610d4157600381015460405163a9059cbb60e01b81526001600160a01b039182166004820152602481018590526000917f0000000000000000000000000000000000000000000000000000000000000000169063a9059cbb906044016020604051808303816000875af1158015610cd3573d6000803e3d6000fd5b505050506040513d601f19601f82011682018060405250810190610cf791906115be565b905080610d3f5760405162461bcd60e51b81526020600482015260166024820152751499599d5b99081d1c985b9cd9995c8819985a5b195960521b6044820152606401610455565b505b867f1184ff35dea2991496b008e113bd1fa39dc6441f2628b14d165bde70c1155b44873386604051610d75939291906115e0565b60405180910390a250505050505050565b60015460ff1615610daa5760405163d93c066560e01b815260040160405180910390fd5b565b6104d48133610f83565b6000610dc283836106ea565b610e40576000838152602081815260408083206001600160a01b03861684529091529020805460ff19166001179055610df83390565b6001600160a01b0316826001600160a01b0316847f2f8788117e7eff1d82e926ec794901d17c78024a50270940304540a733656f0d60405160405180910390a4506001610407565b506000610407565b6000610e5483836106ea565b15610e40576000838152602081815260408083206001600160a01b0386168085529252808320805460ff1916905551339286917ff6391f5c32d9c69d2a47ea670b442974b53935d1edc7fd64eb21e047a839171b9190a4506001610407565b610ebb610fc0565b6001805460ff191690557f5db9ee0a495bf2e6ff9c91a7834c1ba4fdd244a5e8aa4e537bd38aeae4b073aa335b6040516001600160a01b03909116815260200160405180910390a1565b610f0d610d86565b6001805460ff1916811790557f62e78cea01bee320cd4e420270b5ea74000d11b0c9f74754ebdbfc544b05a25833610ee8565b6000811580610f50575060025482115b15610f7157604051634294e0f760e01b815260048101839052602401610455565b50600090815260036020526040902090565b610f8d82826106ea565b610fbc5760405163e2517d3f60e01b81526001600160a01b038216600482015260248101839052604401610455565b5050565b60015460ff16610daa57604051638dfc202b60e01b815260040160405180910390fd5b600060208284031215610ff557600080fd5b81356001600160e01b03198116811461100d57600080fd5b9392505050565b60006020828403121561102657600080fd5b5035919050565b60008083601f84011261103f57600080fd5b50813567ffffffffffffffff81111561105757600080fd5b60208301915083602082850101111561106f57600080fd5b9250929050565b6000806000806060858703121561108c57600080fd5b843593506020850135600481106110a257600080fd5b9250604085013567ffffffffffffffff8111156110be57600080fd5b6110ca8782880161102d565b95989497509550505050565b600080604083850312156110e957600080fd5b8235915060208301356001600160a01b038116811461110757600080fd5b809150509250929050565b634e487b7160e01b600052602160045260246000fd5b6004811061113857611138611112565b9052565b6000815180845260005b8181101561116257602081850181015186830182015201611146565b506000602082860101526020601f19601f83011685010191505092915050565b6005811061113857611138611112565b8d8152602081018d90526001600160a01b038c811660408301528b811660608301526000906101a0906111c8608085018e611128565b8160a08501526111da8285018d61113c565b91506111e960c085018c611182565b891660e0840152610100830188905261012083018790526001600160a01b038616610140840152828103610160840152611223818661113c565b915050826101808301529e9d5050505050505050505050505050565b6020808252825182820181905260009190848201906040850190845b818110156112775783518352928401929184019160010161125b565b50909695505050505050565b602081528151602082015260208201516040820152600060408301516112b460608401826001600160a01b03169052565b5060608301516001600160a01b03811660808401525060808301516112dc60a0840182611128565b5060a08301516101a08060c08501526112f96101c085018361113c565b915060c085015161130d60e0860182611182565b5060e085015161010061132a818701836001600160a01b03169052565b86015161012086810191909152860151610140808701919091528601519050610160611360818701836001600160a01b03169052565b80870151915050610180601f19868503018187015261137f848361113c565b9601519190940152509192915050565b6000806000806000608086880312156113a757600080fd5b853594506020860135600581106113bd57600080fd5b9350604086013567ffffffffffffffff8111156113d957600080fd5b6113e58882890161102d565b96999598509660600135949350505050565b634e487b7160e01b600052604160045260246000fd5b600181811c9082168061142157607f821691505b60208210810361144157634e487b7160e01b600052602260045260246000fd5b50919050565b601f8211156104bc57600081815260208120601f850160051c8101602086101561146e5750805b601f850160051c820191505b8181101561148d5782815560010161147a565b505050505050565b828110156114b457888601518255948401946001909101908401611495565b50858210156114d25787850151600019600388901b60f8161c191681555b5050505050600190811b01905550565b604081016114f08285611182565b61100d6020830184611182565b67ffffffffffffffff831115611515576115156113f7565b61152983611523835461140d565b83611447565b6000601f84116001811461155d57600085156115455750838201355b600019600387901b1c1916600186901b1783556115b7565b600083815260209020601f19861690835b8281101561158e578685013582556020948501946001909201910161156e565b50868210156115ab5760001960f88860031b161c19848701351681555b505060018560011b0183555b5050505050565b6000602082840312156115d057600080fd5b8151801515811461100d57600080fd5b606081016115ee8286611182565b6001600160a01b039390931660208201526040015291905056fea26469706673582212201d6669eeef72737714dc47af814e1db3351f92818f1f8748271ccd1a519d708064736f6c63430008140033",
  "linkReferences": {},
  "deployedLinkReferences": {}
}