{
  "_format": "hh-sol-artifact-1",
  "contractName": "FarmerMarket",
  "sourceName": "contracts/FarmerMarket.sol",
  "abi": [
    {
      "inputs": [
        {
          "internalType": "address",
          "name": "_cUSD",
          "type": "address"
        },
        {
          "internalType": "address",
          "name": "_ledger",
          "type": "address"
        },
        {
          "internalType": "address",
          "name": "admin",
          "type": "address"
        }
      ],
      "stateMutability": "nonpayable",
      "type": "constructor"
    },
    {
      "inputs": [],
      "name": "AccessControlBadConfirmation",
      "type": "error"
    },
    {
      "inputs": [
        {
          "internalType": "address",
          "name": "account",
          "type": "address"
        },
        {
          "internalType": "bytes32",
          "name": "neededRole",
          "type": "bytes32"
        }
      ],
      "name": "AccessControlUnauthorizedAccount",
      "type": "error"
    },
    {
      "inputs": [],
      "name": "EnforcedPause",
      "type": "error"
    },
    {
      "inputs": [],
      "name": "ExpectedPause",
      "type": "error"
    },
    {
      "inputs": [],
      "name": "InvalidPrice",
      "type": "error"
    },
    {
      "inputs": [
        {
          "internalType": "uint256",
          "name": "lotId",
          "type": "uint256"
        }
      ],
      "name": "LotAlreadyListed",
      "type": "error"
    },
    {
      "inputs": [
        {
          "internalType": "uint256",
          "name": "lotId",
          "type": "uint256"
        }
      ],
      "name": "LotNotValidated",
      "type": "error"
    },
    {
      "inputs": [
        {
          "internalType": "address",
          "name": "caller",
          "type": "address"
        },
        {
          "internalType": "uint256",
          "name": "lotId",
          "type": "uint256"
        }
      ],
      "name": "NotLotOwner",
      "type": "error"
    },
    {
      "inputs": [
        {
          "internalType": "uint256",
          "name": "offerId",
          "type": "uint256"
        }
      ],
      "name": "OfferNotFound",
      "type": "error"
    },
    {
      "inputs": [],
      "name": "ReentrancyGuardReentrantCall",
      "type": "error"
    },
    {
      "inputs": [
        {
          "internalType": "enum FarmerMarket.OfferStatus",
          "name": "current",
          "type": "uint8"
        },
        {
          "internalType": "enum FarmerMarket.OfferStatus",
          "name": "expected",
          "type": "uint8"
        }
      ],
      "name": "WrongStatus",
      "type": "error"
    },
    {
      "anonymous": false,
      "inputs": [
        {
          "indexed": true,
          "internalType": "uint256",
          "name": "offerId",
          "type": "uint256"
        },
        {
          "indexed": true,
          "internalType": "uint256",
          "name": "lotId",
          "type": "uint256"
        },
        {
          "indexed": false,
          "internalType": "address",
          "name": "farmer",
          "type": "address"
        },
        {
          "indexed": false,
          "internalType": "uint256",
          "name": "askPrice",
          "type": "uint256"
        }
      ],
      "name": "LotListed",
      "type": "event"
    },
    {
      "anonymous": false,
      "inputs": [
        {
          "indexed": true,
          "internalType": "uint256",
          "name": "offerId",
          "type": "uint256"
        }
      ],
      "name": "OfferCancelled",
      "type": "event"
    },
    {
      "anonymous": false,
      "inputs": [
        {
          "indexed": false,
          "internalType": "address",
          "name": "account",
          "type": "address"
        }
      ],
      "name": "Paused",
      "type": "event"
    },
    {
      "anonymous": false,
      "inputs": [
        {
          "indexed": true,
          "internalType": "uint256",
          "name": "offerId",
          "type": "uint256"
        },
        {
          "indexed": false,
          "internalType": "address",
          "name": "farmer",
          "type": "address"
        },
        {
          "indexed": false,
          "internalType": "uint256",
          "name": "netAmount",
          "type": "uint256"
        },
        {
          "indexed": false,
          "internalType": "uint256",
          "name": "fee",
          "type": "uint256"
        }
      ],
      "name": "PaymentReleased",
      "type": "event"
    },
    {
      "anonymous": false,
      "inputs": [
        {
          "indexed": true,
          "internalType": "uint256",
          "name": "offerId",
          "type": "uint256"
        },
        {
          "indexed": false,
          "internalType": "address",
          "name": "buyer",
          "type": "address"
        },
        {
          "indexed": false,
          "internalType": "uint256",
          "name": "amount",
          "type": "uint256"
        }
      ],
      "name": "PurchaseEscrowed",
      "type": "event"
    },
    {
      "anonymous": false,
      "inputs": [
        {
          "indexed": true,
          "internalType": "bytes32",
          "name": "role",
          "type": "bytes32"
        },
        {
          "indexed": true,
          "internalType": "bytes32",
          "name": "previousAdminRole",
          "type": "bytes32"
        },
        {
          "indexed": true,
          "internalType": "bytes32",
          "name": "newAdminRole",
          "type": "bytes32"
        }
      ],
      "name": "RoleAdminChanged",
      "type": "event"
    },
    {
      "anonymous": false,
      "inputs": [
        {
          "indexed": true,
          "internalType": "bytes32",
          "name": "role",
          "type": "bytes32"
        },
        {
          "indexed": true,
          "internalType": "address",
          "name": "account",
          "type": "address"
        },
        {
          "indexed": true,
          "internalType": "address",
          "name": "sender",
          "type": "address"
        }
      ],
      "name": "RoleGranted",
      "type": "event"
    },
    {
      "anonymous": false,
      "inputs": [
        {
          "indexed": true,
          "internalType": "bytes32",
          "name": "role",
          "type": "bytes32"
        },
        {
          "indexed": true,
          "internalType": "address",
          "name": "account",
          "type": "address"
        },
        {
          "indexed": true,
          "internalType": "address",
          "name": "sender",
          "type": "address"
        }
      ],
      "name": "RoleRevoked",
      "type": "event"
    },
    {
      "anonymous": false,
      "inputs": [
        {
          "indexed": false,
          "internalType": "address",
          "name": "account",
          "type": "address"
        }
      ],
      "name": "Unpaused",
      "type": "event"
    },
    {
      "inputs": [],
      "name": "DEFAULT_ADMIN_ROLE",
      "outputs": [
        {
          "internalType": "bytes32",
          "name": "",
          "type": "bytes32"
        }
      ],
      "stateMutability": "view",
      "type": "function"
    },
    {
      "inputs": [],
      "name": "VALIDATOR_ROLE",
      "outputs": [
        {
          "internalType": "bytes32",
          "name": "",
          "type": "bytes32"
        }
      ],
      "stateMutability": "view",
      "type": "function"
    },
    {
      "inputs": [],
      "name": "cUSD",
      "outputs": [
        {
          "internalType": "contract IERC20",
          "name": "",
          "type": "address"
        }
      ],
      "stateMutability": "view",
      "type": "function"
    },
    {
      "inputs": [],
      "name": "feeRecipient",
      "outputs": [
        {
          "internalType": "address",
          "name": "",
          "type": "address"
        }
      ],
      "stateMutability": "view",
      "type": "function"
    },
    {
      "inputs": [
        {
          "internalType": "bytes32",
          "name": "role",
          "type": "bytes32"
        }
      ],
      "name": "getRoleAdmin",
      "outputs": [
        {
          "internalType": "bytes32",
          "name": "",
          "type": "bytes32"
        }
      ],
      "stateMutability": "view",
      "type": "function"
    },
    {
      "inputs": [
        {
          "internalType": "bytes32",
          "name": "role",
          "type": "bytes32"
        },
        {
          "internalType": "address",
          "name": "account",
          "type": "address"
        }
      ],
      "name": "grantRole",
      "outputs": [],
      "stateMutability": "nonpayable",
      "type": "function"
    },
    {
      "inputs": [
        {
          "internalType": "bytes32",
          "name": "role",
          "type": "bytes32"
        },
        {
          "internalType": "address",
          "name": "account",
          "type": "address"
        }
      ],
      "name": "hasRole",
      "outputs": [
        {
          "internalType": "bool",
          "name": "",
          "type": "bool"
        }
      ],
      "stateMutability": "view",
      "type": "function"
    },
    {
      "inputs": [],
      "name": "ledger",
      "outputs": [
        {
          "internalType": "contract HarvestLedger",
          "name": "",
          "type": "address"
        }
      ],
      "stateMutability": "view",
      "type": "function"
    },
    {
      "inputs": [
        {
          "internalType": "uint256",
          "name": "lotId",
          "type": "uint256"
        },
        {
          "internalType": "uint256",
          "name": "askPrice",
          "type": "uint256"
        }
      ],
      "name": "listLot",
      "outputs": [
        {
          "internalType": "uint256",
          "name": "offerId",
          "type": "uint256"
        }
      ],
      "stateMutability": "nonpayable",
      "type": "function"
    },
    {
      "inputs": [
        {
          "internalType": "uint256",
          "name": "",
          "type": "uint256"
        }
      ],
      "name": "lotToOffer",
      "outputs": [
        {
          "internalType": "uint256",
          "name": "",
          "type": "uint256"
        }
      ],
      "stateMutability": "view",
      "type": "function"
    },
    {
      "inputs": [
        {
          "internalType": "uint256",
          "name": "",
          "type": "uint256"
        }
      ],
      "name": "offers",
      "outputs": [
        {
          "internalType": "uint256",
          "name": "offerId",
          "type": "uint256"
        },
        {
          "internalType": "uint256",
          "name": "lotId",
          "type": "uint256"
        },
        {
          "internalType": "address",
          "name": "farmer",
          "type": "address"
        },
        {
          "internalType": "uint256",
          "name": "askPriceWei",
          "type": "uint256"
        },
        {
          "internalType": "address",
          "name": "buyer",
          "type": "address"
        },
        {
          "internalType": "uint256",
          "name": "escrowAmount",
          "type": "uint256"
        },
        {
          "internalType": "enum FarmerMarket.OfferStatus",
          "name": "status",
          "type": "uint8"
        },
        {
          "internalType": "uint256",
          "name": "listedAt",
          "type": "uint256"
        },
        {
          "internalType": "uint256",
          "name": "completedAt",
          "type": "uint256"
        }
      ],
      "stateMutability": "view",
      "type": "function"
    },
    {
      "inputs": [],
      "name": "pause",
      "outputs": [],
      "stateMutability": "nonpayable",
      "type": "function"
    },
    {
      "inputs": [],
      "name": "paused",
      "outputs": [
        {
          "internalType": "bool",
          "name": "",
          "type": "bool"
        }
      ],
      "stateMutability": "view",
      "type": "function"
    },
    {
      "inputs": [],
      "name": "platformFeeBps",
      "outputs": [
        {
          "internalType": "uint256",
          "name": "",
          "type": "uint256"
        }
      ],
      "stateMutability": "view",
      "type": "function"
    },
    {
      "inputs": [
        {
          "internalType": "uint256",
          "name": "offerId",
          "type": "uint256"
        }
      ],
      "name": "purchaseLot",
      "outputs": [],
      "stateMutability": "nonpayable",
      "type": "function"
    },
    {
      "inputs": [
        {
          "internalType": "uint256",
          "name": "offerId",
          "type": "uint256"
        }
      ],
      "name": "releasePayment",
      "outputs": [],
      "stateMutability": "nonpayable",
      "type": "function"
    },
    {
      "inputs": [
        {
          "internalType": "bytes32",
          "name": "role",
          "type": "bytes32"
        },
        {
          "internalType": "address",
          "name": "callerConfirmation",
          "type": "address"
        }
      ],
      "name": "renounceRole",
      "outputs": [],
      "stateMutability": "nonpayable",
      "type": "function"
    },
    {
      "inputs": [
        {
          "internalType": "bytes32",
          "name": "role",
          "type": "bytes32"
        },
        {
          "internalType": "address",
          "name": "account",
          "type": "address"
        }
      ],
      "name": "revokeRole",
      "outputs": [],
      "stateMutability": "nonpayable",
      "type": "function"
    },
    {
      "inputs": [
        {
          "internalType": "uint256",
          "name": "bps",
          "type": "uint256"
        }
      ],
      "name": "setFeeBps",
      "outputs": [],
      "stateMutability": "nonpayable",
      "type": "function"
    },
    {
      "inputs": [
        {
          "internalType": "bytes4",
          "name": "interfaceId",
          "type": "bytes4"
        }
      ],
      "name": "supportsInterface",
      "outputs": [
        {
          "internalType": "bool",
          "name": "",
          "type": "bool"
        }
      ],
      "stateMutability": "view",
      "type": "function"
    },
    {
      "inputs": [],
      "name": "unpause",
      "outputs": [],
      "stateMutability": "nonpayable",
      "type": "function"
    }
  ],
  "bytecode": "0x60c060405260c86002553480156200001657600080fd5b506040516200167938038062001679833981016040819052620000399162000198565b60017f9b779b17422d0df92223018b32b4d1fa46e071723d6817e2486d003becc55f00556001600160a01b0383811660805282811660a052600380546001600160a01b03191691831691909117905562000095600082620000cc565b50620000c27f21702c8af46127c7fa207f89d0b0a8441bb32959a0ac7df790e9ab1a25c9892682620000cc565b50505050620001e2565b6000828152602081815260408083206001600160a01b038516845290915281205460ff1662000171576000838152602081815260408083206001600160a01b03861684529091529020805460ff19166001179055620001283390565b6001600160a01b0316826001600160a01b0316847f2f8788117e7eff1d82e926ec794901d17c78024a50270940304540a733656f0d60405160405180910390a450600162000175565b5060005b92915050565b80516001600160a01b03811681146200019357600080fd5b919050565b600080600060608486031215620001ae57600080fd5b620001b9846200017b565b9250620001c9602085016200017b565b9150620001d9604085016200017b565b90509250925092565b60805160a05161145562000224600039600081816102380152610475015260008181610169015281816108b7015281816109970152610b8601526114556000f3fe608060405234801561001057600080fd5b50600436106101375760003560e01c80635c975abb116100b85780638a72ea6a1161007c5780638a72ea6a146102b357806391d1485414610333578063a217fddf14610346578063c49baebe1461034e578063d547741f14610375578063f7f7c6aa1461038857600080fd5b80635c975abb1461025a578063630b38071461026557806372c27b62146102855780638456cb591461029857806388685cd9146102a057600080fd5b80633167db34116100ff5780633167db34146101f257806336568abe146102055780633f4ba83a14610218578063469048401461022057806356397c351461023357600080fd5b806301ffc9a71461013c5780631fccf6721461016457806322dcd13e146101a3578063248a9ca3146101ba5780632f2ff15d146101dd575b600080fd5b61014f61014a366004610f72565b61039b565b60405190151581526020015b60405180910390f35b61018b7f000000000000000000000000000000000000000000000000000000000000000081565b6040516001600160a01b03909116815260200161015b565b6101ac60025481565b60405190815260200161015b565b6101ac6101c8366004610fa3565b60009081526020819052604090206001015490565b6101f06101eb366004610fd1565b6103d2565b005b6101ac610200366004611001565b6103fd565b6101f0610213366004610fd1565b61070d565b6101f0610745565b60035461018b906001600160a01b031681565b61018b7f000000000000000000000000000000000000000000000000000000000000000081565b60015460ff1661014f565b6101ac610273366004610fa3565b60066020526000908152604090205481565b6101f0610293366004610fa3565b61075b565b6101f06107a7565b6101f06102ae366004610fa3565b6107ba565b61031e6102c1366004610fa3565b6005602081905260009182526040909120805460018201546002830154600384015460048501549585015460068601546007870154600890970154959794966001600160a01b0394851696939590941693919260ff909116919089565b60405161015b9998979695949392919061105b565b61014f610341366004610fd1565b610aab565b6101ac600081565b6101ac7f21702c8af46127c7fa207f89d0b0a8441bb32959a0ac7df790e9ab1a25c9892681565b6101f0610383366004610fd1565b610ad4565b6101f0610396366004610fa3565b610af9565b60006001600160e01b03198216637965db0b60e01b14806103cc57506301ffc9a760e01b6001600160e01b03198316145b92915050565b6000828152602081905260409020600101546103ed81610cc9565b6103f78383610cd3565b50505050565b6000610407610d65565b816000036104275760405162bfc92160e01b815260040160405180910390fd5b6000838152600660205260409020541561045c57604051637d50ca2360e01b8152600481018490526024015b60405180910390fd5b6040516355ccae8960e11b8152600481018490526000907f00000000000000000000000000000000000000000000000000000000000000006001600160a01b03169063ab995d1290602401600060405180830381865afa1580156104c4573d6000803e3d6000fd5b505050506040513d6000823e601f3d908101601f191682016040526104ec91908101906111fb565b90506001816101000151600381111561050757610507611023565b1461052857604051630362946160e11b815260048101859052602401610453565b60208101516001600160a01b0316331461055e5760405163310776a560e11b815233600482015260248101859052604401610453565b60046000815461056d9061135d565b9190508190559150604051806101200160405280838152602001858152602001336001600160a01b0316815260200184815260200160006001600160a01b0316815260200160008152602001600060038111156105cc576105cc611023565b8152602001428152602001600081525060056000848152602001908152602001600020600082015181600001556020820151816001015560408201518160020160006101000a8154816001600160a01b0302191690836001600160a01b031602179055506060820151816003015560808201518160040160006101000a8154816001600160a01b0302191690836001600160a01b0316021790555060a0820151816005015560c08201518160060160006101000a81548160ff0219169083600381111561069b5761069b611023565b021790555060e08201516007820155610100909101516008909101556000848152600660209081526040918290208490558151338152908101859052859184917faf82be7ab7d9b4681e7416e3fcb5eb57a8e068c3dc2da5c2fc7ff41f86a57a70910160405180910390a35092915050565b6001600160a01b03811633146107365760405163334bd91960e11b815260040160405180910390fd5b6107408282610d8b565b505050565b600061075081610cc9565b610758610df6565b50565b600061076681610cc9565b6101f48211156107a15760405162461bcd60e51b81526020600482015260066024820152654d617820352560d01b6044820152606401610453565b50600255565b60006107b281610cc9565b610758610e48565b6107c2610e83565b7f21702c8af46127c7fa207f89d0b0a8441bb32959a0ac7df790e9ab1a25c989266107ec81610cc9565b60006107f783610e9f565b90506001600682015460ff16600381111561081457610814611023565b1461083e57600681015460405163e064752b60e01b81526104539160ff1690600190600401611376565b600061271060025483600501546108559190611391565b61085f91906113a8565b9050600081836005015461087391906113ca565b60068401805460ff1916600290811790915542600886015584015460405163a9059cbb60e01b81526001600160a01b039182166004820152602481018390529192507f0000000000000000000000000000000000000000000000000000000000000000169063a9059cbb906044016020604051808303816000875af1158015610900573d6000803e3d6000fd5b505050506040513d601f19601f8201168201806040525081019061092491906113dd565b6109685760405162461bcd60e51b815260206004820152601560248201527411985c9b595c881c185e5b595b9d0819985a5b1959605a1b6044820152606401610453565b8115610a3f5760035460405163a9059cbb60e01b81526001600160a01b039182166004820152602481018490527f00000000000000000000000000000000000000000000000000000000000000009091169063a9059cbb906044016020604051808303816000875af11580156109e2573d6000803e3d6000fd5b505050506040513d601f19601f82011682018060405250810190610a0691906113dd565b610a3f5760405162461bcd60e51b815260206004820152600a6024820152691199594819985a5b195960b21b6044820152606401610453565b6002830154604080516001600160a01b03909216825260208201839052810183905285907f8cdc8dc08e54a4e57f52077ecf1b4c508758513439cae2aa325dcc85b922fca89060600160405180910390a250505050610758600160008051602061140083398151915255565b6000918252602082815260408084206001600160a01b0393909316845291905290205460ff1690565b600082815260208190526040902060010154610aef81610cc9565b6103f78383610d8b565b610b01610e83565b610b09610d65565b6000610b1482610e9f565b90506000600682015460ff166003811115610b3157610b31611023565b14610b5b57600681015460405163e064752b60e01b81526104539160ff1690600090600401611376565b60038101546040516323b872dd60e01b815233600482015230602482015260448101919091526000907f00000000000000000000000000000000000000000000000000000000000000006001600160a01b0316906323b872dd906064016020604051808303816000875af1158015610bd7573d6000803e3d6000fd5b505050506040513d601f19601f82011682018060405250810190610bfb91906113dd565b905080610c415760405162461bcd60e51b815260206004820152601460248201527318d554d1081d1c985b9cd9995c8819985a5b195960621b6044820152606401610453565b600482018054336001600160a01b0319909116811790915560038301546005840181905560068401805460ff1916600117905560408051928352602083019190915284917f8039710b6eab52454eba37ee5e7c9d5c7b434dcfac52bcf48f3769dacd86fcf8910160405180910390a25050610758600160008051602061140083398151915255565b6107588133610ee2565b6000610cdf8383610aab565b610d5d576000838152602081815260408083206001600160a01b03861684529091529020805460ff19166001179055610d153390565b6001600160a01b0316826001600160a01b0316847f2f8788117e7eff1d82e926ec794901d17c78024a50270940304540a733656f0d60405160405180910390a45060016103cc565b5060006103cc565b60015460ff1615610d895760405163d93c066560e01b815260040160405180910390fd5b565b6000610d978383610aab565b15610d5d576000838152602081815260408083206001600160a01b0386168085529252808320805460ff1916905551339286917ff6391f5c32d9c69d2a47ea670b442974b53935d1edc7fd64eb21e047a839171b9190a45060016103cc565b610dfe610f1f565b6001805460ff191690557f5db9ee0a495bf2e6ff9c91a7834c1ba4fdd244a5e8aa4e537bd38aeae4b073aa335b6040516001600160a01b03909116815260200160405180910390a1565b610e50610d65565b6001805460ff1916811790557f62e78cea01bee320cd4e420270b5ea74000d11b0c9f74754ebdbfc544b05a25833610e2b565b610e8b610f42565b600260008051602061140083398151915255565b6000811580610eaf575060045482115b15610ed0576040516307cddb9360e21b815260048101839052602401610453565b50600090815260056020526040902090565b610eec8282610aab565b610f1b5760405163e2517d3f60e01b81526001600160a01b038216600482015260248101839052604401610453565b5050565b60015460ff16610d8957604051638dfc202b60e01b815260040160405180910390fd5b60008051602061140083398151915254600203610d8957604051633ee5aeb560e01b815260040160405180910390fd5b600060208284031215610f8457600080fd5b81356001600160e01b031981168114610f9c57600080fd5b9392505050565b600060208284031215610fb557600080fd5b5035919050565b6001600160a01b038116811461075857600080fd5b60008060408385031215610fe457600080fd5b823591506020830135610ff681610fbc565b809150509250929050565b6000806040838503121561101457600080fd5b50508035926020909101359150565b634e487b7160e01b600052602160045260246000fd5b6004811061105757634e487b7160e01b600052602160045260246000fd5b9052565b898152602081018990526001600160a01b038881166040830152606082018890528616608082015260a08101859052610120810161109c60c0830186611039565b60e08201939093526101000152979650505050505050565b634e487b7160e01b600052604160045260246000fd5b6040516101a0810167ffffffffffffffff811182821017156110ee576110ee6110b4565b60405290565b604051601f8201601f1916810167ffffffffffffffff8111828210171561111d5761111d6110b4565b604052919050565b805161113081610fbc565b919050565b80516002811061113057600080fd5b80516003811061113057600080fd5b805163ffffffff8116811461113057600080fd5b600082601f83011261117857600080fd5b815167ffffffffffffffff811115611192576111926110b4565b60206111a6601f8301601f191682016110f4565b82815285828487010111156111ba57600080fd5b60005b838110156111d85785810183015182820184015282016111bd565b506000928101909101919091529392505050565b80516004811061113057600080fd5b60006020828403121561120d57600080fd5b815167ffffffffffffffff8082111561122557600080fd5b908301906101a0828603121561123a57600080fd5b6112426110ca565b8251815261125260208401611125565b602082015261126360408401611135565b604082015261127460608401611144565b606082015261128560808401611153565b608082015260a08301518281111561129c57600080fd5b6112a887828601611167565b60a08301525060c0830151828111156112c057600080fd5b6112cc87828601611167565b60c08301525060e083015160e08201526101006112ea8185016111ec565b9082015261012083810151908201526101408084015190820152610160611312818501611125565b90820152610180838101518381111561132a57600080fd5b61133688828701611167565b918301919091525095945050505050565b634e487b7160e01b600052601160045260246000fd5b60006001820161136f5761136f611347565b5060010190565b604081016113848285611039565b610f9c6020830184611039565b80820281158282048414176103cc576103cc611347565b6000826113c557634e487b7160e01b600052601260045260246000fd5b500490565b818103818111156103cc576103cc611347565b6000602082840312156113ef57600080fd5b81518015158114610f9c57600080fdfe9b779b17422d0df92223018b32b4d1fa46e071723d6817e2486d003becc55f00a264697066735822122086cc3676df38c9472ce8f86e08ed210893c202f2a706b7f2de5da27a66785a4164736f6c63430008140033",
  "linkReferences": {},
  "deployedLinkReferences": {}
}