{
  "_format": "hh-sol-artifact-1",
  "contractName": "GasSubsidyPool",
  "sourceName": "contracts/GasSubsidyPool.sol",
  "abi": [
    {
      "inputs": [
        {
          "internalType": "address",
          "name": "_cUSD",
          "type": "address"
        },
        {
          "internalType": "address",
          "name": "admin",
          "type": "address"
        }
      ],
      "stateMutability": "nonpayable",
      "type": "constructor"
    },
    {
      "inputs": [],
      "name": "AccessControlBadConfirmation",
      "type": "error"
    },
    {
      "inputs": [
        {
          "internalType": "address",
          "name": "account",
          "type": "address"
        },
        {
          "internalType": "bytes32",
          "name": "neededRole",
          "type": "bytes32"
        }
      ],
      "name": "AccessControlUnauthorizedAccount",
      "type": "error"
    },
    {
      "inputs": [
        {
          "internalType": "uint256",
          "name": "claimId",
          "type": "uint256"
        }
      ],
      "name": "ClaimNotFound",
      "type": "error"
    },
    {
      "inputs": [
        {
          "internalType": "uint256",
          "name": "claimed",
          "type": "uint256"
        },
        {
          "internalType": "uint256",
          "name": "limit",
          "type": "uint256"
        }
      ],
      "name": "DailyLimitExceeded",
      "type": "error"
    },
    {
      "inputs": [],
      "name": "EnforcedPause",
      "type": "error"
    },
    {
      "inputs": [],
      "name": "ExpectedPause",
      "type": "error"
    },
    {
      "inputs": [],
      "name": "InsufficientBalance",
      "type": "error"
    },
    {
      "inputs": [],
      "name": "ZeroAmount",
      "type": "error"
    },
    {
      "anonymous": false,
      "inputs": [
        {
          "indexed": true,
          "internalType": "address",
          "name": "to",
          "type": "address"
        },
        {
          "indexed": false,
          "internalType": "uint256",
          "name": "amount",
          "type": "uint256"
        }
      ],
      "name": "BalanceWithdrawn",
      "type": "event"
    },
    {
      "anonymous": false,
      "inputs": [
        {
          "indexed": false,
          "internalType": "uint256",
          "name": "newAmount",
          "type": "uint256"
        }
      ],
      "name": "MaxDailyClaimUpdated",
      "type": "event"
    },
    {
      "anonymous": false,
      "inputs": [
        {
          "indexed": false,
          "internalType": "address",
          "name": "account",
          "type": "address"
        }
      ],
      "name": "Paused",
      "type": "event"
    },
    {
      "anonymous": false,
      "inputs": [
        {
          "indexed": true,
          "internalType": "bytes32",
          "name": "role",
          "type": "bytes32"
        },
        {
          "indexed": true,
          "internalType": "bytes32",
          "name": "previousAdminRole",
          "type": "bytes32"
        },
        {
          "indexed": true,
          "internalType": "bytes32",
          "name": "newAdminRole",
          "type": "bytes32"
        }
      ],
      "name": "RoleAdminChanged",
      "type": "event"
    },
    {
      "anonymous": false,
      "inputs": [
        {
          "indexed": true,
          "internalType": "bytes32",
          "name": "role",
          "type": "bytes32"
        },
        {
          "indexed": true,
          "internalType": "address",
          "name": "account",
          "type": "address"
        },
        {
          "indexed": true,
          "internalType": "address",
          "name": "sender",
          "type": "address"
        }
      ],
      "name": "RoleGranted",
      "type": "event"
    },
    {
      "anonymous": false,
      "inputs": [
        {
          "indexed": true,
          "internalType": "bytes32",
          "name": "role",
          "type": "bytes32"
        },
        {
          "indexed": true,
          "internalType": "address",
          "name": "account",
          "type": "address"
        },
        {
          "indexed": true,
          "internalType": "address",
          "name": "sender",
          "type": "address"
        }
      ],
      "name": "RoleRevoked",
      "type": "event"
    },
    {
      "anonymous": false,
      "inputs": [
        {
          "indexed": true,
          "internalType": "uint256",
          "name": "claimId",
          "type": "uint256"
        },
        {
          "indexed": true,
          "internalType": "address",
          "name": "farmer",
          "type": "address"
        },
        {
          "indexed": false,
          "internalType": "uint256",
          "name": "amount",
          "type": "uint256"
        }
      ],
      "name": "SubsidyClaimed",
      "type": "event"
    },
    {
      "anonymous": false,
      "inputs": [
        {
          "indexed": true,
          "internalType": "address",
          "name": "from",
          "type": "address"
        },
        {
          "indexed": false,
          "internalType": "uint256",
          "name": "amount",
          "type": "uint256"
        }
      ],
      "name": "SubsidyDeposited",
      "type": "event"
    },
    {
      "anonymous": false,
      "inputs": [
        {
          "indexed": false,
          "internalType": "address",
          "name": "account",
          "type": "address"
        }
      ],
      "name": "Unpaused",
      "type": "event"
    },
    {
      "inputs": [],
      "name": "DEFAULT_ADMIN_ROLE",
      "outputs": [
        {
          "internalType": "bytes32",
          "name": "",
          "type": "bytes32"
        }
      ],
      "stateMutability": "view",
      "type": "function"
    },
    {
      "inputs": [],
      "name": "FARMER_ROLE",
      "outputs": [
        {
          "internalType": "bytes32",
          "name": "",
          "type": "bytes32"
        }
      ],
      "stateMutability": "view",
      "type": "function"
    },
    {
      "inputs": [],
      "name": "GOVERNMENT_ROLE",
      "outputs": [
        {
          "internalType": "bytes32",
          "name": "",
          "type": "bytes32"
        }
      ],
      "stateMutability": "view",
      "type": "function"
    },
    {
      "inputs": [
        {
          "internalType": "address",
          "name": "farmer",
          "type": "address"
        }
      ],
      "name": "availableClaim",
      "outputs": [
        {
          "internalType": "uint256",
          "name": "",
          "type": "uint256"
        }
      ],
      "stateMutability": "view",
      "type": "function"
    },
    {
      "inputs": [],
      "name": "cUSD",
      "outputs": [
        {
          "internalType": "contract IERC20",
          "name": "",
          "type": "address"
        }
      ],
      "stateMutability": "view",
      "type": "function"
    },
    {
      "inputs": [
        {
          "internalType": "uint256",
          "name": "amount",
          "type": "uint256"
        },
        {
          "internalType": "string",
          "name": "reason",
          "type": "string"
        }
      ],
      "name": "claimSubsidy",
      "outputs": [
        {
          "internalType": "uint256",
          "name": "claimId",
          "type": "uint256"
        }
      ],
      "stateMutability": "nonpayable",
      "type": "function"
    },
    {
      "inputs": [
        {
          "internalType": "uint256",
          "name": "",
          "type": "uint256"
        }
      ],
      "name": "claims",
      "outputs": [
        {
          "internalType": "uint256",
          "name": "claimId",
          "type": "uint256"
        },
        {
          "internalType": "address",
          "name": "farmer",
          "type": "address"
        },
        {
          "internalType": "uint256",
          "name": "amount",
          "type": "uint256"
        },
        {
          "internalType": "uint256",
          "name": "claimedAt",
          "type": "uint256"
        },
        {
          "internalType": "string",
          "name": "reason",
          "type": "string"
        }
      ],
      "stateMutability": "view",
      "type": "function"
    },
    {
      "inputs": [],
      "name": "currentBalance",
      "outputs": [
        {
          "internalType": "uint256",
          "name": "",
          "type": "uint256"
        }
      ],
      "stateMutability": "view",
      "type": "function"
    },
    {
      "inputs": [
        {
          "internalType": "address",
          "name": "",
          "type": "address"
        }
      ],
      "name": "dailyClaimed",
      "outputs": [
        {
          "internalType": "uint256",
          "name": "",
          "type": "uint256"
        }
      ],
      "stateMutability": "view",
      "type": "function"
    },
    {
      "inputs": [
        {
          "internalType": "uint256",
          "name": "amount",
          "type": "uint256"
        }
      ],
      "name": "deposit",
      "outputs": [],
      "stateMutability": "nonpayable",
      "type": "function"
    },
    {
      "inputs": [
        {
          "internalType": "uint256",
          "name": "claimId",
          "type": "uint256"
        }
      ],
      "name": "getClaim",
      "outputs": [
        {
          "components": [
            {
              "internalType": "uint256",
              "name": "claimId",
              "type": "uint256"
            },
            {
              "internalType": "address",
              "name": "farmer",
              "type": "address"
            },
            {
              "internalType": "uint256",
              "name": "amount",
              "type": "uint256"
            },
            {
              "internalType": "uint256",
              "name": "claimedAt",
              "type": "uint256"
            },
            {
              "internalType": "string",
              "name": "reason",
              "type": "string"
            }
          ],
          "internalType": "struct GasSubsidyPool.SubsidyClaim",
          "name": "",
          "type": "tuple"
        }
      ],
      "stateMutability": "view",
      "type": "function"
    },
    {
      "inputs": [
        {
          "internalType": "address",
          "name": "farmer",
          "type": "address"
        }
      ],
      "name": "getFarmerClaims",
      "outputs": [
        {
          "internalType": "uint256[]",
          "name": "",
          "type": "uint256[]"
        }
      ],
      "stateMutability": "view",
      "type": "function"
    },
    {
      "inputs": [
        {
          "internalType": "bytes32",
          "name": "role",
          "type": "bytes32"
        }
      ],
      "name": "getRoleAdmin",
      "outputs": [
        {
          "internalType": "bytes32",
          "name": "",
          "type": "bytes32"
        }
      ],
      "stateMutability": "view",
      "type": "function"
    },
    {
      "inputs": [
        {
          "internalType": "bytes32",
          "name": "role",
          "type": "bytes32"
        },
        {
          "internalType": "address",
          "name": "account",
          "type": "address"
        }
      ],
      "name": "grantRole",
      "outputs": [],
      "stateMutability": "nonpayable",
      "type": "function"
    },
    {
      "inputs": [
        {
          "internalType": "bytes32",
          "name": "role",
          "type": "bytes32"
        },
        {
          "internalType": "address",
          "name": "account",
          "type": "address"
        }
      ],
      "name": "hasRole",
      "outputs": [
        {
          "internalType": "bool",
          "name": "",
          "type": "bool"
        }
      ],
      "stateMutability": "view",
      "type": "function"
    },
    {
      "inputs": [],
      "name": "maxDailyClaim",
      "outputs": [
        {
          "internalType": "uint256",
          "name": "",
          "type": "uint256"
        }
      ],
      "stateMutability": "view",
      "type": "function"
    },
    {
      "inputs": [],
      "name": "pause",
      "outputs": [],
      "stateMutability": "nonpayable",
      "type": "function"
    },
    {
      "inputs": [],
      "name": "paused",
      "outputs": [
        {
          "internalType": "bool",
          "name": "",
          "type": "bool"
        }
      ],
      "stateMutability": "view",
      "type": "function"
    },
    {
      "inputs": [
        {
          "internalType": "bytes32",
          "name": "role",
          "type": "bytes32"
        },
        {
          "internalType": "address",
          "name": "callerConfirmation",
          "type": "address"
        }
      ],
      "name": "renounceRole",
      "outputs": [],
      "stateMutability": "nonpayable",
      "type": "function"
    },
    {
      "inputs": [
        {
          "internalType": "bytes32",
          "name": "role",
          "type": "bytes32"
        },
        {
          "internalType": "address",
          "name": "account",
          "type": "address"
        }
      ],
      "name": "revokeRole",
      "outputs": [],
      "stateMutability": "nonpayable",
      "type": "function"
    },
    {
      "inputs": [
        {
          "internalType": "uint256",
          "name": "newMax",
          "type": "uint256"
        }
      ],
      "name": "setMaxDailyClaim",
      "outputs": [],
      "stateMutability": "nonpayable",
      "type": "function"
    },
    {
      "inputs": [
        {
          "internalType": "bytes4",
          "name": "interfaceId",
          "type": "bytes4"
        }
      ],
      "name": "supportsInterface",
      "outputs": [
        {
          "internalType": "bool",
          "name": "",
          "type": "bool"
        }
      ],
      "stateMutability": "view",
      "type": "function"
    },
    {
      "inputs": [],
      "name": "unpause",
      "outputs": [],
      "stateMutability": "nonpayable",
      "type": "function"
    },
    {
      "inputs": [
        {
          "internalType": "uint256",
          "name": "amount",
          "type": "uint256"
        },
        {
          "internalType": "address",
          "name": "to",
          "type": "address"
        }
      ],
      "name": "withdrawBalance",
      "outputs": [],
      "stateMutability": "nonpayable",
      "type": "function"
    }
  ],
  "bytecode": "0x60a06040523480156200001157600080fd5b50604051620017183803806200171883398101604081905262000034916200015c565b6001600160a01b038216608052674563918244f400006003556200005a60008262000090565b50620000877fd9d062b29c8756d894f301c5167d214c34d627724cd7fc859ab9329c9330cf518262000090565b50505062000194565b6000828152602081815260408083206001600160a01b038516845290915281205460ff1662000135576000838152602081815260408083206001600160a01b03861684529091529020805460ff19166001179055620000ec3390565b6001600160a01b0316826001600160a01b0316847f2f8788117e7eff1d82e926ec794901d17c78024a50270940304540a733656f0d60405160405180910390a450600162000139565b5060005b92915050565b80516001600160a01b03811681146200015757600080fd5b919050565b600080604083850312156200017057600080fd5b6200017b836200013f565b91506200018b602084016200013f565b90509250929050565b608051611553620001c5600039600081816101b40152818161063501528181610ac70152610d6301526115536000f3fe608060405234801561001057600080fd5b50600436106101585760003560e01c806379e81f39116100c3578063a888c2cd1161007c578063a888c2cd1461030f578063b6b55f2514610333578063c673c4cb14610346578063ce845d1d14610366578063d547741f1461036f578063f39439701461038257600080fd5b806379e81f391461029f5780638456cb59146102b257806391d14854146102ba57806396e09b71146102cd5780639cbed582146102e0578063a217fddf1461030757600080fd5b806336568abe1161011557806336568abe146102265780633f4ba83a14610239578063516e6698146102415780635aef2447146102545780635c975abb1461027457806362c76eeb1461027f57600080fd5b806301ffc9a71461015d578063054a1bcd146101855780631a1c61421461019c5780631fccf672146101af578063248a9ca3146101ee5780632f2ff15d14610211575b600080fd5b61017061016b366004611086565b6103a9565b60405190151581526020015b60405180910390f35b61018e60035481565b60405190815260200161017c565b61018e6101aa3660046110b7565b6103e0565b6101d67f000000000000000000000000000000000000000000000000000000000000000081565b6040516001600160a01b03909116815260200161017c565b61018e6101fc366004611133565b60009081526020819052604090206001015490565b61022461021f366004611168565b61078b565b005b610224610234366004611168565b6107b6565b6102246107ee565b61018e61024f366004611194565b610804565b610267610262366004611133565b6108b0565b60405161017c91906111f5565b60015460ff16610170565b61029261028d366004611194565b610a04565b60405161017c9190611248565b6102246102ad366004611168565b610a70565b610224610bb0565b6101706102c8366004611168565b610bc3565b6102246102db366004611133565b610bec565b61018e7fd9d062b29c8756d894f301c5167d214c34d627724cd7fc859ab9329c9330cf5181565b61018e600081565b61032261031d366004611133565b610c52565b60405161017c95949392919061128c565b610224610341366004611133565b610d15565b61018e610354366004611194565b60056020526000908152604090205481565b61018e60045481565b61022461037d366004611168565b610e47565b61018e7f7c6181838a71a779e445600d4c6ecbe16bacf2b3c5bda69c29fada66d1b645d181565b60006001600160e01b03198216637965db0b60e01b14806103da57506301ffc9a760e01b6001600160e01b03198316145b92915050565b60006103ea610e6c565b7f7c6181838a71a779e445600d4c6ecbe16bacf2b3c5bda69c29fada66d1b645d161041481610e92565b8460000361043557604051631f2a200560e01b815260040160405180910390fd5b60045485111561045857604051631e9acf1760e31b815260040160405180910390fd5b600061046762015180426112f6565b336000908152600560205260408120549192509061048e90670de0b6b3a7640000906112f6565b33600090815260056020526040812054919250906104b590670de0b6b3a76400009061130a565b905082821480156104d057506003546104ce898361131e565b115b15610509576104df888261131e565b6003546040516377b326b560e11b8152600481019290925260248201526044015b60405180910390fd5b60026000815461051890611331565b91905081905594506040518060a00160405280868152602001336001600160a01b0316815260200189815260200142815260200188888080601f01602080910402602001604051908101604052809392919081815260200183838082843760009201829052509390945250508781526006602090815260409182902084518155908401516001820180546001600160a01b0319166001600160a01b0390921691909117905590830151600282015560608301516003820155608083015190915060048201906105e790826113e8565b505033600081815260076020908152604080832080546001810182559084529183209091018990555163a9059cbb60e01b81526004810192909252602482018b905291506001600160a01b037f0000000000000000000000000000000000000000000000000000000000000000169063a9059cbb906044016020604051808303816000875af115801561067e573d6000803e3d6000fd5b505050506040513d601f19601f820116820180604052508101906106a291906114a8565b9050806106c15760405162461bcd60e51b8152600401610500906114ca565b88600460008282546106d391906114f3565b909155505083830361071a576106e9898361131e565b6106fb85670de0b6b3a7640000611506565b610705919061131e565b33600090815260056020526040902055610748565b8861072d85670de0b6b3a7640000611506565b610737919061131e565b336000908152600560205260409020555b604051898152339087907f45663406a370dff3c6d360f413f49577c89b781f29b33b313981f71d6c2374069060200160405180910390a350505050509392505050565b6000828152602081905260409020600101546107a681610e92565b6107b08383610e9c565b50505050565b6001600160a01b03811633146107df5760405163334bd91960e11b815260040160405180910390fd5b6107e98282610f2e565b505050565b60006107f981610e92565b610801610f99565b50565b60008061081462015180426112f6565b6001600160a01b0384166000908152600560205260408120549192509061084490670de0b6b3a7640000906112f6565b6001600160a01b0385166000908152600560205260408120549192509061087490670de0b6b3a76400009061130a565b90508282146108895750506003549392505050565b80600354116108995760006108a7565b806003546108a791906114f3565b95945050505050565b6108eb6040518060a001604052806000815260200160006001600160a01b031681526020016000815260200160008152602001606081525090565b8115806108f9575060025482115b1561091a57604051633373e46160e01b815260048101839052602401610500565b600082815260066020908152604091829020825160a0810184528154815260018201546001600160a01b0316928101929092526002810154928201929092526003820154606082015260048201805491929160808401919061097b90611360565b80601f01602080910402602001604051908101604052809291908181526020018280546109a790611360565b80156109f45780601f106109c9576101008083540402835291602001916109f4565b820191906000526020600020905b8154815290600101906020018083116109d757829003601f168201915b5050505050815250509050919050565b6001600160a01b038116600090815260076020908152604091829020805483518184028101840190945280845260609392830182828015610a6457602002820191906000526020600020905b815481526020019060010190808311610a50575b50505050509050919050565b6000610a7b81610e92565b600454831115610a9e57604051631e9acf1760e31b815260040160405180910390fd5b60405163a9059cbb60e01b81526001600160a01b038381166004830152602482018590526000917f00000000000000000000000000000000000000000000000000000000000000009091169063a9059cbb906044016020604051808303816000875af1158015610b12573d6000803e3d6000fd5b505050506040513d601f19601f82011682018060405250810190610b3691906114a8565b905080610b555760405162461bcd60e51b8152600401610500906114ca565b8360046000828254610b6791906114f3565b90915550506040518481526001600160a01b038416907fddc398b321237a8d40ac914388309c2f52a08c134e4dc4ce61e32f57cb7d80f19060200160405180910390a250505050565b6000610bbb81610e92565b610801610feb565b6000918252602082815260408084206001600160a01b0393909316845291905290205460ff1690565b7fd9d062b29c8756d894f301c5167d214c34d627724cd7fc859ab9329c9330cf51610c1681610e92565b60038290556040518281527f8a438efc6cfb07c14ebf4ac5ca561b21ae80dae4bee27f8fecf5fd2564e2d95c9060200160405180910390a15050565b6006602052600090815260409020805460018201546002830154600384015460048501805494956001600160a01b039094169492939192610c9290611360565b80601f0160208091040260200160405190810160405280929190818152602001828054610cbe90611360565b8015610d0b5780601f10610ce057610100808354040283529160200191610d0b565b820191906000526020600020905b815481529060010190602001808311610cee57829003601f168201915b5050505050905085565b610d1d610e6c565b80600003610d3e57604051631f2a200560e01b815260040160405180910390fd5b6040516323b872dd60e01b8152336004820152306024820152604481018290526000907f00000000000000000000000000000000000000000000000000000000000000006001600160a01b0316906323b872dd906064016020604051808303816000875af1158015610db4573d6000803e3d6000fd5b505050506040513d601f19601f82011682018060405250810190610dd891906114a8565b905080610df75760405162461bcd60e51b8152600401610500906114ca565b8160046000828254610e09919061131e565b909155505060405182815233907f70f7414e9295488cacd6db8863171f500a621b1421aa49476bc1c792769177c39060200160405180910390a25050565b600082815260208190526040902060010154610e6281610e92565b6107b08383610f2e565b60015460ff1615610e905760405163d93c066560e01b815260040160405180910390fd5b565b6108018133611026565b6000610ea88383610bc3565b610f26576000838152602081815260408083206001600160a01b03861684529091529020805460ff19166001179055610ede3390565b6001600160a01b0316826001600160a01b0316847f2f8788117e7eff1d82e926ec794901d17c78024a50270940304540a733656f0d60405160405180910390a45060016103da565b5060006103da565b6000610f3a8383610bc3565b15610f26576000838152602081815260408083206001600160a01b0386168085529252808320805460ff1916905551339286917ff6391f5c32d9c69d2a47ea670b442974b53935d1edc7fd64eb21e047a839171b9190a45060016103da565b610fa1611063565b6001805460ff191690557f5db9ee0a495bf2e6ff9c91a7834c1ba4fdd244a5e8aa4e537bd38aeae4b073aa335b6040516001600160a01b03909116815260200160405180910390a1565b610ff3610e6c565b6001805460ff1916811790557f62e78cea01bee320cd4e420270b5ea74000d11b0c9f74754ebdbfc544b05a25833610fce565b6110308282610bc3565b61105f5760405163e2517d3f60e01b81526001600160a01b038216600482015260248101839052604401610500565b5050565b60015460ff16610e9057604051638dfc202b60e01b815260040160405180910390fd5b60006020828403121561109857600080fd5b81356001600160e01b0319811681146110b057600080fd5b9392505050565b6000806000604084860312156110cc57600080fd5b83359250602084013567ffffffffffffffff808211156110eb57600080fd5b818601915086601f8301126110ff57600080fd5b81358181111561110e57600080fd5b87602082850101111561112057600080fd5b6020830194508093505050509250925092565b60006020828403121561114557600080fd5b5035919050565b80356001600160a01b038116811461116357600080fd5b919050565b6000806040838503121561117b57600080fd5b8235915061118b6020840161114c565b90509250929050565b6000602082840312156111a657600080fd5b6110b08261114c565b6000815180845260005b818110156111d5576020818501810151868301820152016111b9565b506000602082860101526020601f19601f83011685010191505092915050565b602081528151602082015260018060a01b03602083015116604082015260408201516060820152606082015160808201526000608083015160a08084015261124060c08401826111af565b949350505050565b6020808252825182820181905260009190848201906040850190845b8181101561128057835183529284019291840191600101611264565b50909695505050505050565b85815260018060a01b038516602082015283604082015282606082015260a0608082015260006112bf60a08301846111af565b979650505050505050565b634e487b7160e01b600052601260045260246000fd5b634e487b7160e01b600052601160045260246000fd5b600082611305576113056112ca565b500490565b600082611319576113196112ca565b500690565b808201808211156103da576103da6112e0565b600060018201611343576113436112e0565b5060010190565b634e487b7160e01b600052604160045260246000fd5b600181811c9082168061137457607f821691505b60208210810361139457634e487b7160e01b600052602260045260246000fd5b50919050565b601f8211156107e957600081815260208120601f850160051c810160208610156113c15750805b601f850160051c820191505b818110156113e0578281556001016113cd565b505050505050565b815167ffffffffffffffff8111156114025761140261134a565b611416816114108454611360565b8461139a565b602080601f83116001811461144b57600084156114335750858301515b600019600386901b1c1916600185901b1785556113e0565b600085815260208120601f198616915b8281101561147a5788860151825594840194600190910190840161145b565b50858210156114985787850151600019600388901b60f8161c191681555b5050505050600190811b01905550565b6000602082840312156114ba57600080fd5b815180151581146110b057600080fd5b6020808252600f908201526e151c985b9cd9995c8819985a5b1959608a1b604082015260600190565b818103818111156103da576103da6112e0565b80820281158282048414176103da576103da6112e056fea2646970667358221220d7353a0a92ff9eee31c29f0e8600093a65f23463b19453e0bdf6ee079157500e64736f6c63430008140033",
  "linkReferences": {},
  "deployedLinkReferences": {}
}