{
  "_format": "hh-sol-artifact-1",
  "contractName": "HarvestLedger",
  "sourceName": "contracts/HarvestLedger.sol",
  "abi": [
    {
      "inputs": [
        {
          "internalType": "address",
          "name": "admin",
          "type": "address"
        }
      ],
      "stateMutability": "nonpayable",
      "type": "constructor"
    },
    {
      "inputs": [],
      "name": "AccessControlBadConfirmation",
      "type": "error"
    },
    {
      "inputs": [
        {
          "internalType": "address",
          "name": "account",
          "type": "address"
        },
        {
          "internalType": "bytes32",
          "name": "neededRole",
          "type": "bytes32"
        }
      ],
      "name": "AccessControlUnauthorizedAccount",
      "type": "error"
    },
    {
      "inputs": [
        {
          "internalType": "bytes32",
          "name": "proof",
          "type": "bytes32"
        }
      ],
      "name": "DuplicateProofOfOrigin",
      "type": "error"
    },
    {
      "inputs": [],
      "name": "EnforcedPause",
      "type": "error"
    },
    {
      "inputs": [],
      "name": "ExpectedPause",
      "type": "error"
    },
    {
      "inputs": [
        {
          "internalType": "address",
          "name": "wallet",
          "type": "address"
        }
      ],
      "name": "FarmerAlreadyRegistered",
      "type": "error"
    },
    {
      "inputs": [],
      "name": "InvalidWeight",
      "type": "error"
    },
    {
      "inputs": [
        {
          "internalType": "uint256",
          "name": "lotId",
          "type": "uint256"
        }
      ],
      "name": "LotNotFound",
      "type": "error"
    },
    {
      "inputs": [
        {
          "internalType": "uint256",
          "name": "lotId",
          "type": "uint256"
        },
        {
          "internalType": "enum HarvestLedger.LotStatus",
          "name": "current",
          "type": "uint8"
        }
      ],
      "name": "LotNotPending",
      "type": "error"
    },
    {
      "inputs": [
        {
          "internalType": "address",
          "name": "caller",
          "type": "address"
        }
      ],
      "name": "NotAFarmer",
      "type": "error"
    },
    {
      "inputs": [],
      "name": "ReentrancyGuardReentrantCall",
      "type": "error"
    },
    {
      "anonymous": false,
      "inputs": [
        {
          "indexed": true,
          "internalType": "address",
          "name": "wallet",
          "type": "address"
        },
        {
          "indexed": false,
          "internalType": "string",
          "name": "farmerId",
          "type": "string"
        },
        {
          "indexed": false,
          "internalType": "string",
          "name": "district",
          "type": "string"
        }
      ],
      "name": "FarmerRegistered",
      "type": "event"
    },
    {
      "anonymous": false,
      "inputs": [
        {
          "indexed": true,
          "internalType": "uint256",
          "name": "lotId",
          "type": "uint256"
        },
        {
          "indexed": true,
          "internalType": "address",
          "name": "farmer",
          "type": "address"
        },
        {
          "indexed": false,
          "internalType": "bytes32",
          "name": "proofOfOrigin",
          "type": "bytes32"
        },
        {
          "indexed": false,
          "internalType": "enum HarvestLedger.FibreType",
          "name": "fibreType",
          "type": "uint8"
        },
        {
          "indexed": false,
          "internalType": "enum HarvestLedger.Grade",
          "name": "grade",
          "type": "uint8"
        },
        {
          "indexed": false,
          "internalType": "uint32",
          "name": "weightGrams",
          "type": "uint32"
        }
      ],
      "name": "LotRegistered",
      "type": "event"
    },
    {
      "anonymous": false,
      "inputs": [
        {
          "indexed": true,
          "internalType": "uint256",
          "name": "lotId",
          "type": "uint256"
        },
        {
          "indexed": true,
          "internalType": "address",
          "name": "validator",
          "type": "address"
        },
        {
          "indexed": false,
          "internalType": "enum HarvestLedger.LotStatus",
          "name": "status",
          "type": "uint8"
        }
      ],
      "name": "LotValidated",
      "type": "event"
    },
    {
      "anonymous": false,
      "inputs": [
        {
          "indexed": false,
          "internalType": "address",
          "name": "account",
          "type": "address"
        }
      ],
      "name": "Paused",
      "type": "event"
    },
    {
      "anonymous": false,
      "inputs": [
        {
          "indexed": true,
          "internalType": "bytes32",
          "name": "role",
          "type": "bytes32"
        },
        {
          "indexed": true,
          "internalType": "bytes32",
          "name": "previousAdminRole",
          "type": "bytes32"
        },
        {
          "indexed": true,
          "internalType": "bytes32",
          "name": "newAdminRole",
          "type": "bytes32"
        }
      ],
      "name": "RoleAdminChanged",
      "type": "event"
    },
    {
      "anonymous": false,
      "inputs": [
        {
          "indexed": true,
          "internalType": "bytes32",
          "name": "role",
          "type": "bytes32"
        },
        {
          "indexed": true,
          "internalType": "address",
          "name": "account",
          "type": "address"
        },
        {
          "indexed": true,
          "internalType": "address",
          "name": "sender",
          "type": "address"
        }
      ],
      "name": "RoleGranted",
      "type": "event"
    },
    {
      "anonymous": false,
      "inputs": [
        {
          "indexed": true,
          "internalType": "bytes32",
          "name": "role",
          "type": "bytes32"
        },
        {
          "indexed": true,
          "internalType": "address",
          "name": "account",
          "type": "address"
        },
        {
          "indexed": true,
          "internalType": "address",
          "name": "sender",
          "type": "address"
        }
      ],
      "name": "RoleRevoked",
      "type": "event"
    },
    {
      "anonymous": false,
      "inputs": [
        {
          "indexed": false,
          "internalType": "address",
          "name": "account",
          "type": "address"
        }
      ],
      "name": "Unpaused",
      "type": "event"
    },
    {
      "inputs": [],
      "name": "DEFAULT_ADMIN_ROLE",
      "outputs": [
        {
          "internalType": "bytes32",
          "name": "",
          "type": "bytes32"
        }
      ],
      "stateMutability": "view",
      "type": "function"
    },
    {
      "inputs": [],
      "name": "FARMER_ROLE",
      "outputs": [
        {
          "internalType": "bytes32",
          "name": "",
          "type": "bytes32"
        }
      ],
      "stateMutability": "view",
      "type": "function"
    },
    {
      "inputs": [],
      "name": "VALIDATOR_ROLE",
      "outputs": [
        {
          "internalType": "bytes32",
          "name": "",
          "type": "bytes32"
        }
      ],
      "stateMutability": "view",
      "type": "function"
    },
    {
      "inputs": [
        {
          "internalType": "address",
          "name": "",
          "type": "address"
        }
      ],
      "name": "farmers",
      "outputs": [
        {
          "internalType": "address",
          "name": "wallet",
          "type": "address"
        },
        {
          "internalType": "string",
          "name": "farmerId",
          "type": "string"
        },
        {
          "internalType": "string",
          "name": "district",
          "type": "string"
        },
        {
          "internalType": "bool",
          "name": "active",
          "type": "bool"
        },
        {
          "internalType": "uint256",
          "name": "totalLotsRegistered",
          "type": "uint256"
        },
        {
          "internalType": "uint256",
          "name": "totalWeightGrams",
          "type": "uint256"
        }
      ],
      "stateMutability": "view",
      "type": "function"
    },
    {
      "inputs": [
        {
          "internalType": "address",
          "name": "farmer",
          "type": "address"
        }
      ],
      "name": "getFarmerLots",
      "outputs": [
        {
          "internalType": "uint256[]",
          "name": "",
          "type": "uint256[]"
        }
      ],
      "stateMutability": "view",
      "type": "function"
    },
    {
      "inputs": [
        {
          "internalType": "uint256",
          "name": "lotId",
          "type": "uint256"
        }
      ],
      "name": "getLot",
      "outputs": [
        {
          "components": [
            {
              "internalType": "uint256",
              "name": "lotId",
              "type": "uint256"
            },
            {
              "internalType": "address",
              "name": "farmer",
              "type": "address"
            },
            {
              "internalType": "enum HarvestLedger.FibreType",
              "name": "fibreType",
              "type": "uint8"
            },
            {
              "internalType": "enum HarvestLedger.Grade",
              "name": "grade",
              "type": "uint8"
            },
            {
              "internalType": "uint32",
              "name": "weightGrams",
              "type": "uint32"
            },
            {
              "internalType": "string",
              "name": "gpsZone",
              "type": "string"
            },
            {
              "internalType": "string",
              "name": "seasonYear",
              "type": "string"
            },
            {
              "internalType": "bytes32",
              "name": "proofOfOrigin",
              "type": "bytes32"
            },
            {
              "internalType": "enum HarvestLedger.LotStatus",
              "name": "status",
              "type": "uint8"
            },
            {
              "internalType": "uint256",
              "name": "registeredAt",
              "type": "uint256"
            },
            {
              "internalType": "uint256",
              "name": "validatedAt",
              "type": "uint256"
            },
            {
              "internalType": "address",
              "name": "validatedBy",
              "type": "address"
            },
            {
              "internalType": "string",
              "name": "metadataURI",
              "type": "string"
            }
          ],
          "internalType": "struct HarvestLedger.HarvestLot",
          "name": "",
          "type": "tuple"
        }
      ],
      "stateMutability": "view",
      "type": "function"
    },
    {
      "inputs": [
        {
          "internalType": "bytes32",
          "name": "role",
          "type": "bytes32"
        }
      ],
      "name": "getRoleAdmin",
      "outputs": [
        {
          "internalType": "bytes32",
          "name": "",
          "type": "bytes32"
        }
      ],
      "stateMutability": "view",
      "type": "function"
    },
    {
      "inputs": [
        {
          "internalType": "bytes32",
          "name": "role",
          "type": "bytes32"
        },
        {
          "internalType": "address",
          "name": "account",
          "type": "address"
        }
      ],
      "name": "grantRole",
      "outputs": [],
      "stateMutability": "nonpayable",
      "type": "function"
    },
    {
      "inputs": [
        {
          "internalType": "bytes32",
          "name": "role",
          "type": "bytes32"
        },
        {
          "internalType": "address",
          "name": "account",
          "type": "address"
        }
      ],
      "name": "hasRole",
      "outputs": [
        {
          "internalType": "bool",
          "name": "",
          "type": "bool"
        }
      ],
      "stateMutability": "view",
      "type": "function"
    },
    {
      "inputs": [
        {
          "internalType": "uint256",
          "name": "",
          "type": "uint256"
        }
      ],
      "name": "lots",
      "outputs": [
        {
          "internalType": "uint256",
          "name": "lotId",
          "type": "uint256"
        },
        {
          "internalType": "address",
          "name": "farmer",
          "type": "address"
        },
        {
          "internalType": "enum HarvestLedger.FibreType",
          "name": "fibreType",
          "type": "uint8"
        },
        {
          "internalType": "enum HarvestLedger.Grade",
          "name": "grade",
          "type": "uint8"
        },
        {
          "internalType": "uint32",
          "name": "weightGrams",
          "type": "uint32"
        },
        {
          "internalType": "string",
          "name": "gpsZone",
          "type": "string"
        },
        {
          "internalType": "string",
          "name": "seasonYear",
          "type": "string"
        },
        {
          "internalType": "bytes32",
          "name": "proofOfOrigin",
          "type": "bytes32"
        },
        {
          "internalType": "enum HarvestLedger.LotStatus",
          "name": "status",
          "type": "uint8"
        },
        {
          "internalType": "uint256",
          "name": "registeredAt",
          "type": "uint256"
        },
        {
          "internalType": "uint256",
          "name": "validatedAt",
          "type": "uint256"
        },
        {
          "internalType": "address",
          "name": "validatedBy",
          "type": "address"
        },
        {
          "internalType": "string",
          "name": "metadataURI",
          "type": "string"
        }
      ],
      "stateMutability": "view",
      "type": "function"
    },
    {
      "inputs": [],
      "name": "pause",
      "outputs": [],
      "stateMutability": "nonpayable",
      "type": "function"
    },
    {
      "inputs": [],
      "name": "paused",
      "outputs": [
        {
          "internalType": "bool",
          "name": "",
          "type": "bool"
        }
      ],
      "stateMutability": "view",
      "type": "function"
    },
    {
      "inputs": [
        {
          "internalType": "address",
          "name": "wallet",
          "type": "address"
        },
        {
          "internalType": "string",
          "name": "farmerId",
          "type": "string"
        },
        {
          "internalType": "string",
          "name": "district",
          "type": "string"
        }
      ],
      "name": "registerFarmer",
      "outputs": [],
      "stateMutability": "nonpayable",
      "type": "function"
    },
    {
      "inputs": [
        {
          "internalType": "enum HarvestLedger.FibreType",
          "name": "fibreType",
          "type": "uint8"
        },
        {
          "internalType": "enum HarvestLedger.Grade",
          "name": "grade",
          "type": "uint8"
        },
        {
          "internalType": "uint32",
          "name": "weightGrams",
          "type": "uint32"
        },
        {
          "internalType": "string",
          "name": "gpsZone",
          "type": "string"
        },
        {
          "internalType": "string",
          "name": "seasonYear",
          "type": "string"
        },
        {
          "internalType": "string",
          "name": "metadataURI",
          "type": "string"
        }
      ],
      "name": "registerLot",
      "outputs": [
        {
          "internalType": "uint256",
          "name": "lotId",
          "type": "uint256"
        }
      ],
      "stateMutability": "nonpayable",
      "type": "function"
    },
    {
      "inputs": [
        {
          "internalType": "bytes32",
          "name": "role",
          "type": "bytes32"
        },
        {
          "internalType": "address",
          "name": "callerConfirmation",
          "type": "address"
        }
      ],
      "name": "renounceRole",
      "outputs": [],
      "stateMutability": "nonpayable",
      "type": "function"
    },
    {
      "inputs": [
        {
          "internalType": "bytes32",
          "name": "role",
          "type": "bytes32"
        },
        {
          "internalType": "address",
          "name": "account",
          "type": "address"
        }
      ],
      "name": "revokeRole",
      "outputs": [],
      "stateMutability": "nonpayable",
      "type": "function"
    },
    {
      "inputs": [
        {
          "internalType": "bytes4",
          "name": "interfaceId",
          "type": "bytes4"
        }
      ],
      "name": "supportsInterface",
      "outputs": [
        {
          "internalType": "bool",
          "name": "",
          "type": "bool"
        }
      ],
      "stateMutability": "view",
      "type": "function"
    },
    {
      "inputs": [],
      "name": "totalLots",
      "outputs": [
        {
          "internalType": "uint256",
          "name": "",
          "type": "uint256"
        }
      ],
      "stateMutability": "view",
      "type": "function"
    },
    {
      "inputs": [],
      "name": "unpause",
      "outputs": [],
      "stateMutability": "nonpayable",
      "type": "function"
    },
    {
      "inputs": [
        {
          "internalType": "bytes32",
          "name": "",
          "type": "bytes32"
        }
      ],
      "name": "usedProofs",
      "outputs": [
        {
          "internalType": "bool",
          "name": "",
          "type": "bool"
        }
      ],
      "stateMutability": "view",
      "type": "function"
    },
    {
      "inputs": [
        {
          "internalType": "uint256",
          "name": "lotId",
          "type": "uint256"
        },
        {
          "internalType": "bool",
          "name": "approve",
          "type": "bool"
        }
      ],
      "name": "validateLot",
      "outputs": [],
      "stateMutability": "nonpayable",
      "type": "function"
    },
    {
      "inputs": [
        {
          "internalType": "uint256",
          "name": "lotId",
          "type": "uint256"
        },
        {
          "internalType": "bytes32",
          "name": "proofHash",
          "type": "bytes32"
        }
      ],
      "name": "verifyProofOfOrigin",
      "outputs": [
        {
          "internalType": "bool",
          "name": "valid",
          "type": "bool"
        },
        {
          "internalType": "enum HarvestLedger.LotStatus",
          "name": "status",
          "type": "uint8"
        }
      ],
      "stateMutability": "view",
      "type": "function"
    }
  ],
  "bytecode": "0x60806040523480156200001157600080fd5b50604051620021b1380380620021b1833981016040819052620000349162000149565b60017f9b779b17422d0df92223018b32b4d1fa46e071723d6817e2486d003becc55f0055620000656000826200009a565b50620000927f21702c8af46127c7fa207f89d0b0a8441bb32959a0ac7df790e9ab1a25c98926826200009a565b50506200017b565b6000828152602081815260408083206001600160a01b038516845290915281205460ff166200013f576000838152602081815260408083206001600160a01b03861684529091529020805460ff19166001179055620000f63390565b6001600160a01b0316826001600160a01b0316847f2f8788117e7eff1d82e926ec794901d17c78024a50270940304540a733656f0d60405160405180910390a450600162000143565b5060005b92915050565b6000602082840312156200015c57600080fd5b81516001600160a01b03811681146200017457600080fd5b9392505050565b612026806200018b6000396000f3fe608060405234801561001057600080fd5b50600436106101425760003560e01c80638456cb59116100b8578063c49baebe1161007c578063c49baebe146102c2578063d547741f146102e9578063d9d641b1146102fc578063da38594a1461030f578063f1648e8414610322578063f39439701461034e57600080fd5b80638456cb591461025c57806391d1485414610264578063a217fddf14610277578063ab995d121461027f578063c30a0f251461029f57600080fd5b8063360f277b1161010a578063360f277b146101e857806336568abe146101f05780633f4ba83a14610203578063401b21681461020b5780635c975abb14610230578063731be0821461023b57600080fd5b806301ffc9a7146101475780630ddae2841461016f57806317f7bbe11461018f578063248a9ca3146101b05780632f2ff15d146101d3575b600080fd5b61015a61015536600461172b565b610375565b60405190151581526020015b60405180910390f35b61018261017d366004611778565b6103ac565b6040516101669190611793565b6101a261019d366004611843565b610418565b604051908152602001610166565b6101a26101be366004611917565b60009081526020819052604090206001015490565b6101e66101e1366004611930565b610922565b005b6002546101a2565b6101e66101fe366004611930565b61094d565b6101e6610985565b61021e610219366004611778565b61099b565b604051610166969594939291906119ac565b60015460ff1661015a565b61024e610249366004611a01565b610af0565b604051610166929190611a4d565b6101e6610b18565b61015a610272366004611930565b610b2b565b6101a2600081565b61029261028d366004611917565b610b54565b6040516101669190611a83565b61015a6102ad366004611917565b60056020526000908152604090205460ff1681565b6101a27f21702c8af46127c7fa207f89d0b0a8441bb32959a0ac7df790e9ab1a25c9892681565b6101e66102f7366004611930565b610ea3565b6101e661030a366004611b9c565b610ec8565b6101e661031d366004611c1d565b6110bd565b610335610330366004611917565b6111cf565b6040516101669d9c9b9a99989796959493929190611c52565b6101a27f7c6181838a71a779e445600d4c6ecbe16bacf2b3c5bda69c29fada66d1b645d181565b60006001600160e01b03198216637965db0b60e01b14806103a657506301ffc9a760e01b6001600160e01b03198316145b92915050565b6001600160a01b03811660009081526006602090815260409182902080548351818402810184019094528084526060939283018282801561040c57602002820191906000526020600020905b8154815260200190600101908083116103f8575b50505050509050919050565b60006104226113fa565b61042a611420565b7f7c6181838a71a779e445600d4c6ecbe16bacf2b3c5bda69c29fada66d1b645d16104548161144e565b63ffffffff8916158061046f5750623d09008963ffffffff16115b1561048d5760405163585b926360e01b815260040160405180910390fd5b60026000815461049c90611d2d565b9190508190559150600061052f33848e8e8e8e8e8080601f016020809104026020016040519081016040528093929190818152602001838380828437600081840152601f19601f820116905080830192505050505050508d8d8080601f01602080910402602001604051908101604052809392919081815260200183838082843760009201919091525061145892505050565b60008181526005602052604090205490915060ff161561056a5760405163edfcbe8560e01b8152600481018290526024015b60405180910390fd5b600081815260056020908152604091829020805460ff1916600190811790915582516101a081018452868152339281019290925290918201908e908111156105b4576105b4611a23565b81526020018c60028111156105cb576105cb611a23565b81526020018b63ffffffff1681526020018a8a8080601f016020809104026020016040519081016040528093929190818152602001838380828437600092019190915250505090825250604080516020601f8b0181900481028201810190925289815291810191908a908a908190840183828082843760009201829052509385525050506020820184905260409091019081526020014281526020016000815260200160006001600160a01b0316815260200186868080601f0160208091040260200160405190810160405280939291908181526020018383808284376000920182905250939094525050858152600360209081526040918290208451815590840151600180830180546001600160a01b031981166001600160a01b0390941693841782559487015193955092936001600160a81b03191690911790600160a01b90849081111561071e5761071e611a23565b0217905550606082015160018201805460ff60a81b1916600160a81b83600281111561074c5761074c611a23565b0217905550608082015160018201805463ffffffff909216600160b01b0263ffffffff60b01b1990921691909117905560a082015160028201906107909082611de4565b5060c082015160038201906107a59082611de4565b5060e0820151600482015561010082015160058201805460ff191660018360038111156107d4576107d4611a23565b0217905550610120820151600682015561014082015160078201556101608201516008820180546001600160a01b0319166001600160a01b03909216919091179055610180820151600982019061082b9082611de4565b5050336000818152600660209081526040808320805460018101825590845282842001889055928252600490819052918120909101805492509061086e83611d2d565b9091555050336000908152600460205260408120600501805463ffffffff8d16929061089b908490611ea4565b92505081905550336001600160a01b0316837fa95d4126c353d536adf14e3bb6cd4199697c6c2db2de40980fcdb2343d75c8ba838f8f8f6040516108e29493929190611eb7565b60405180910390a3505061091560017f9b779b17422d0df92223018b32b4d1fa46e071723d6817e2486d003becc55f0055565b9998505050505050505050565b60008281526020819052604090206001015461093d8161144e565b61094783836114bc565b50505050565b6001600160a01b03811633146109765760405163334bd91960e11b815260040160405180910390fd5b610980828261154e565b505050565b60006109908161144e565b6109986115b9565b50565b600460205260009081526040902080546001820180546001600160a01b0390921692916109c790611d5c565b80601f01602080910402602001604051908101604052809291908181526020018280546109f390611d5c565b8015610a405780601f10610a1557610100808354040283529160200191610a40565b820191906000526020600020905b815481529060010190602001808311610a2357829003601f168201915b505050505090806002018054610a5590611d5c565b80601f0160208091040260200160405190810160405280929190818152602001828054610a8190611d5c565b8015610ace5780601f10610aa357610100808354040283529160200191610ace565b820191906000526020600020905b815481529060010190602001808311610ab157829003601f168201915b5050505060038301546004840154600590940154929360ff9091169290915086565b6000806000610afe8561160b565b600481015460059091015494149560ff9094169450505050565b6000610b238161144e565b61099861164e565b6000918252602082815260408084206001600160a01b0393909316845291905290205460ff1690565b610bca604080516101a0810182526000808252602082018190529091820190815260200160008152600060208201819052606060408301819052808301526080820181905260a0909101908152602001600081526020016000815260200160006001600160a01b03168152602001606081525090565b610bd38261160b565b604080516101a081018252825481526001808401546001600160a01b0381166020840152919392840191600160a01b900460ff1690811115610c1757610c17611a23565b6001811115610c2857610c28611a23565b81526020016001820160159054906101000a900460ff166002811115610c5057610c50611a23565b6002811115610c6157610c61611a23565b81526001820154600160b01b900463ffffffff166020820152600282018054604090920191610c8f90611d5c565b80601f0160208091040260200160405190810160405280929190818152602001828054610cbb90611d5c565b8015610d085780601f10610cdd57610100808354040283529160200191610d08565b820191906000526020600020905b815481529060010190602001808311610ceb57829003601f168201915b50505050508152602001600382018054610d2190611d5c565b80601f0160208091040260200160405190810160405280929190818152602001828054610d4d90611d5c565b8015610d9a5780601f10610d6f57610100808354040283529160200191610d9a565b820191906000526020600020905b815481529060010190602001808311610d7d57829003601f168201915b505050918352505060048201546020820152600582015460409091019060ff166003811115610dcb57610dcb611a23565b6003811115610ddc57610ddc611a23565b8152600682015460208201526007820154604082015260088201546001600160a01b03166060820152600982018054608090920191610e1a90611d5c565b80601f0160208091040260200160405190810160405280929190818152602001828054610e4690611d5c565b8015610e935780601f10610e6857610100808354040283529160200191610e93565b820191906000526020600020905b815481529060010190602001808311610e7657829003601f168201915b5050505050815250509050919050565b600082815260208190526040902060010154610ebe8161144e565b610947838361154e565b6000610ed38161144e565b6001600160a01b03861660009081526004602052604090206003015460ff1615610f1b5760405163abaf51e160e01b81526001600160a01b0387166004820152602401610561565b6040518060c00160405280876001600160a01b0316815260200186868080601f016020809104026020016040519081016040528093929190818152602001838380828437600092019190915250505090825250604080516020601f8701819004810282018101909252858152918101919086908690819084018382808284376000920182905250938552505060016020808501829052604080860185905260609095018490526001600160a01b038c811685526004825294909320855181546001600160a01b03191695169490941784559184015191830191610fff915082611de4565b50604082015160028201906110149082611de4565b50606082015160038201805460ff19169115159190911790556080820151600482015560a09091015160059091015561106d7f7c6181838a71a779e445600d4c6ecbe16bacf2b3c5bda69c29fada66d1b645d1876114bc565b50856001600160a01b03167f851322da2e414e9965ce5ecef6890861b23f27fe84bd9646b7de8aea70efcb56868686866040516110ad9493929190611f16565b60405180910390a2505050505050565b7f21702c8af46127c7fa207f89d0b0a8441bb32959a0ac7df790e9ab1a25c989266110e78161144e565b60006110f28461160b565b90506000600582015460ff16600381111561110f5761110f611a23565b1461113957600581015460405162c14ec960e21b815261056191869160ff90911690600401611f48565b82611145576002611148565b60015b60058201805460ff1916600183600381111561116657611166611a23565b02179055504260078201556008810180546001600160a01b03191633908117909155600582015460405186917fa50f0f167ad71105cac6d76932fd0edcbe71b69f58ee28d4c3f6ca5c650af4df916111c19160ff1690611f5c565b60405180910390a350505050565b60036020526000908152604090208054600182015460028301805492936001600160a01b03831693600160a01b840460ff90811694600160a81b810490911693600160b01b90910463ffffffff16929161122890611d5c565b80601f016020809104026020016040519081016040528092919081815260200182805461125490611d5c565b80156112a15780601f10611276576101008083540402835291602001916112a1565b820191906000526020600020905b81548152906001019060200180831161128457829003601f168201915b5050505050908060030180546112b690611d5c565b80601f01602080910402602001604051908101604052809291908181526020018280546112e290611d5c565b801561132f5780601f106113045761010080835404028352916020019161132f565b820191906000526020600020905b81548152906001019060200180831161131257829003601f168201915b50505050600483015460058401546006850154600786015460088701546009880180549798959760ff9095169650929491936001600160a01b03909116929061137790611d5c565b80601f01602080910402602001604051908101604052809291908181526020018280546113a390611d5c565b80156113f05780601f106113c5576101008083540402835291602001916113f0565b820191906000526020600020905b8154815290600101906020018083116113d357829003601f168201915b505050505090508d565b60015460ff161561141e5760405163d93c066560e01b815260040160405180910390fd5b565b611428611689565b60027f9b779b17422d0df92223018b32b4d1fa46e071723d6817e2486d003becc55f0055565b61099881336116cb565b6000878787600181111561146e5761146e611a23565b87600281111561148057611480611a23565b8787876040516020016114999796959493929190611f6a565b604051602081830303815290604052805190602001209050979650505050505050565b60006114c88383610b2b565b611546576000838152602081815260408083206001600160a01b03861684529091529020805460ff191660011790556114fe3390565b6001600160a01b0316826001600160a01b0316847f2f8788117e7eff1d82e926ec794901d17c78024a50270940304540a733656f0d60405160405180910390a45060016103a6565b5060006103a6565b600061155a8383610b2b565b15611546576000838152602081815260408083206001600160a01b0386168085529252808320805460ff1916905551339286917ff6391f5c32d9c69d2a47ea670b442974b53935d1edc7fd64eb21e047a839171b9190a45060016103a6565b6115c1611708565b6001805460ff191690557f5db9ee0a495bf2e6ff9c91a7834c1ba4fdd244a5e8aa4e537bd38aeae4b073aa335b6040516001600160a01b03909116815260200160405180910390a1565b600081158061161b575060025482115b1561163c576040516376aca2bd60e01b815260048101839052602401610561565b50600090815260036020526040902090565b6116566113fa565b6001805460ff1916811790557f62e78cea01bee320cd4e420270b5ea74000d11b0c9f74754ebdbfc544b05a258336115ee565b7f9b779b17422d0df92223018b32b4d1fa46e071723d6817e2486d003becc55f005460020361141e57604051633ee5aeb560e01b815260040160405180910390fd5b6116d58282610b2b565b6117045760405163e2517d3f60e01b81526001600160a01b038216600482015260248101839052604401610561565b5050565b60015460ff1661141e57604051638dfc202b60e01b815260040160405180910390fd5b60006020828403121561173d57600080fd5b81356001600160e01b03198116811461175557600080fd5b9392505050565b80356001600160a01b038116811461177357600080fd5b919050565b60006020828403121561178a57600080fd5b6117558261175c565b6020808252825182820181905260009190848201906040850190845b818110156117cb578351835292840192918401916001016117af565b50909695505050505050565b80356003811061177357600080fd5b803563ffffffff8116811461177357600080fd5b60008083601f84011261180c57600080fd5b50813567ffffffffffffffff81111561182457600080fd5b60208301915083602082850101111561183c57600080fd5b9250929050565b600080600080600080600080600060c08a8c03121561186157600080fd5b89356002811061187057600080fd5b985061187e60208b016117d7565b975061188c60408b016117e6565b965060608a013567ffffffffffffffff808211156118a957600080fd5b6118b58d838e016117fa565b909850965060808c01359150808211156118ce57600080fd5b6118da8d838e016117fa565b909650945060a08c01359150808211156118f357600080fd5b506119008c828d016117fa565b915080935050809150509295985092959850929598565b60006020828403121561192957600080fd5b5035919050565b6000806040838503121561194357600080fd5b823591506119536020840161175c565b90509250929050565b60005b8381101561197757818101518382015260200161195f565b50506000910152565b6000815180845261199881602086016020860161195c565b601f01601f19169290920160200192915050565b6001600160a01b038716815260c0602082018190526000906119d090830188611980565b82810360408401526119e28188611980565b95151560608401525050608081019290925260a0909101529392505050565b60008060408385031215611a1457600080fd5b50508035926020909101359150565b634e487b7160e01b600052602160045260246000fd5b60048110611a4957611a49611a23565b9052565b8215158152604081016117556020830184611a39565b60028110611a4957611a49611a23565b60038110611a4957611a49611a23565b602081528151602082015260006020830151611aaa60408401826001600160a01b03169052565b506040830151611abd6060840182611a63565b506060830151611ad06080840182611a73565b50608083015163ffffffff811660a08401525060a08301516101a08060c0850152611aff6101c0850183611980565b915060c0850151601f19808685030160e0870152611b1d8483611980565b60e0880151610100888101919091528801519094509150610120611b4381880184611a39565b87015161014087810191909152870151610160808801919091528701519150610180611b79818801846001600160a01b03169052565b870151868503909101838701529050611b928382611980565b9695505050505050565b600080600080600060608688031215611bb457600080fd5b611bbd8661175c565b9450602086013567ffffffffffffffff80821115611bda57600080fd5b611be689838a016117fa565b90965094506040880135915080821115611bff57600080fd5b50611c0c888289016117fa565b969995985093965092949392505050565b60008060408385031215611c3057600080fd5b8235915060208301358015158114611c4757600080fd5b809150509250929050565b8d81526001600160a01b038d16602082015260006101a0611c76604084018f611a63565b611c83606084018e611a73565b63ffffffff8c1660808401528060a0840152611ca18184018c611980565b905082810360c0840152611cb5818b611980565b90508860e0840152611ccb610100840189611a39565b8661012084015285610140840152611cef6101608401866001600160a01b03169052565b828103610180840152611d028185611980565b9150509e9d5050505050505050505050505050565b634e487b7160e01b600052601160045260246000fd5b600060018201611d3f57611d3f611d17565b5060010190565b634e487b7160e01b600052604160045260246000fd5b600181811c90821680611d7057607f821691505b602082108103611d9057634e487b7160e01b600052602260045260246000fd5b50919050565b601f82111561098057600081815260208120601f850160051c81016020861015611dbd5750805b601f850160051c820191505b81811015611ddc57828155600101611dc9565b505050505050565b815167ffffffffffffffff811115611dfe57611dfe611d46565b611e1281611e0c8454611d5c565b84611d96565b602080601f831160018114611e475760008415611e2f5750858301515b600019600386901b1c1916600185901b178555611ddc565b600085815260208120601f198616915b82811015611e7657888601518255948401946001909101908401611e57565b5085821015611e945787850151600019600388901b60f8161c191681555b5050505050600190811b01905550565b808201808211156103a6576103a6611d17565b84815260808101611ecb6020830186611a63565b611ed86040830185611a73565b63ffffffff8316606083015295945050505050565b81835281816020850137506000828201602090810191909152601f909101601f19169091010190565b604081526000611f2a604083018688611eed565b8281036020840152611f3d818587611eed565b979650505050505050565b828152604081016117556020830184611a39565b602081016103a68284611a39565b6bffffffffffffffffffffffff198860601b168152866014820152600060ff60f81b808860f81b166034840152808760f81b1660358401525063ffffffff60e01b8560e01b1660368301528351611fc881603a85016020880161195c565b835190830190611fdf81603a84016020880161195c565b01603a01999850505050505050505056fea2646970667358221220affa92dfac21a90292cac966f6bd31eed4d07db3b56ff109798af370a1a1b98064736f6c63430008140033",
  "linkReferences": {},
  "deployedLinkReferences": {}
}