{
  "_format": "hh-sol-artifact-1",
  "contractName": "IndustryMarkRegistry",
  "sourceName": "contracts/IndustryMarkRegistry.sol",
  "abi": [
    {
      "inputs": [
        {
          "internalType": "address",
          "name": "admin",
          "type": "address"
        }
      ],
      "stateMutability": "nonpayable",
      "type": "constructor"
    },
    {
      "inputs": [],
      "name": "AccessControlBadConfirmation",
      "type": "error"
    },
    {
      "inputs": [
        {
          "internalType": "address",
          "name": "account",
          "type": "address"
        },
        {
          "internalType": "bytes32",
          "name": "neededRole",
          "type": "bytes32"
        }
      ],
      "name": "AccessControlUnauthorizedAccount",
      "type": "error"
    },
    {
      "inputs": [],
      "name": "EnforcedPause",
      "type": "error"
    },
    {
      "inputs": [],
      "name": "ExpectedPause",
      "type": "error"
    },
    {
      "inputs": [
        {
          "internalType": "string",
          "name": "farmerId",
          "type": "string"
        }
      ],
      "name": "FarmerNotRegistered",
      "type": "error"
    },
    {
      "inputs": [
        {
          "internalType": "uint256",
          "name": "expiry",
          "type": "uint256"
        }
      ],
      "name": "InvalidExpiryDate",
      "type": "error"
    },
    {
      "inputs": [
        {
          "internalType": "address",
          "name": "farmer",
          "type": "address"
        }
      ],
      "name": "MarkAlreadyActive",
      "type": "error"
    },
    {
      "inputs": [
        {
          "internalType": "uint256",
          "name": "markId",
          "type": "uint256"
        }
      ],
      "name": "MarkNotFound",
      "type": "error"
    },
    {
      "inputs": [
        {
          "internalType": "address",
          "name": "caller",
          "type": "address"
        },
        {
          "internalType": "uint256",
          "name": "markId",
          "type": "uint256"
        }
      ],
      "name": "NotMarkOwner",
      "type": "error"
    },
    {
      "anonymous": false,
      "inputs": [
        {
          "indexed": true,
          "internalType": "uint256",
          "name": "markId",
          "type": "uint256"
        }
      ],
      "name": "MarkExpired",
      "type": "event"
    },
    {
      "anonymous": false,
      "inputs": [
        {
          "indexed": true,
          "internalType": "uint256",
          "name": "markId",
          "type": "uint256"
        },
        {
          "indexed": true,
          "internalType": "address",
          "name": "farmer",
          "type": "address"
        },
        {
          "indexed": false,
          "internalType": "string",
          "name": "farmerId",
          "type": "string"
        },
        {
          "indexed": false,
          "internalType": "enum IndustryMarkRegistry.MarkType",
          "name": "markType",
          "type": "uint8"
        },
        {
          "indexed": false,
          "internalType": "uint256",
          "name": "expiresAt",
          "type": "uint256"
        }
      ],
      "name": "MarkIssued",
      "type": "event"
    },
    {
      "anonymous": false,
      "inputs": [
        {
          "indexed": true,
          "internalType": "uint256",
          "name": "markId",
          "type": "uint256"
        },
        {
          "indexed": true,
          "internalType": "address",
          "name": "revokedBy",
          "type": "address"
        }
      ],
      "name": "MarkRevoked",
      "type": "event"
    },
    {
      "anonymous": false,
      "inputs": [
        {
          "indexed": false,
          "internalType": "address",
          "name": "account",
          "type": "address"
        }
      ],
      "name": "Paused",
      "type": "event"
    },
    {
      "anonymous": false,
      "inputs": [
        {
          "indexed": true,
          "internalType": "bytes32",
          "name": "role",
          "type": "bytes32"
        },
        {
          "indexed": true,
          "internalType": "bytes32",
          "name": "previousAdminRole",
          "type": "bytes32"
        },
        {
          "indexed": true,
          "internalType": "bytes32",
          "name": "newAdminRole",
          "type": "bytes32"
        }
      ],
      "name": "RoleAdminChanged",
      "type": "event"
    },
    {
      "anonymous": false,
      "inputs": [
        {
          "indexed": true,
          "internalType": "bytes32",
          "name": "role",
          "type": "bytes32"
        },
        {
          "indexed": true,
          "internalType": "address",
          "name": "account",
          "type": "address"
        },
        {
          "indexed": true,
          "internalType": "address",
          "name": "sender",
          "type": "address"
        }
      ],
      "name": "RoleGranted",
      "type": "event"
    },
    {
      "anonymous": false,
      "inputs": [
        {
          "indexed": true,
          "internalType": "bytes32",
          "name": "role",
          "type": "bytes32"
        },
        {
          "indexed": true,
          "internalType": "address",
          "name": "account",
          "type": "address"
        },
        {
          "indexed": true,
          "internalType": "address",
          "name": "sender",
          "type": "address"
        }
      ],
      "name": "RoleRevoked",
      "type": "event"
    },
    {
      "anonymous": false,
      "inputs": [
        {
          "indexed": false,
          "internalType": "address",
          "name": "account",
          "type": "address"
        }
      ],
      "name": "Unpaused",
      "type": "event"
    },
    {
      "inputs": [],
      "name": "DEFAULT_ADMIN_ROLE",
      "outputs": [
        {
          "internalType": "bytes32",
          "name": "",
          "type": "bytes32"
        }
      ],
      "stateMutability": "view",
      "type": "function"
    },
    {
      "inputs": [],
      "name": "FARMER_ROLE",
      "outputs": [
        {
          "internalType": "bytes32",
          "name": "",
          "type": "bytes32"
        }
      ],
      "stateMutability": "view",
      "type": "function"
    },
    {
      "inputs": [],
      "name": "GOVERNMENT_ROLE",
      "outputs": [
        {
          "internalType": "bytes32",
          "name": "",
          "type": "bytes32"
        }
      ],
      "stateMutability": "view",
      "type": "function"
    },
    {
      "inputs": [
        {
          "internalType": "uint256",
          "name": "markId",
          "type": "uint256"
        }
      ],
      "name": "checkExpiry",
      "outputs": [],
      "stateMutability": "nonpayable",
      "type": "function"
    },
    {
      "inputs": [
        {
          "internalType": "address",
          "name": "farmer",
          "type": "address"
        }
      ],
      "name": "getFarmerMarks",
      "outputs": [
        {
          "internalType": "uint256[]",
          "name": "",
          "type": "uint256[]"
        }
      ],
      "stateMutability": "view",
      "type": "function"
    },
    {
      "inputs": [
        {
          "internalType": "uint256",
          "name": "markId",
          "type": "uint256"
        }
      ],
      "name": "getMark",
      "outputs": [
        {
          "components": [
            {
              "internalType": "uint256",
              "name": "markId",
              "type": "uint256"
            },
            {
              "internalType": "address",
              "name": "farmer",
              "type": "address"
            },
            {
              "internalType": "string",
              "name": "farmerId",
              "type": "string"
            },
            {
              "internalType": "enum IndustryMarkRegistry.MarkType",
              "name": "markType",
              "type": "uint8"
            },
            {
              "internalType": "string",
              "name": "description",
              "type": "string"
            },
            {
              "internalType": "uint256",
              "name": "issuedAt",
              "type": "uint256"
            },
            {
              "internalType": "uint256",
              "name": "expiresAt",
              "type": "uint256"
            },
            {
              "internalType": "enum IndustryMarkRegistry.MarkStatus",
              "name": "status",
              "type": "uint8"
            },
            {
              "internalType": "address",
              "name": "issuedBy",
              "type": "address"
            },
            {
              "internalType": "string",
              "name": "metadataURI",
              "type": "string"
            }
          ],
          "internalType": "struct IndustryMarkRegistry.IndustryMark",
          "name": "",
          "type": "tuple"
        }
      ],
      "stateMutability": "view",
      "type": "function"
    },
    {
      "inputs": [
        {
          "internalType": "bytes32",
          "name": "role",
          "type": "bytes32"
        }
      ],
      "name": "getRoleAdmin",
      "outputs": [
        {
          "internalType": "bytes32",
          "name": "",
          "type": "bytes32"
        }
      ],
      "stateMutability": "view",
      "type": "function"
    },
    {
      "inputs": [
        {
          "internalType": "bytes32",
          "name": "role",
          "type": "bytes32"
        },
        {
          "internalType": "address",
          "name": "account",
          "type": "address"
        }
      ],
      "name": "grantRole",
      "outputs": [],
      "stateMutability": "nonpayable",
      "type": "function"
    },
    {
      "inputs": [
        {
          "internalType": "bytes32",
          "name": "role",
          "type": "bytes32"
        },
        {
          "internalType": "address",
          "name": "account",
          "type": "address"
        }
      ],
      "name": "hasRole",
      "outputs": [
        {
          "internalType": "bool",
          "name": "",
          "type": "bool"
        }
      ],
      "stateMutability": "view",
      "type": "function"
    },
    {
      "inputs": [
        {
          "internalType": "uint256",
          "name": "markId",
          "type": "uint256"
        }
      ],
      "name": "isMarkValid",
      "outputs": [
        {
          "internalType": "bool",
          "name": "",
          "type": "bool"
        }
      ],
      "stateMutability": "view",
      "type": "function"
    },
    {
      "inputs": [
        {
          "internalType": "address",
          "name": "farmer",
          "type": "address"
        },
        {
          "internalType": "string",
          "name": "farmerId",
          "type": "string"
        },
        {
          "internalType": "enum IndustryMarkRegistry.MarkType",
          "name": "markType",
          "type": "uint8"
        },
        {
          "internalType": "string",
          "name": "description",
          "type": "string"
        },
        {
          "internalType": "uint256",
          "name": "expiresAt",
          "type": "uint256"
        },
        {
          "internalType": "string",
          "name": "metadataURI",
          "type": "string"
        }
      ],
      "name": "issueMark",
      "outputs": [
        {
          "internalType": "uint256",
          "name": "markId",
          "type": "uint256"
        }
      ],
      "stateMutability": "nonpayable",
      "type": "function"
    },
    {
      "inputs": [
        {
          "internalType": "uint256",
          "name": "",
          "type": "uint256"
        }
      ],
      "name": "marks",
      "outputs": [
        {
          "internalType": "uint256",
          "name": "markId",
          "type": "uint256"
        },
        {
          "internalType": "address",
          "name": "farmer",
          "type": "address"
        },
        {
          "internalType": "string",
          "name": "farmerId",
          "type": "string"
        },
        {
          "internalType": "enum IndustryMarkRegistry.MarkType",
          "name": "markType",
          "type": "uint8"
        },
        {
          "internalType": "string",
          "name": "description",
          "type": "string"
        },
        {
          "internalType": "uint256",
          "name": "issuedAt",
          "type": "uint256"
        },
        {
          "internalType": "uint256",
          "name": "expiresAt",
          "type": "uint256"
        },
        {
          "internalType": "enum IndustryMarkRegistry.MarkStatus",
          "name": "status",
          "type": "uint8"
        },
        {
          "internalType": "address",
          "name": "issuedBy",
          "type": "address"
        },
        {
          "internalType": "string",
          "name": "metadataURI",
          "type": "string"
        }
      ],
      "stateMutability": "view",
      "type": "function"
    },
    {
      "inputs": [],
      "name": "pause",
      "outputs": [],
      "stateMutability": "nonpayable",
      "type": "function"
    },
    {
      "inputs": [],
      "name": "paused",
      "outputs": [
        {
          "internalType": "bool",
          "name": "",
          "type": "bool"
        }
      ],
      "stateMutability": "view",
      "type": "function"
    },
    {
      "inputs": [
        {
          "internalType": "address",
          "name": "",
          "type": "address"
        },
        {
          "internalType": "string",
          "name": "farmerId",
          "type": "string"
        }
      ],
      "name": "registerFarmerId",
      "outputs": [],
      "stateMutability": "nonpayable",
      "type": "function"
    },
    {
      "inputs": [
        {
          "internalType": "bytes32",
          "name": "role",
          "type": "bytes32"
        },
        {
          "internalType": "address",
          "name": "callerConfirmation",
          "type": "address"
        }
      ],
      "name": "renounceRole",
      "outputs": [],
      "stateMutability": "nonpayable",
      "type": "function"
    },
    {
      "inputs": [
        {
          "internalType": "uint256",
          "name": "markId",
          "type": "uint256"
        }
      ],
      "name": "revokeMark",
      "outputs": [],
      "stateMutability": "nonpayable",
      "type": "function"
    },
    {
      "inputs": [
        {
          "internalType": "bytes32",
          "name": "role",
          "type": "bytes32"
        },
        {
          "internalType": "address",
          "name": "account",
          "type": "address"
        }
      ],
      "name": "revokeRole",
      "outputs": [],
      "stateMutability": "nonpayable",
      "type": "function"
    },
    {
      "inputs": [
        {
          "internalType": "bytes4",
          "name": "interfaceId",
          "type": "bytes4"
        }
      ],
      "name": "supportsInterface",
      "outputs": [
        {
          "internalType": "bool",
          "name": "",
          "type": "bool"
        }
      ],
      "stateMutability": "view",
      "type": "function"
    },
    {
      "inputs": [],
      "name": "unpause",
      "outputs": [],
      "stateMutability": "nonpayable",
      "type": "function"
    }
  ],
  "bytecode": "0x60806040523480156200001157600080fd5b5060405162001b7938038062001b79833981016040819052620000349162000125565b6200004160008262000076565b506200006e7fd9d062b29c8756d894f301c5167d214c34d627724cd7fc859ab9329c9330cf518262000076565b505062000157565b6000828152602081815260408083206001600160a01b038516845290915281205460ff166200011b576000838152602081815260408083206001600160a01b03861684529091529020805460ff19166001179055620000d23390565b6001600160a01b0316826001600160a01b0316847f2f8788117e7eff1d82e926ec794901d17c78024a50270940304540a733656f0d60405160405180910390a45060016200011f565b5060005b92915050565b6000602082840312156200013857600080fd5b81516001600160a01b03811681146200015057600080fd5b9392505050565b611a1280620001676000396000f3fe608060405234801561001057600080fd5b506004361061012c5760003560e01c80639cbed582116100ad578063e4357cd711610071578063e4357cd71461028c578063e5774d481461029f578063e94f6991146102b2578063eb209294146102c5578063f3943970146102d857600080fd5b80639cbed58214610229578063a217fddf1461023e578063c408a58a14610246578063d0d16c2a14610266578063d547741f1461027957600080fd5b80633e008977116100f45780633e008977146101db5780633f4ba83a146101fb5780635c975abb146102035780638456cb591461020e57806391d148541461021657600080fd5b806301ffc9a7146101315780631f44f6e614610159578063248a9ca3146101825780632f2ff15d146101b357806336568abe146101c8575b600080fd5b61014461013f36600461135c565b6102ff565b60405190151581526020015b60405180910390f35b61016c610167366004611386565b610336565b6040516101509a99989796959493929190611426565b6101a5610190366004611386565b60009081526020819052604090206001015490565b604051908152602001610150565b6101c66101c13660046114db565b61053f565b005b6101c66101d63660046114db565b61056a565b6101ee6101e9366004611386565b6105a2565b6040516101509190611507565b6101c661082c565b60015460ff16610144565b6101c6610842565b6101446102243660046114db565b610855565b6101a56000805160206119bd83398151915281565b6101a5600081565b6102596102543660046115e7565b61087e565b6040516101509190611602565b6101c661027436600461168f565b6108ea565b6101c66102873660046114db565b61098c565b6101c661029a366004611386565b6109b1565b6101446102ad366004611386565b610a2e565b6101a56102c03660046116e2565b610cf8565b6101c66102d3366004611386565b610fe3565b6101a57f7c6181838a71a779e445600d4c6ecbe16bacf2b3c5bda69c29fada66d1b645d181565b60006001600160e01b03198216637965db0b60e01b148061033057506301ffc9a760e01b6001600160e01b03198316145b92915050565b60036020526000908152604090208054600182015460028301805492936001600160a01b0390921692610368906117b1565b80601f0160208091040260200160405190810160405280929190818152602001828054610394906117b1565b80156103e15780601f106103b6576101008083540402835291602001916103e1565b820191906000526020600020905b8154815290600101906020018083116103c457829003601f168201915b5050506003840154600485018054949560ff909216949193509150610405906117b1565b80601f0160208091040260200160405190810160405280929190818152602001828054610431906117b1565b801561047e5780601f106104535761010080835404028352916020019161047e565b820191906000526020600020905b81548152906001019060200180831161046157829003601f168201915b505050506005830154600684015460078501546008860180549596939592945060ff8216936101009092046001600160a01b0316926104bc906117b1565b80601f01602080910402602001604051908101604052809291908181526020018280546104e8906117b1565b80156105355780601f1061050a57610100808354040283529160200191610535565b820191906000526020600020905b81548152906001019060200180831161051857829003601f168201915b505050505090508a565b60008281526020819052604090206001015461055a81611085565b610564838361108f565b50505050565b6001600160a01b03811633146105935760405163334bd91960e11b815260040160405180910390fd5b61059d8282611121565b505050565b6105aa6112de565b6105b38261118c565b60408051610140810182528254815260018301546001600160a01b031660208201526002830180549193928401916105ea906117b1565b80601f0160208091040260200160405190810160405280929190818152602001828054610616906117b1565b80156106635780601f1061063857610100808354040283529160200191610663565b820191906000526020600020905b81548152906001019060200180831161064657829003601f168201915b5050509183525050600382015460209091019060ff16600281111561068a5761068a6113e5565b600281111561069b5761069b6113e5565b81526020016004820180546106af906117b1565b80601f01602080910402602001604051908101604052809291908181526020018280546106db906117b1565b80156107285780601f106106fd57610100808354040283529160200191610728565b820191906000526020600020905b81548152906001019060200180831161070b57829003601f168201915b50505091835250506005820154602082015260068201546040820152600782015460609091019060ff166002811115610763576107636113e5565b6002811115610774576107746113e5565b8152600782015461010090046001600160a01b031660208201526008820180546040909201916107a3906117b1565b80601f01602080910402602001604051908101604052809291908181526020018280546107cf906117b1565b801561081c5780601f106107f15761010080835404028352916020019161081c565b820191906000526020600020905b8154815290600101906020018083116107ff57829003601f168201915b5050505050815250509050919050565b600061083781611085565b61083f6111cf565b50565b600061084d81611085565b61083f611221565b6000918252602082815260408084206001600160a01b0393909316845291905290205460ff1690565b6001600160a01b0381166000908152600460209081526040918290208054835181840281018401909452808452606093928301828280156108de57602002820191906000526020600020905b8154815260200190600101908083116108ca575b50505050509050919050565b6000805160206119bd83398151915261090281611085565b600583836040516109149291906117eb565b9081526040519081900360200190205460ff1615610952578282604051633a1d27bd60e21b8152600401610949929190611824565b60405180910390fd5b6001600584846040516109669291906117eb565b908152604051908190036020019020805491151560ff1990921691909117905550505050565b6000828152602081905260409020600101546109a781611085565b6105648383611121565b60006109bc8261118c565b90506000600782015460ff1660028111156109d9576109d96113e5565b1480156109ea575080600601544210155b15610a2a5760078101805460ff1916600117905560405182907f1b059eade7bdfaf46e4ce46ac10c5b74ab52b63fc8ec5f3ae90cdd7e9961ff2d90600090a25b5050565b60008181526003602090815260408083208151610140810183528154815260018201546001600160a01b03169381019390935260028101805485949384019190610a77906117b1565b80601f0160208091040260200160405190810160405280929190818152602001828054610aa3906117b1565b8015610af05780601f10610ac557610100808354040283529160200191610af0565b820191906000526020600020905b815481529060010190602001808311610ad357829003601f168201915b5050509183525050600382015460209091019060ff166002811115610b1757610b176113e5565b6002811115610b2857610b286113e5565b8152602001600482018054610b3c906117b1565b80601f0160208091040260200160405190810160405280929190818152602001828054610b68906117b1565b8015610bb55780601f10610b8a57610100808354040283529160200191610bb5565b820191906000526020600020905b815481529060010190602001808311610b9857829003601f168201915b50505091835250506005820154602082015260068201546040820152600782015460609091019060ff166002811115610bf057610bf06113e5565b6002811115610c0157610c016113e5565b8152600782015461010090046001600160a01b03166020820152600882018054604090920191610c30906117b1565b80601f0160208091040260200160405190810160405280929190818152602001828054610c5c906117b1565b8015610ca95780601f10610c7e57610100808354040283529160200191610ca9565b820191906000526020600020905b815481529060010190602001808311610c8c57829003601f168201915b50505050508152505090508060000151600003610cc95750600092915050565b60008160e001516002811115610ce157610ce16113e5565b148015610cf157508060c0015142105b9392505050565b60006000805160206119bd833981519152610d1281611085565b610d1a61125c565b428511610d3d5760405163ae7858e360e01b815260048101869052602401610949565b600260008154610d4c90611840565b91905081905591506040518061014001604052808381526020018c6001600160a01b031681526020018b8b8080601f016020809104026020016040519081016040528093929190818152602001838380828437600092019190915250505090825250602001896002811115610dc357610dc36113e5565b815260200188888080601f0160208091040260200160405190810160405280939291908181526020018383808284376000920182905250938552505042602084015250604082018890526060909101908152602001336001600160a01b0316815260200185858080601f01602080910402602001604051908101604052809392919081815260200183838082843760009201829052509390945250508481526003602090815260409182902084518155908401516001820180546001600160a01b0319166001600160a01b03909216919091179055908301519091506002820190610eae90826118cb565b50606082015160038201805460ff19166001836002811115610ed257610ed26113e5565b021790555060808201516004820190610eeb90826118cb565b5060a0820151600582015560c0820151600682015560e082015160078201805460ff19166001836002811115610f2357610f236113e5565b021790555061010082810151600783018054610100600160a81b0319166001600160a01b039092169092021790556101208201516008820190610f6690826118cb565b5050506001600160a01b038b166000818152600460209081526040808320805460018101825590845291909220018490555183907fd035b035002d4fdb625423d47e18effeaf4ad65b7181382218a40cd093e1a0e390610fcd908e908e908e908c9061198b565b60405180910390a3509998505050505050505050565b6000805160206119bd833981519152610ffb81611085565b60006110068361118c565b90506000600782015460ff166002811115611023576110236113e5565b1461104457604051631194cea760e31b815260048101849052602401610949565b60078101805460ff19166002179055604051339084907f88f7be84fbc274d4223e3b4a0036bdc93379e0b381f442b40dcc6f1af90efa6090600090a3505050565b61083f8133611282565b600061109b8383610855565b611119576000838152602081815260408083206001600160a01b03861684529091529020805460ff191660011790556110d13390565b6001600160a01b0316826001600160a01b0316847f2f8788117e7eff1d82e926ec794901d17c78024a50270940304540a733656f0d60405160405180910390a4506001610330565b506000610330565b600061112d8383610855565b15611119576000838152602081815260408083206001600160a01b0386168085529252808320805460ff1916905551339286917ff6391f5c32d9c69d2a47ea670b442974b53935d1edc7fd64eb21e047a839171b9190a4506001610330565b600081158061119c575060025482115b156111bd57604051631194cea760e31b815260048101839052602401610949565b50600090815260036020526040902090565b6111d76112bb565b6001805460ff191690557f5db9ee0a495bf2e6ff9c91a7834c1ba4fdd244a5e8aa4e537bd38aeae4b073aa335b6040516001600160a01b03909116815260200160405180910390a1565b61122961125c565b6001805460ff1916811790557f62e78cea01bee320cd4e420270b5ea74000d11b0c9f74754ebdbfc544b05a25833611204565b60015460ff16156112805760405163d93c066560e01b815260040160405180910390fd5b565b61128c8282610855565b610a2a5760405163e2517d3f60e01b81526001600160a01b038216600482015260248101839052604401610949565b60015460ff1661128057604051638dfc202b60e01b815260040160405180910390fd5b6040518061014001604052806000815260200160006001600160a01b03168152602001606081526020016000600281111561131b5761131b6113e5565b815260200160608152602001600081526020016000815260200160006002811115611348576113486113e5565b815260006020820152606060409091015290565b60006020828403121561136e57600080fd5b81356001600160e01b031981168114610cf157600080fd5b60006020828403121561139857600080fd5b5035919050565b6000815180845260005b818110156113c5576020818501810151868301820152016113a9565b506000602082860101526020601f19601f83011685010191505092915050565b634e487b7160e01b600052602160045260246000fd5b6003811061083f57634e487b7160e01b600052602160045260246000fd5b611422816113fb565b9052565b8a81526001600160a01b038a81166020830152610140604083018190526000916114528483018d61139f565b915061145d8b6113fb565b8a60608501528382036080850152611475828b61139f565b91508860a08501528760c085015261148c876113fb565b60e0840187905285166101008401528281036101208401526114ae818561139f565b9d9c50505050505050505050505050565b80356001600160a01b03811681146114d657600080fd5b919050565b600080604083850312156114ee57600080fd5b823591506114fe602084016114bf565b90509250929050565b60208152815160208201526000602083015161152e60408401826001600160a01b03169052565b50604083015161014080606085015261154b61016085018361139f565b9150606085015161155f6080860182611419565b506080850151601f19808685030160a087015261157c848361139f565b935060a087015160c087015260c087015160e087015260e087015191506101006115a881880184611419565b87015191506101206115c4878201846001600160a01b03169052565b8701518685039091018387015290506115dd838261139f565b9695505050505050565b6000602082840312156115f957600080fd5b610cf1826114bf565b6020808252825182820181905260009190848201906040850190845b8181101561163a5783518352928401929184019160010161161e565b50909695505050505050565b60008083601f84011261165857600080fd5b50813567ffffffffffffffff81111561167057600080fd5b60208301915083602082850101111561168857600080fd5b9250929050565b6000806000604084860312156116a457600080fd5b6116ad846114bf565b9250602084013567ffffffffffffffff8111156116c957600080fd5b6116d586828701611646565b9497909650939450505050565b600080600080600080600080600060c08a8c03121561170057600080fd5b6117098a6114bf565b985060208a013567ffffffffffffffff8082111561172657600080fd5b6117328d838e01611646565b909a50985060408c013591506003821061174b57600080fd5b90965060608b0135908082111561176157600080fd5b61176d8d838e01611646565b909750955060808c0135945060a08c013591508082111561178d57600080fd5b5061179a8c828d01611646565b915080935050809150509295985092959850929598565b600181811c908216806117c557607f821691505b6020821081036117e557634e487b7160e01b600052602260045260246000fd5b50919050565b8183823760009101908152919050565b81835281816020850137506000828201602090810191909152601f909101601f19169091010190565b6020815260006118386020830184866117fb565b949350505050565b60006001820161186057634e487b7160e01b600052601160045260246000fd5b5060010190565b634e487b7160e01b600052604160045260246000fd5b601f82111561059d57600081815260208120601f850160051c810160208610156118a45750805b601f850160051c820191505b818110156118c3578281556001016118b0565b505050505050565b815167ffffffffffffffff8111156118e5576118e5611867565b6118f9816118f384546117b1565b8461187d565b602080601f83116001811461192e57600084156119165750858301515b600019600386901b1c1916600185901b1785556118c3565b600085815260208120601f198616915b8281101561195d5788860151825594840194600190910190840161193e565b508582101561197b5787850151600019600388901b60f8161c191681555b5050505050600190811b01905550565b60608152600061199f6060830186886117fb565b90506119aa846113fb565b6020820193909352604001529291505056fed9d062b29c8756d894f301c5167d214c34d627724cd7fc859ab9329c9330cf51a264697066735822122055d522996e15fba30c783d14009f97114f906d4bd32a6dd2a5714df386b1d7bd64736f6c63430008140033",
  "linkReferences": {},
  "deployedLinkReferences": {}
}