{
  "_format": "hh-sol-artifact-1",
  "contractName": "MockCUSD",
  "sourceName": "contracts/MockCUSD.sol",
  "abi": [
    {
      "anonymous": false,
      "inputs": [
        {
          "indexed": true,
          "internalType": "address",
          "name": "owner",
          "type": "address"
        },
        {
          "indexed": true,
          "internalType": "address",
          "name": "spender",
          "type": "address"
        },
        {
          "indexed": false,
          "internalType": "uint256",
          "name": "value",
          "type": "uint256"
        }
      ],
      "name": "Approval",
      "type": "event"
    },
    {
      "anonymous": false,
      "inputs": [
        {
          "indexed": true,
          "internalType": "address",
          "name": "from",
          "type": "address"
        },
        {
          "indexed": true,
          "internalType": "address",
          "name": "to",
          "type": "address"
        },
        {
          "indexed": false,
          "internalType": "uint256",
          "name": "value",
          "type": "uint256"
        }
      ],
      "name": "Transfer",
      "type": "event"
    },
    {
      "inputs": [
        {
          "internalType": "address",
          "name": "",
          "type": "address"
        },
        {
          "internalType": "address",
          "name": "",
          "type": "address"
        }
      ],
      "name": "allowance",
      "outputs": [
        {
          "internalType": "uint256",
          "name": "",
          "type": "uint256"
        }
      ],
      "stateMutability": "view",
      "type": "function"
    },
    {
      "inputs": [
        {
          "internalType": "address",
          "name": "spender",
          "type": "address"
        },
        {
          "internalType": "uint256",
          "name": "amount",
          "type": "uint256"
        }
      ],
      "name": "approve",
      "outputs": [
        {
          "internalType": "bool",
          "name": "",
          "type": "bool"
        }
      ],
      "stateMutability": "nonpayable",
      "type": "function"
    },
    {
      "inputs": [
        {
          "internalType": "address",
          "name": "",
          "type": "address"
        }
      ],
      "name": "balanceOf",
      "outputs": [
        {
          "internalType": "uint256",
          "name": "",
          "type": "uint256"
        }
      ],
      "stateMutability": "view",
      "type": "function"
    },
    {
      "inputs": [],
      "name": "decimals",
      "outputs": [
        {
          "internalType": "uint8",
          "name": "",
          "type": "uint8"
        }
      ],
      "stateMutability": "view",
      "type": "function"
    },
    {
      "inputs": [
        {
          "internalType": "address",
          "name": "to",
          "type": "address"
        },
        {
          "internalType": "uint256",
          "name": "amount",
          "type": "uint256"
        }
      ],
      "name": "mint",
      "outputs": [],
      "stateMutability": "nonpayable",
      "type": "function"
    },
    {
      "inputs": [],
      "name": "name",
      "outputs": [
        {
          "internalType": "string",
          "name": "",
          "type": "string"
        }
      ],
      "stateMutability": "view",
      "type": "function"
    },
    {
      "inputs": [],
      "name": "symbol",
      "outputs": [
        {
          "internalType": "string",
          "name": "",
          "type": "string"
        }
      ],
      "stateMutability": "view",
      "type": "function"
    },
    {
      "inputs": [],
      "name": "totalSupply",
      "outputs": [
        {
          "internalType": "uint256",
          "name": "",
          "type": "uint256"
        }
      ],
      "stateMutability": "view",
      "type": "function"
    },
    {
      "inputs": [
        {
          "internalType": "address",
          "name": "to",
          "type": "address"
        },
        {
          "internalType": "uint256",
          "name": "amount",
          "type": "uint256"
        }
      ],
      "name": "transfer",
      "outputs": [
        {
          "internalType": "bool",
          "name": "",
          "type": "bool"
        }
      ],
      "stateMutability": "nonpayable",
      "type": "function"
    },
    {
      "inputs": [
        {
          "internalType": "address",
          "name": "from",
          "type": "address"
        },
        {
          "internalType": "address",
          "name": "to",
          "type": "address"
        },
        {
          "internalType": "uint256",
          "name": "amount",
          "type": "uint256"
        }
      ],
      "name": "transferFrom",
      "outputs": [
        {
          "internalType": "bool",
          "name": "",
          "type": "bool"
        }
      ],
      "stateMutability": "nonpayable",
      "type": "function"
    }
  ],
  "bytecode": "0x60c0604052601060809081526f26b7b1b59021b2b637902237b63630b960811b60a05260009061002f9082610117565b5060408051808201909152600481526318d554d160e21b60208201526001906100589082610117565b506002805460ff1916601217905534801561007257600080fd5b506101d6565b634e487b7160e01b600052604160045260246000fd5b600181811c908216806100a257607f821691505b6020821081036100c257634e487b7160e01b600052602260045260246000fd5b50919050565b601f82111561011257600081815260208120601f850160051c810160208610156100ef5750805b601f850160051c820191505b8181101561010e578281556001016100fb565b5050505b505050565b81516001600160401b0381111561013057610130610078565b6101448161013e845461008e565b846100c8565b602080601f83116001811461017957600084156101615750858301515b600019600386901b1c1916600185901b17855561010e565b600085815260208120601f198616915b828110156101a857888601518255948401946001909101908401610189565b50858210156101c65787850151600019600388901b60f8161c191681555b5050505050600190811b01905550565b6107ab806101e56000396000f3fe608060405234801561001057600080fd5b506004361061009e5760003560e01c806340c10f191161006657806340c10f191461012d57806370a082311461014257806395d89b4114610162578063a9059cbb1461016a578063dd62ed3e1461017d57600080fd5b806306fdde03146100a3578063095ea7b3146100c157806318160ddd146100e457806323b872dd146100fb578063313ce5671461010e575b600080fd5b6100ab6101a8565b6040516100b891906105da565b60405180910390f35b6100d46100cf366004610644565b610236565b60405190151581526020016100b8565b6100ed60035481565b6040519081526020016100b8565b6100d461010936600461066e565b6102a3565b60025461011b9060ff1681565b60405160ff90911681526020016100b8565b61014061013b366004610644565b61045e565b005b6100ed6101503660046106aa565b60046020526000908152604090205481565b6100ab6104e9565b6100d4610178366004610644565b6104f6565b6100ed61018b3660046106cc565b600560209081526000928352604080842090915290825290205481565b600080546101b5906106ff565b80601f01602080910402602001604051908101604052809291908181526020018280546101e1906106ff565b801561022e5780601f106102035761010080835404028352916020019161022e565b820191906000526020600020905b81548152906001019060200180831161021157829003601f168201915b505050505081565b3360008181526005602090815260408083206001600160a01b038716808552925280832085905551919290917f8c5be1e5ebec7d5bd14f71427d1e84f3dd0314c0f7b2291e5b200ac8c7c3b925906102919086815260200190565b60405180910390a35060015b92915050565b6001600160a01b0383166000908152600460205260408120548211156103075760405162461bcd60e51b8152602060048201526014602482015273496e73756666696369656e742062616c616e636560601b60448201526064015b60405180910390fd5b6001600160a01b03841660009081526005602090815260408083203384529091529020548211156103735760405162461bcd60e51b8152602060048201526016602482015275496e73756666696369656e7420616c6c6f77616e636560501b60448201526064016102fe565b6001600160a01b0384166000908152600560209081526040808320338452909152812080548492906103a690849061074f565b90915550506001600160a01b038416600090815260046020526040812080548492906103d390849061074f565b90915550506001600160a01b03831660009081526004602052604081208054849290610400908490610762565b92505081905550826001600160a01b0316846001600160a01b03167fddf252ad1be2c89b69c2b068fc378daa952ba7f163c4a11628f55a4df523b3ef8460405161044c91815260200190565b60405180910390a35060019392505050565b6001600160a01b03821660009081526004602052604081208054839290610486908490610762565b92505081905550806003600082825461049f9190610762565b90915550506040518181526001600160a01b038316906000907fddf252ad1be2c89b69c2b068fc378daa952ba7f163c4a11628f55a4df523b3ef9060200160405180910390a35050565b600180546101b5906106ff565b3360009081526004602052604081205482111561054c5760405162461bcd60e51b8152602060048201526014602482015273496e73756666696369656e742062616c616e636560601b60448201526064016102fe565b336000908152600460205260408120805484929061056b90849061074f565b90915550506001600160a01b03831660009081526004602052604081208054849290610598908490610762565b90915550506040518281526001600160a01b0384169033907fddf252ad1be2c89b69c2b068fc378daa952ba7f163c4a11628f55a4df523b3ef90602001610291565b600060208083528351808285015260005b81811015610607578581018301518582016040015282016105eb565b506000604082860101526040601f19601f8301168501019250505092915050565b80356001600160a01b038116811461063f57600080fd5b919050565b6000806040838503121561065757600080fd5b61066083610628565b946020939093013593505050565b60008060006060848603121561068357600080fd5b61068c84610628565b925061069a60208501610628565b9150604084013590509250925092565b6000602082840312156106bc57600080fd5b6106c582610628565b9392505050565b600080604083850312156106df57600080fd5b6106e883610628565b91506106f660208401610628565b90509250929050565b600181811c9082168061071357607f821691505b60208210810361073357634e487b7160e01b600052602260045260246000fd5b50919050565b634e487b7160e01b600052601160045260246000fd5b8181038181111561029d5761029d610739565b8082018082111561029d5761029d61073956fea2646970667358221220a76f7fdda03dad4d1dcdddf234ccd11f4aef1e297dd811eaa5c889ab4a1a982c64736f6c63430008140033",
  "linkReferences": {},
  "deployedLinkReferences": {}
}