{
  "_format": "hh-sol-artifact-1",
  "contractName": "MultiSigTreasury",
  "sourceName": "contracts/MultiSigTreasury.sol",
  "abi": [
    {
      "inputs": [
        {
          "internalType": "address",
          "name": "_cUSD",
          "type": "address"
        },
        {
          "internalType": "address",
          "name": "admin",
          "type": "address"
        },
        {
          "internalType": "address[]",
          "name": "initialSigners",
          "type": "address[]"
        }
      ],
      "stateMutability": "nonpayable",
      "type": "constructor"
    },
    {
      "inputs": [],
      "name": "AccessControlBadConfirmation",
      "type": "error"
    },
    {
      "inputs": [
        {
          "internalType": "address",
          "name": "account",
          "type": "address"
        },
        {
          "internalType": "bytes32",
          "name": "neededRole",
          "type": "bytes32"
        }
      ],
      "name": "AccessControlUnauthorizedAccount",
      "type": "error"
    },
    {
      "inputs": [
        {
          "internalType": "uint256",
          "name": "transactionId",
          "type": "uint256"
        },
        {
          "internalType": "address",
          "name": "signer",
          "type": "address"
        }
      ],
      "name": "AlreadySigned",
      "type": "error"
    },
    {
      "inputs": [],
      "name": "EnforcedPause",
      "type": "error"
    },
    {
      "inputs": [
        {
          "internalType": "uint256",
          "name": "proposedAt",
          "type": "uint256"
        },
        {
          "internalType": "uint256",
          "name": "delay",
          "type": "uint256"
        }
      ],
      "name": "ExecutionDelayNotMet",
      "type": "error"
    },
    {
      "inputs": [],
      "name": "ExpectedPause",
      "type": "error"
    },
    {
      "inputs": [
        {
          "internalType": "uint256",
          "name": "current",
          "type": "uint256"
        },
        {
          "internalType": "uint256",
          "name": "required",
          "type": "uint256"
        }
      ],
      "name": "InsufficientSignatures",
      "type": "error"
    },
    {
      "inputs": [
        {
          "internalType": "address",
          "name": "addr",
          "type": "address"
        }
      ],
      "name": "InvalidAddress",
      "type": "error"
    },
    {
      "inputs": [
        {
          "internalType": "uint256",
          "name": "amount",
          "type": "uint256"
        }
      ],
      "name": "InvalidAmount",
      "type": "error"
    },
    {
      "inputs": [
        {
          "internalType": "uint256",
          "name": "value",
          "type": "uint256"
        }
      ],
      "name": "InvalidRequiredSignatures",
      "type": "error"
    },
    {
      "inputs": [
        {
          "internalType": "address",
          "name": "caller",
          "type": "address"
        }
      ],
      "name": "NotSigner",
      "type": "error"
    },
    {
      "inputs": [
        {
          "internalType": "uint256",
          "name": "transactionId",
          "type": "uint256"
        }
      ],
      "name": "TransactionAlreadyExecuted",
      "type": "error"
    },
    {
      "inputs": [
        {
          "internalType": "uint256",
          "name": "transactionId",
          "type": "uint256"
        }
      ],
      "name": "TransactionNotFound",
      "type": "error"
    },
    {
      "anonymous": false,
      "inputs": [
        {
          "indexed": false,
          "internalType": "uint256",
          "name": "newDelay",
          "type": "uint256"
        }
      ],
      "name": "ExecutionDelayUpdated",
      "type": "event"
    },
    {
      "anonymous": false,
      "inputs": [
        {
          "indexed": false,
          "internalType": "address",
          "name": "account",
          "type": "address"
        }
      ],
      "name": "Paused",
      "type": "event"
    },
    {
      "anonymous": false,
      "inputs": [
        {
          "indexed": false,
          "internalType": "uint256",
          "name": "newRequired",
          "type": "uint256"
        }
      ],
      "name": "RequiredSignaturesUpdated",
      "type": "event"
    },
    {
      "anonymous": false,
      "inputs": [
        {
          "indexed": true,
          "internalType": "bytes32",
          "name": "role",
          "type": "bytes32"
        },
        {
          "indexed": true,
          "internalType": "bytes32",
          "name": "previousAdminRole",
          "type": "bytes32"
        },
        {
          "indexed": true,
          "internalType": "bytes32",
          "name": "newAdminRole",
          "type": "bytes32"
        }
      ],
      "name": "RoleAdminChanged",
      "type": "event"
    },
    {
      "anonymous": false,
      "inputs": [
        {
          "indexed": true,
          "internalType": "bytes32",
          "name": "role",
          "type": "bytes32"
        },
        {
          "indexed": true,
          "internalType": "address",
          "name": "account",
          "type": "address"
        },
        {
          "indexed": true,
          "internalType": "address",
          "name": "sender",
          "type": "address"
        }
      ],
      "name": "RoleGranted",
      "type": "event"
    },
    {
      "anonymous": false,
      "inputs": [
        {
          "indexed": true,
          "internalType": "bytes32",
          "name": "role",
          "type": "bytes32"
        },
        {
          "indexed": true,
          "internalType": "address",
          "name": "account",
          "type": "address"
        },
        {
          "indexed": true,
          "internalType": "address",
          "name": "sender",
          "type": "address"
        }
      ],
      "name": "RoleRevoked",
      "type": "event"
    },
    {
      "anonymous": false,
      "inputs": [
        {
          "indexed": true,
          "internalType": "address",
          "name": "signer",
          "type": "address"
        }
      ],
      "name": "SignerAdded",
      "type": "event"
    },
    {
      "anonymous": false,
      "inputs": [
        {
          "indexed": true,
          "internalType": "address",
          "name": "signer",
          "type": "address"
        }
      ],
      "name": "SignerRemoved",
      "type": "event"
    },
    {
      "anonymous": false,
      "inputs": [
        {
          "indexed": true,
          "internalType": "uint256",
          "name": "transactionId",
          "type": "uint256"
        },
        {
          "indexed": false,
          "internalType": "address",
          "name": "cancelledBy",
          "type": "address"
        }
      ],
      "name": "TransactionCancelled",
      "type": "event"
    },
    {
      "anonymous": false,
      "inputs": [
        {
          "indexed": true,
          "internalType": "uint256",
          "name": "transactionId",
          "type": "uint256"
        },
        {
          "indexed": false,
          "internalType": "address",
          "name": "executedBy",
          "type": "address"
        }
      ],
      "name": "TransactionExecuted",
      "type": "event"
    },
    {
      "anonymous": false,
      "inputs": [
        {
          "indexed": true,
          "internalType": "uint256",
          "name": "transactionId",
          "type": "uint256"
        },
        {
          "indexed": false,
          "internalType": "enum MultiSigTreasury.TransactionType",
          "name": "txType",
          "type": "uint8"
        },
        {
          "indexed": true,
          "internalType": "address",
          "name": "proposedBy",
          "type": "address"
        }
      ],
      "name": "TransactionProposed",
      "type": "event"
    },
    {
      "anonymous": false,
      "inputs": [
        {
          "indexed": true,
          "internalType": "uint256",
          "name": "transactionId",
          "type": "uint256"
        },
        {
          "indexed": true,
          "internalType": "address",
          "name": "signer",
          "type": "address"
        }
      ],
      "name": "TransactionSigned",
      "type": "event"
    },
    {
      "anonymous": false,
      "inputs": [
        {
          "indexed": false,
          "internalType": "address",
          "name": "account",
          "type": "address"
        }
      ],
      "name": "Unpaused",
      "type": "event"
    },
    {
      "inputs": [],
      "name": "DEFAULT_ADMIN_ROLE",
      "outputs": [
        {
          "internalType": "bytes32",
          "name": "",
          "type": "bytes32"
        }
      ],
      "stateMutability": "view",
      "type": "function"
    },
    {
      "inputs": [],
      "name": "SIGNER_ROLE",
      "outputs": [
        {
          "internalType": "bytes32",
          "name": "",
          "type": "bytes32"
        }
      ],
      "stateMutability": "view",
      "type": "function"
    },
    {
      "inputs": [
        {
          "internalType": "address",
          "name": "signer",
          "type": "address"
        }
      ],
      "name": "addSigner",
      "outputs": [],
      "stateMutability": "nonpayable",
      "type": "function"
    },
    {
      "inputs": [],
      "name": "cUSD",
      "outputs": [
        {
          "internalType": "contract IERC20",
          "name": "",
          "type": "address"
        }
      ],
      "stateMutability": "view",
      "type": "function"
    },
    {
      "inputs": [
        {
          "internalType": "uint256",
          "name": "transactionId",
          "type": "uint256"
        }
      ],
      "name": "canExecute",
      "outputs": [
        {
          "internalType": "bool",
          "name": "",
          "type": "bool"
        }
      ],
      "stateMutability": "view",
      "type": "function"
    },
    {
      "inputs": [
        {
          "internalType": "uint256",
          "name": "transactionId",
          "type": "uint256"
        }
      ],
      "name": "cancelTransaction",
      "outputs": [],
      "stateMutability": "nonpayable",
      "type": "function"
    },
    {
      "inputs": [
        {
          "internalType": "uint256",
          "name": "transactionId",
          "type": "uint256"
        }
      ],
      "name": "countSignatures",
      "outputs": [
        {
          "internalType": "uint256",
          "name": "",
          "type": "uint256"
        }
      ],
      "stateMutability": "view",
      "type": "function"
    },
    {
      "inputs": [
        {
          "internalType": "address",
          "name": "token",
          "type": "address"
        },
        {
          "internalType": "address",
          "name": "to",
          "type": "address"
        },
        {
          "internalType": "uint256",
          "name": "amount",
          "type": "uint256"
        }
      ],
      "name": "emergencyWithdraw",
      "outputs": [],
      "stateMutability": "nonpayable",
      "type": "function"
    },
    {
      "inputs": [
        {
          "internalType": "uint256",
          "name": "transactionId",
          "type": "uint256"
        }
      ],
      "name": "executeTransaction",
      "outputs": [],
      "stateMutability": "nonpayable",
      "type": "function"
    },
    {
      "inputs": [],
      "name": "executionDelay",
      "outputs": [
        {
          "internalType": "uint256",
          "name": "",
          "type": "uint256"
        }
      ],
      "stateMutability": "view",
      "type": "function"
    },
    {
      "inputs": [
        {
          "internalType": "address",
          "name": "token",
          "type": "address"
        }
      ],
      "name": "getBalance",
      "outputs": [
        {
          "internalType": "uint256",
          "name": "",
          "type": "uint256"
        }
      ],
      "stateMutability": "view",
      "type": "function"
    },
    {
      "inputs": [
        {
          "internalType": "address",
          "name": "proposer",
          "type": "address"
        }
      ],
      "name": "getProposedTransactions",
      "outputs": [
        {
          "internalType": "uint256[]",
          "name": "",
          "type": "uint256[]"
        }
      ],
      "stateMutability": "view",
      "type": "function"
    },
    {
      "inputs": [
        {
          "internalType": "bytes32",
          "name": "role",
          "type": "bytes32"
        }
      ],
      "name": "getRoleAdmin",
      "outputs": [
        {
          "internalType": "bytes32",
          "name": "",
          "type": "bytes32"
        }
      ],
      "stateMutability": "view",
      "type": "function"
    },
    {
      "inputs": [
        {
          "internalType": "address",
          "name": "signer",
          "type": "address"
        }
      ],
      "name": "getSignedTransactions",
      "outputs": [
        {
          "internalType": "uint256[]",
          "name": "",
          "type": "uint256[]"
        }
      ],
      "stateMutability": "view",
      "type": "function"
    },
    {
      "inputs": [],
      "name": "getSigners",
      "outputs": [
        {
          "internalType": "address[]",
          "name": "",
          "type": "address[]"
        }
      ],
      "stateMutability": "view",
      "type": "function"
    },
    {
      "inputs": [
        {
          "internalType": "uint256",
          "name": "transactionId",
          "type": "uint256"
        }
      ],
      "name": "getTransaction",
      "outputs": [
        {
          "components": [
            {
              "internalType": "uint256",
              "name": "transactionId",
              "type": "uint256"
            },
            {
              "internalType": "enum MultiSigTreasury.TransactionType",
              "name": "txType",
              "type": "uint8"
            },
            {
              "internalType": "address",
              "name": "token",
              "type": "address"
            },
            {
              "internalType": "address",
              "name": "to",
              "type": "address"
            },
            {
              "internalType": "uint256",
              "name": "amount",
              "type": "uint256"
            },
            {
              "internalType": "enum MultiSigTreasury.TransactionStatus",
              "name": "status",
              "type": "uint8"
            },
            {
              "internalType": "address",
              "name": "proposedBy",
              "type": "address"
            },
            {
              "internalType": "uint256",
              "name": "proposedAt",
              "type": "uint256"
            },
            {
              "internalType": "uint256",
              "name": "executedAt",
              "type": "uint256"
            },
            {
              "internalType": "bytes",
              "name": "data",
              "type": "bytes"
            },
            {
              "internalType": "string",
              "name": "description",
              "type": "string"
            }
          ],
          "internalType": "struct MultiSigTreasury.Transaction",
          "name": "",
          "type": "tuple"
        }
      ],
      "stateMutability": "view",
      "type": "function"
    },
    {
      "inputs": [
        {
          "internalType": "bytes32",
          "name": "role",
          "type": "bytes32"
        },
        {
          "internalType": "address",
          "name": "account",
          "type": "address"
        }
      ],
      "name": "grantRole",
      "outputs": [],
      "stateMutability": "nonpayable",
      "type": "function"
    },
    {
      "inputs": [
        {
          "internalType": "bytes32",
          "name": "role",
          "type": "bytes32"
        },
        {
          "internalType": "address",
          "name": "account",
          "type": "address"
        }
      ],
      "name": "hasRole",
      "outputs": [
        {
          "internalType": "bool",
          "name": "",
          "type": "bool"
        }
      ],
      "stateMutability": "view",
      "type": "function"
    },
    {
      "inputs": [],
      "name": "pause",
      "outputs": [],
      "stateMutability": "nonpayable",
      "type": "function"
    },
    {
      "inputs": [],
      "name": "paused",
      "outputs": [
        {
          "internalType": "bool",
          "name": "",
          "type": "bool"
        }
      ],
      "stateMutability": "view",
      "type": "function"
    },
    {
      "inputs": [
        {
          "internalType": "enum MultiSigTreasury.TransactionType",
          "name": "txType",
          "type": "uint8"
        },
        {
          "internalType": "address",
          "name": "token",
          "type": "address"
        },
        {
          "internalType": "address",
          "name": "to",
          "type": "address"
        },
        {
          "internalType": "uint256",
          "name": "amount",
          "type": "uint256"
        },
        {
          "internalType": "bytes",
          "name": "data",
          "type": "bytes"
        },
        {
          "internalType": "string",
          "name": "description",
          "type": "string"
        }
      ],
      "name": "proposeTransaction",
      "outputs": [
        {
          "internalType": "uint256",
          "name": "transactionId",
          "type": "uint256"
        }
      ],
      "stateMutability": "nonpayable",
      "type": "function"
    },
    {
      "inputs": [
        {
          "internalType": "address",
          "name": "signer",
          "type": "address"
        }
      ],
      "name": "removeSigner",
      "outputs": [],
      "stateMutability": "nonpayable",
      "type": "function"
    },
    {
      "inputs": [
        {
          "internalType": "bytes32",
          "name": "role",
          "type": "bytes32"
        },
        {
          "internalType": "address",
          "name": "callerConfirmation",
          "type": "address"
        }
      ],
      "name": "renounceRole",
      "outputs": [],
      "stateMutability": "nonpayable",
      "type": "function"
    },
    {
      "inputs": [],
      "name": "requiredSignatures",
      "outputs": [
        {
          "internalType": "uint256",
          "name": "",
          "type": "uint256"
        }
      ],
      "stateMutability": "view",
      "type": "function"
    },
    {
      "inputs": [
        {
          "internalType": "bytes32",
          "name": "role",
          "type": "bytes32"
        },
        {
          "internalType": "address",
          "name": "account",
          "type": "address"
        }
      ],
      "name": "revokeRole",
      "outputs": [],
      "stateMutability": "nonpayable",
      "type": "function"
    },
    {
      "inputs": [
        {
          "internalType": "uint256",
          "name": "newDelay",
          "type": "uint256"
        }
      ],
      "name": "setExecutionDelay",
      "outputs": [],
      "stateMutability": "nonpayable",
      "type": "function"
    },
    {
      "inputs": [
        {
          "internalType": "uint256",
          "name": "newRequired",
          "type": "uint256"
        }
      ],
      "name": "setRequiredSignatures",
      "outputs": [],
      "stateMutability": "nonpayable",
      "type": "function"
    },
    {
      "inputs": [
        {
          "internalType": "uint256",
          "name": "transactionId",
          "type": "uint256"
        }
      ],
      "name": "signTransaction",
      "outputs": [],
      "stateMutability": "nonpayable",
      "type": "function"
    },
    {
      "inputs": [
        {
          "internalType": "uint256",
          "name": "",
          "type": "uint256"
        },
        {
          "internalType": "address",
          "name": "",
          "type": "address"
        }
      ],
      "name": "signatures",
      "outputs": [
        {
          "internalType": "bool",
          "name": "",
          "type": "bool"
        }
      ],
      "stateMutability": "view",
      "type": "function"
    },
    {
      "inputs": [
        {
          "internalType": "bytes4",
          "name": "interfaceId",
          "type": "bytes4"
        }
      ],
      "name": "supportsInterface",
      "outputs": [
        {
          "internalType": "bool",
          "name": "",
          "type": "bool"
        }
      ],
      "stateMutability": "view",
      "type": "function"
    },
    {
      "inputs": [
        {
          "internalType": "uint256",
          "name": "",
          "type": "uint256"
        }
      ],
      "name": "transactions",
      "outputs": [
        {
          "internalType": "uint256",
          "name": "transactionId",
          "type": "uint256"
        },
        {
          "internalType": "enum MultiSigTreasury.TransactionType",
          "name": "txType",
          "type": "uint8"
        },
        {
          "internalType": "address",
          "name": "token",
          "type": "address"
        },
        {
          "internalType": "address",
          "name": "to",
          "type": "address"
        },
        {
          "internalType": "uint256",
          "name": "amount",
          "type": "uint256"
        },
        {
          "internalType": "enum MultiSigTreasury.TransactionStatus",
          "name": "status",
          "type": "uint8"
        },
        {
          "internalType": "address",
          "name": "proposedBy",
          "type": "address"
        },
        {
          "internalType": "uint256",
          "name": "proposedAt",
          "type": "uint256"
        },
        {
          "internalType": "uint256",
          "name": "executedAt",
          "type": "uint256"
        },
        {
          "internalType": "bytes",
          "name": "data",
          "type": "bytes"
        },
        {
          "internalType": "string",
          "name": "description",
          "type": "string"
        }
      ],
      "stateMutability": "view",
      "type": "function"
    },
    {
      "inputs": [],
      "name": "unpause",
      "outputs": [],
      "stateMutability": "nonpayable",
      "type": "function"
    }
  ],
  "bytecode": "0x60a06040523480156200001157600080fd5b50604051620023fb380380620023fb833981016040819052620000349162000214565b6001600160a01b0383166080526002600355610e106004556200005960008362000132565b5062000075600080516020620023db8339815191528362000132565b5060005b81518110156200012857620000c0600080516020620023db833981519152838381518110620000ac57620000ac6200030e565b60200260200101516200013260201b60201c565b50818181518110620000d657620000d66200030e565b60200260200101516001600160a01b03167f47d1c22a25bb3a5d4e481b9b1e6944c2eade3181a0a20b495ed61d35b5323f2460405160405180910390a2806200011f8162000324565b91505062000079565b505050506200034c565b6000828152602081815260408083206001600160a01b038516845290915281205460ff16620001d7576000838152602081815260408083206001600160a01b03861684529091529020805460ff191660011790556200018e3390565b6001600160a01b0316826001600160a01b0316847f2f8788117e7eff1d82e926ec794901d17c78024a50270940304540a733656f0d60405160405180910390a4506001620001db565b5060005b92915050565b80516001600160a01b0381168114620001f957600080fd5b919050565b634e487b7160e01b600052604160045260246000fd5b6000806000606084860312156200022a57600080fd5b6200023584620001e1565b9250602062000246818601620001e1565b60408601519093506001600160401b03808211156200026457600080fd5b818701915087601f8301126200027957600080fd5b8151818111156200028e576200028e620001fe565b8060051b604051601f19603f83011681018181108582111715620002b657620002b6620001fe565b60405291825284820192508381018501918a831115620002d557600080fd5b938501935b82851015620002fe57620002ee85620001e1565b84529385019392850192620002da565b8096505050505050509250925092565b634e487b7160e01b600052603260045260246000fd5b6000600182016200034557634e487b7160e01b600052601160045260246000fd5b5060010190565b60805161206c6200036f600039600081816102370152611244015261206c6000f3fe608060405234801561001057600080fd5b50600436106101f05760003560e01c80638b2579891161010f578063cc63604a116100a2578063eb12d61e11610071578063eb12d61e1461047d578063ee22610b14610490578063f77a60dc146104a3578063f8b2cb4f146104b657600080fd5b8063cc63604a14610431578063d547741f14610444578063e4917d9f14610457578063e63ea4081461046a57600080fd5b80639ace38c2116100de5780639ace38c2146103d7578063a1ebf35d14610401578063a217fddf14610416578063b4a62bc01461041e57600080fd5b80638b2579891461039d5780638d068043146103a657806391d14854146103af57806394cf795e146103c257600080fd5b806336568abe116101875780637d2b9cc0116101565780637d2b9cc01461033457806383b316c0146103475780638456cb591461037557806384b4db2f1461037d57600080fd5b806336568abe146102fb5780633f4ba83a1461030e5780635c975abb146103165780635d9ec2101461032157600080fd5b8063251749d2116101c3578063251749d2146102a25780632f2ff15d146102b55780633380c0d8146102c857806333ea3dc8146102db57600080fd5b806301ffc9a7146101f55780630e316ab71461021d5780631fccf67214610232578063248a9ca314610271575b600080fd5b6102086102033660046119b2565b6104c9565b60405190151581526020015b60405180910390f35b61023061022b3660046119ff565b610500565b005b6102597f000000000000000000000000000000000000000000000000000000000000000081565b6040516001600160a01b039091168152602001610214565b61029461027f366004611a1a565b60009081526020819052604090206001015490565b604051908152602001610214565b6102946102b0366004611a1a565b61055c565b6102306102c3366004611a33565b610567565b6102306102d6366004611a1a565b610592565b6102ee6102e9366004611a1a565b61069a565b6040516102149190611ae6565b610230610309366004611a33565b610910565b610230610948565b60015460ff16610208565b61023061032f366004611a1a565b61095e565b610230610342366004611a1a565b610a73565b610208610355366004611a33565b600660209081526000928352604080842090915290825290205460ff1681565b610230610aeb565b61039061038b3660046119ff565b610afe565b6040516102149190611bc1565b61029460045481565b61029460035481565b6102086103bd366004611a33565b610b6a565b6103ca610b93565b6040516102149190611c05565b6103ea6103e5366004611a1a565b610bea565b6040516102149b9a99989796959493929190611c46565b61029460008051602061201783398151915281565b610294600081565b61039061042c3660046119ff565b610d68565b61020861043f366004611a1a565b610dd2565b610230610452366004611a33565b610e63565b610230610465366004611a1a565b610e88565b610230610478366004611cdc565b610ec8565b61023061048b3660046119ff565b610f92565b61023061049e366004611a1a565b610fee565b6102946104b1366004611d61565b611352565b6102946104c43660046119ff565b6116b4565b60006001600160e01b03198216637965db0b60e01b14806104fa57506301ffc9a760e01b6001600160e01b03198316145b92915050565b600061050b8161171f565b61052360008051602061201783398151915283611729565b506040516001600160a01b038316907f3525e22824a8a7df2c9a6029941c824cf95b6447f1e13d5128fd3826d35afe8b90600090a25050565b60006104fa8261179c565b6000828152602081905260409020600101546105828161171f565b61058c83836117d2565b50505050565b600061059d8261185c565b90506000600482015460ff1660028111156105ba576105ba611a5f565b146105e057604051630b85d0c760e41b8152600481018390526024015b60405180910390fd5b600481015461010090046001600160a01b03163314806106065750610606600033610b6a565b6106525760405162461bcd60e51b815260206004820152601860248201527f4e6f7420617574686f72697a656420746f2063616e63656c000000000000000060448201526064016105d7565b60048101805460ff1916600217905560405133815282907fbeed812a0535c283c6bc8eda32deb53df2603d7c1b518b07e2bec1df38da83939060200160405180910390a25050565b6107046040805161016081019091526000808252602082019081526000602082018190526040820181905260608201819052608090910190815260200160006001600160a01b03168152602001600081526020016000815260200160608152602001606081525090565b61070d8261185c565b604080516101608101909152815481526001820154909190602083019060ff16600281111561073e5761073e611a5f565b600281111561074f5761074f611a5f565b815260018201546001600160a01b0361010090910481166020830152600280840154909116604083015260038301546060830152600483015460809092019160ff16908111156107a1576107a1611a5f565b60028111156107b2576107b2611a5f565b8152600482015461010090046001600160a01b0316602082015260058201546040820152600682015460608201526007820180546080909201916107f590611e12565b80601f016020809104026020016040519081016040528092919081815260200182805461082190611e12565b801561086e5780601f106108435761010080835404028352916020019161086e565b820191906000526020600020905b81548152906001019060200180831161085157829003601f168201915b5050505050815260200160088201805461088790611e12565b80601f01602080910402602001604051908101604052809291908181526020018280546108b390611e12565b80156109005780601f106108d557610100808354040283529160200191610900565b820191906000526020600020905b8154815290600101906020018083116108e357829003601f168201915b5050505050815250509050919050565b6001600160a01b03811633146109395760405163334bd91960e11b815260040160405180910390fd5b6109438282611729565b505050565b60006109538161171f565b61095b61189f565b50565b6000805160206120178339815191526109768161171f565b60006109818361185c565b90506000600482015460ff16600281111561099e5761099e611a5f565b146109bf57604051630b85d0c760e41b8152600481018490526024016105d7565b600083815260066020908152604080832033845290915290205460ff1615610a035760405163f4d7089960e01b8152600481018490523360248201526044016105d7565b600083815260066020908152604080832033808552908352818420805460ff191660019081179091556008845282852080549182018155855292842090920186905551909185917f737f6609fa194738ed162051f994c6e9599a830846ea9d72d6501d79871e09819190a3505050565b6000610a7e8161171f565b6001821080610a8d5750600a82115b15610aae576040516318b1dd7b60e11b8152600481018390526024016105d7565b60038290556040518281527f2d465bb3608d42a9f6601f7adf1e33540314b62582a6cd3e329dd32ff8b5d195906020015b60405180910390a15050565b6000610af68161171f565b61095b6118f1565b6001600160a01b038116600090815260076020908152604091829020805483518184028101840190945280845260609392830182828015610b5e57602002820191906000526020600020905b815481526020019060010190808311610b4a575b50505050509050919050565b6000918252602082815260408084206001600160a01b0393909316845291905290205460ff1690565b60408051600180825281830190925260609160009190602080830190803683370190505090503381600081518110610bcd57610bcd611e62565b6001600160a01b0390921660209283029190910190910152919050565b600560208190526000918252604090912080546001820154600283015460038401546004850154958501546006860154600787018054969860ff808816996001600160a01b03610100998a900481169a9881169997989284169790930490921694939290610c5790611e12565b80601f0160208091040260200160405190810160405280929190818152602001828054610c8390611e12565b8015610cd05780601f10610ca557610100808354040283529160200191610cd0565b820191906000526020600020905b815481529060010190602001808311610cb357829003601f168201915b505050505090806008018054610ce590611e12565b80601f0160208091040260200160405190810160405280929190818152602001828054610d1190611e12565b8015610d5e5780601f10610d3357610100808354040283529160200191610d5e565b820191906000526020600020905b815481529060010190602001808311610d4157829003601f168201915b505050505090508b565b6001600160a01b038116600090815260086020908152604091829020805483518184028101840190945280845260609392830182828015610b5e5760200282019190600052602060002090815481526020019060010190808311610b4a5750505050509050919050565b600081815260056020526040812080541580610e0757506000600482015460ff166002811115610e0457610e04611a5f565b14155b15610e155750600092915050565b6000610e208461179c565b9050600354811015610e36575060009392505050565b6004548260050154610e489190611e8e565b421015610e59575060009392505050565b5060019392505050565b600082815260208190526040902060010154610e7e8161171f565b61058c8383611729565b6000610e938161171f565b60048290556040518281527f04aa79a5e8a5e68218f378c9b9ecf136054085d35534faf89462199fb969d1c690602001610adf565b6000610ed38161171f565b60405163a9059cbb60e01b81526001600160a01b038481166004830152602482018490526000919086169063a9059cbb906044016020604051808303816000875af1158015610f26573d6000803e3d6000fd5b505050506040513d601f19601f82011682018060405250810190610f4a9190611ea1565b905080610f8b5760405162461bcd60e51b815260206004820152600f60248201526e151c985b9cd9995c8819985a5b1959608a1b60448201526064016105d7565b5050505050565b6000610f9d8161171f565b610fb5600080516020612017833981519152836117d2565b506040516001600160a01b038316907f47d1c22a25bb3a5d4e481b9b1e6944c2eade3181a0a20b495ed61d35b5323f2490600090a25050565b6000805160206120178339815191526110068161171f565b61100e61192c565b60006110198361185c565b90506000600482015460ff16600281111561103657611036611a5f565b1461105757604051630b85d0c760e41b8152600481018490526024016105d7565b60006110628461179c565b9050600354811015611095576003546040516378f4355360e11b81526105d7918391600401918252602082015260400190565b60045482600501546110a79190611e8e565b4210156110d85760058201546004805460405163d83b1f6560e01b81526105d7939201918252602082015260400190565b6000600183015460ff1660028111156110f3576110f3611a5f565b1480611116575060018083015460ff16600281111561111457611114611a5f565b145b156111f05760018201546002830154600384015460405163a9059cbb60e01b81526001600160a01b03928316600482015260248101919091526101009092041690600090829063a9059cbb906044016020604051808303816000875af1158015611184573d6000803e3d6000fd5b505050506040513d601f19601f820116820180604052508101906111a89190611ea1565b9050806111e95760405162461bcd60e51b815260206004820152600f60248201526e151c985b9cd9995c8819985a5b1959608a1b60448201526064016105d7565b5050611302565b6002600183015460ff16600281111561120b5761120b611a5f565b03611302576002820154600383015460405163a9059cbb60e01b81526001600160a01b03928316600482015260248101919091526000917f0000000000000000000000000000000000000000000000000000000000000000169063a9059cbb906044016020604051808303816000875af115801561128d573d6000803e3d6000fd5b505050506040513d601f19601f820116820180604052508101906112b19190611ea1565b9050806113005760405162461bcd60e51b815260206004820152601760248201527f53756273696479207472616e73666572206661696c656400000000000000000060448201526064016105d7565b505b60048201805460ff1916600117905542600683015560405133815284907fefc13bdcf58f184ea7cae26b499fb33b539e01d0197cea456f3ada289b8cf19b9060200160405180910390a250505050565b600060008051602061201783398151915261136c8161171f565b61137461192c565b8660000361139857604051633728b83d60e01b8152600481018890526024016105d7565b6001600160a01b0388166113ca57604051634726455360e11b81526001600160a01b03891660048201526024016105d7565b6002600081546113d990611ec3565b91905081905591506040518061016001604052808381526020018b600281111561140557611405611a5f565b81526001600160a01b03808c1660208301528a1660408201526060810189905260800160008152602001336001600160a01b031681526020014281526020016000815260200187878080601f016020809104026020016040519081016040528093929190818152602001838380828437600092019190915250505090825250604080516020601f8801819004810282018101909252868152918101919087908790819084018382808284376000920182905250939094525050848152600560209081526040909120835181559083015160018083018054939450919260ff1916908360028111156114f8576114f8611a5f565b0217905550604082015160018281018054610100600160a81b0319166101006001600160a01b03948516021790556060840151600280850180546001600160a01b03191692909416919091179092556080840151600384015560a08401516004840180549193909260ff199092169190849081111561157957611579611a5f565b021790555060c0820151600482018054610100600160a81b0319166101006001600160a01b03909316830217905560e08301516005830155820151600682015561012082015160078201906115ce9082611f2a565b5061014082015160088201906115e49082611f2a565b505033600081815260076020908152604080832080546001818101835591855283852001889055878452600683528184208585528352818420805460ff1916821790556008835281842080549182018155845291909220018590555190915083907f4cbdc7de7d314ebc9f264314f9f5d7b9034c745308c3dc1c40202cba88602e7d90611672908e90611fea565b60405180910390a3604051339083907f737f6609fa194738ed162051f994c6e9599a830846ea9d72d6501d79871e098190600090a35098975050505050505050565b6040516370a0823160e01b81523060048201526000906001600160a01b038316906370a0823190602401602060405180830381865afa1580156116fb573d6000803e3d6000fd5b505050506040513d601f19601f820116820180604052508101906104fa9190611ffd565b61095b8133611952565b60006117358383610b6a565b15611794576000838152602081815260408083206001600160a01b0386168085529252808320805460ff1916905551339286917ff6391f5c32d9c69d2a47ea670b442974b53935d1edc7fd64eb21e047a839171b9190a45060016104fa565b5060006104fa565b6000818152600660209081526040808320338452909152812054819060ff16156104fa57806117ca81611ec3565b949350505050565b60006117de8383610b6a565b611794576000838152602081815260408083206001600160a01b03861684529091529020805460ff191660011790556118143390565b6001600160a01b0316826001600160a01b0316847f2f8788117e7eff1d82e926ec794901d17c78024a50270940304540a733656f0d60405160405180910390a45060016104fa565b600081158061186c575060025482115b1561188d57604051638057e76360e01b8152600481018390526024016105d7565b50600090815260056020526040902090565b6118a761198f565b6001805460ff191690557f5db9ee0a495bf2e6ff9c91a7834c1ba4fdd244a5e8aa4e537bd38aeae4b073aa335b6040516001600160a01b03909116815260200160405180910390a1565b6118f961192c565b6001805460ff1916811790557f62e78cea01bee320cd4e420270b5ea74000d11b0c9f74754ebdbfc544b05a258336118d4565b60015460ff16156119505760405163d93c066560e01b815260040160405180910390fd5b565b61195c8282610b6a565b61198b5760405163e2517d3f60e01b81526001600160a01b0382166004820152602481018390526044016105d7565b5050565b60015460ff1661195057604051638dfc202b60e01b815260040160405180910390fd5b6000602082840312156119c457600080fd5b81356001600160e01b0319811681146119dc57600080fd5b9392505050565b80356001600160a01b03811681146119fa57600080fd5b919050565b600060208284031215611a1157600080fd5b6119dc826119e3565b600060208284031215611a2c57600080fd5b5035919050565b60008060408385031215611a4657600080fd5b82359150611a56602084016119e3565b90509250929050565b634e487b7160e01b600052602160045260246000fd5b6003811061095b57634e487b7160e01b600052602160045260246000fd5b611a9c81611a75565b9052565b6000815180845260005b81811015611ac657602081850181015186830182015201611aaa565b506000602082860101526020601f19601f83011685010191505092915050565b602081528151602082015260006020830151611b056040840182611a93565b5060408301516001600160a01b03811660608401525060608301516001600160a01b038116608084015250608083015160a083015260a0830151611b4c60c0840182611a93565b5060c08301516001600160a01b03811660e08401525060e08301516101008381019190915283015161012080840191909152830151610160610140808501829052611b9b610180860184611aa0565b90860151858203601f190183870152909250611bb78382611aa0565b9695505050505050565b6020808252825182820181905260009190848201906040850190845b81811015611bf957835183529284019291840191600101611bdd565b50909695505050505050565b6020808252825182820181905260009190848201906040850190845b81811015611bf95783516001600160a01b031683529284019291840191600101611c21565b60006101608d8352611c578d611a75565b602083018d90526001600160a01b038c811660408501528b81166060850152608084018b9052611c868a611a75565b8960a085015280891660c0850152508660e08401528561010084015280610120840152611cb581840186611aa0565b9050828103610140840152611cca8185611aa0565b9e9d5050505050505050505050505050565b600080600060608486031215611cf157600080fd5b611cfa846119e3565b9250611d08602085016119e3565b9150604084013590509250925092565b60008083601f840112611d2a57600080fd5b50813567ffffffffffffffff811115611d4257600080fd5b602083019150836020828501011115611d5a57600080fd5b9250929050565b60008060008060008060008060c0898b031215611d7d57600080fd5b883560038110611d8c57600080fd5b9750611d9a60208a016119e3565b9650611da860408a016119e3565b955060608901359450608089013567ffffffffffffffff80821115611dcc57600080fd5b611dd88c838d01611d18565b909650945060a08b0135915080821115611df157600080fd5b50611dfe8b828c01611d18565b999c989b5096995094979396929594505050565b600181811c90821680611e2657607f821691505b602082108103611e4657634e487b7160e01b600052602260045260246000fd5b50919050565b634e487b7160e01b600052604160045260246000fd5b634e487b7160e01b600052603260045260246000fd5b634e487b7160e01b600052601160045260246000fd5b808201808211156104fa576104fa611e78565b600060208284031215611eb357600080fd5b815180151581146119dc57600080fd5b600060018201611ed557611ed5611e78565b5060010190565b601f82111561094357600081815260208120601f850160051c81016020861015611f035750805b601f850160051c820191505b81811015611f2257828155600101611f0f565b505050505050565b815167ffffffffffffffff811115611f4457611f44611e4c565b611f5881611f528454611e12565b84611edc565b602080601f831160018114611f8d5760008415611f755750858301515b600019600386901b1c1916600185901b178555611f22565b600085815260208120601f198616915b82811015611fbc57888601518255948401946001909101908401611f9d565b5085821015611fda5787850151600019600388901b60f8161c191681555b5050505050600190811b01905550565b60208101611ff783611a75565b91905290565b60006020828403121561200f57600080fd5b505191905056fee2f4eaae4a9751e85a3e4a7b9587827a877f29914755229b07a7b2da98285f70a2646970667358221220cb855501a054450c4cc92758ad097041c84ceccc0420eafed7dd83520c00538564736f6c63430008140033e2f4eaae4a9751e85a3e4a7b9587827a877f29914755229b07a7b2da98285f70",
  "linkReferences": {},
  "deployedLinkReferences": {}
}