{
  "_format": "hh-sol-artifact-1",
  "contractName": "NewsBulletin",
  "sourceName": "contracts/NewsBulletin.sol",
  "abi": [
    {
      "inputs": [
        {
          "internalType": "address",
          "name": "admin",
          "type": "address"
        }
      ],
      "stateMutability": "nonpayable",
      "type": "constructor"
    },
    {
      "inputs": [],
      "name": "AccessControlBadConfirmation",
      "type": "error"
    },
    {
      "inputs": [
        {
          "internalType": "address",
          "name": "account",
          "type": "address"
        },
        {
          "internalType": "bytes32",
          "name": "neededRole",
          "type": "bytes32"
        }
      ],
      "name": "AccessControlUnauthorizedAccount",
      "type": "error"
    },
    {
      "inputs": [
        {
          "internalType": "uint256",
          "name": "bulletinId",
          "type": "uint256"
        }
      ],
      "name": "BulletinNotFound",
      "type": "error"
    },
    {
      "inputs": [],
      "name": "EmptyBody",
      "type": "error"
    },
    {
      "inputs": [],
      "name": "EmptyTitle",
      "type": "error"
    },
    {
      "inputs": [],
      "name": "EnforcedPause",
      "type": "error"
    },
    {
      "inputs": [],
      "name": "ExpectedPause",
      "type": "error"
    },
    {
      "anonymous": false,
      "inputs": [
        {
          "indexed": true,
          "internalType": "uint256",
          "name": "bulletinId",
          "type": "uint256"
        },
        {
          "indexed": false,
          "internalType": "address",
          "name": "archivedBy",
          "type": "address"
        }
      ],
      "name": "BulletinArchived",
      "type": "event"
    },
    {
      "anonymous": false,
      "inputs": [
        {
          "indexed": true,
          "internalType": "uint256",
          "name": "bulletinId",
          "type": "uint256"
        },
        {
          "indexed": false,
          "internalType": "enum NewsBulletin.BulletinType",
          "name": "bulletinType",
          "type": "uint8"
        },
        {
          "indexed": false,
          "internalType": "string",
          "name": "title",
          "type": "string"
        },
        {
          "indexed": false,
          "internalType": "address",
          "name": "publishedBy",
          "type": "address"
        }
      ],
      "name": "BulletinPublished",
      "type": "event"
    },
    {
      "anonymous": false,
      "inputs": [
        {
          "indexed": false,
          "internalType": "address",
          "name": "account",
          "type": "address"
        }
      ],
      "name": "Paused",
      "type": "event"
    },
    {
      "anonymous": false,
      "inputs": [
        {
          "indexed": true,
          "internalType": "bytes32",
          "name": "role",
          "type": "bytes32"
        },
        {
          "indexed": true,
          "internalType": "bytes32",
          "name": "previousAdminRole",
          "type": "bytes32"
        },
        {
          "indexed": true,
          "internalType": "bytes32",
          "name": "newAdminRole",
          "type": "bytes32"
        }
      ],
      "name": "RoleAdminChanged",
      "type": "event"
    },
    {
      "anonymous": false,
      "inputs": [
        {
          "indexed": true,
          "internalType": "bytes32",
          "name": "role",
          "type": "bytes32"
        },
        {
          "indexed": true,
          "internalType": "address",
          "name": "account",
          "type": "address"
        },
        {
          "indexed": true,
          "internalType": "address",
          "name": "sender",
          "type": "address"
        }
      ],
      "name": "RoleGranted",
      "type": "event"
    },
    {
      "anonymous": false,
      "inputs": [
        {
          "indexed": true,
          "internalType": "bytes32",
          "name": "role",
          "type": "bytes32"
        },
        {
          "indexed": true,
          "internalType": "address",
          "name": "account",
          "type": "address"
        },
        {
          "indexed": true,
          "internalType": "address",
          "name": "sender",
          "type": "address"
        }
      ],
      "name": "RoleRevoked",
      "type": "event"
    },
    {
      "anonymous": false,
      "inputs": [
        {
          "indexed": false,
          "internalType": "address",
          "name": "account",
          "type": "address"
        }
      ],
      "name": "Unpaused",
      "type": "event"
    },
    {
      "inputs": [],
      "name": "DEFAULT_ADMIN_ROLE",
      "outputs": [
        {
          "internalType": "bytes32",
          "name": "",
          "type": "bytes32"
        }
      ],
      "stateMutability": "view",
      "type": "function"
    },
    {
      "inputs": [],
      "name": "GOVERNMENT_ROLE",
      "outputs": [
        {
          "internalType": "bytes32",
          "name": "",
          "type": "bytes32"
        }
      ],
      "stateMutability": "view",
      "type": "function"
    },
    {
      "inputs": [
        {
          "internalType": "uint256",
          "name": "bulletinId",
          "type": "uint256"
        }
      ],
      "name": "archiveBulletin",
      "outputs": [],
      "stateMutability": "nonpayable",
      "type": "function"
    },
    {
      "inputs": [
        {
          "internalType": "uint256",
          "name": "",
          "type": "uint256"
        }
      ],
      "name": "bulletins",
      "outputs": [
        {
          "internalType": "uint256",
          "name": "bulletinId",
          "type": "uint256"
        },
        {
          "internalType": "enum NewsBulletin.BulletinType",
          "name": "bulletinType",
          "type": "uint8"
        },
        {
          "internalType": "string",
          "name": "title",
          "type": "string"
        },
        {
          "internalType": "string",
          "name": "body",
          "type": "string"
        },
        {
          "internalType": "address",
          "name": "publishedBy",
          "type": "address"
        },
        {
          "internalType": "uint256",
          "name": "publishedAt",
          "type": "uint256"
        },
        {
          "internalType": "enum NewsBulletin.BulletinStatus",
          "name": "status",
          "type": "uint8"
        },
        {
          "internalType": "string",
          "name": "metadataURI",
          "type": "string"
        }
      ],
      "stateMutability": "view",
      "type": "function"
    },
    {
      "inputs": [],
      "name": "getActiveBulletins",
      "outputs": [
        {
          "components": [
            {
              "internalType": "uint256",
              "name": "bulletinId",
              "type": "uint256"
            },
            {
              "internalType": "enum NewsBulletin.BulletinType",
              "name": "bulletinType",
              "type": "uint8"
            },
            {
              "internalType": "string",
              "name": "title",
              "type": "string"
            },
            {
              "internalType": "string",
              "name": "body",
              "type": "string"
            },
            {
              "internalType": "address",
              "name": "publishedBy",
              "type": "address"
            },
            {
              "internalType": "uint256",
              "name": "publishedAt",
              "type": "uint256"
            },
            {
              "internalType": "enum NewsBulletin.BulletinStatus",
              "name": "status",
              "type": "uint8"
            },
            {
              "internalType": "string",
              "name": "metadataURI",
              "type": "string"
            }
          ],
          "internalType": "struct NewsBulletin.Bulletin[]",
          "name": "",
          "type": "tuple[]"
        }
      ],
      "stateMutability": "view",
      "type": "function"
    },
    {
      "inputs": [
        {
          "internalType": "uint256",
          "name": "bulletinId",
          "type": "uint256"
        }
      ],
      "name": "getBulletin",
      "outputs": [
        {
          "components": [
            {
              "internalType": "uint256",
              "name": "bulletinId",
              "type": "uint256"
            },
            {
              "internalType": "enum NewsBulletin.BulletinType",
              "name": "bulletinType",
              "type": "uint8"
            },
            {
              "internalType": "string",
              "name": "title",
              "type": "string"
            },
            {
              "internalType": "string",
              "name": "body",
              "type": "string"
            },
            {
              "internalType": "address",
              "name": "publishedBy",
              "type": "address"
            },
            {
              "internalType": "uint256",
              "name": "publishedAt",
              "type": "uint256"
            },
            {
              "internalType": "enum NewsBulletin.BulletinStatus",
              "name": "status",
              "type": "uint8"
            },
            {
              "internalType": "string",
              "name": "metadataURI",
              "type": "string"
            }
          ],
          "internalType": "struct NewsBulletin.Bulletin",
          "name": "",
          "type": "tuple"
        }
      ],
      "stateMutability": "view",
      "type": "function"
    },
    {
      "inputs": [
        {
          "internalType": "enum NewsBulletin.BulletinType",
          "name": "bulletinType",
          "type": "uint8"
        }
      ],
      "name": "getBulletinsByType",
      "outputs": [
        {
          "internalType": "uint256[]",
          "name": "",
          "type": "uint256[]"
        }
      ],
      "stateMutability": "view",
      "type": "function"
    },
    {
      "inputs": [
        {
          "internalType": "bytes32",
          "name": "role",
          "type": "bytes32"
        }
      ],
      "name": "getRoleAdmin",
      "outputs": [
        {
          "internalType": "bytes32",
          "name": "",
          "type": "bytes32"
        }
      ],
      "stateMutability": "view",
      "type": "function"
    },
    {
      "inputs": [
        {
          "internalType": "bytes32",
          "name": "role",
          "type": "bytes32"
        },
        {
          "internalType": "address",
          "name": "account",
          "type": "address"
        }
      ],
      "name": "grantRole",
      "outputs": [],
      "stateMutability": "nonpayable",
      "type": "function"
    },
    {
      "inputs": [
        {
          "internalType": "bytes32",
          "name": "role",
          "type": "bytes32"
        },
        {
          "internalType": "address",
          "name": "account",
          "type": "address"
        }
      ],
      "name": "hasRole",
      "outputs": [
        {
          "internalType": "bool",
          "name": "",
          "type": "bool"
        }
      ],
      "stateMutability": "view",
      "type": "function"
    },
    {
      "inputs": [],
      "name": "pause",
      "outputs": [],
      "stateMutability": "nonpayable",
      "type": "function"
    },
    {
      "inputs": [],
      "name": "paused",
      "outputs": [
        {
          "internalType": "bool",
          "name": "",
          "type": "bool"
        }
      ],
      "stateMutability": "view",
      "type": "function"
    },
    {
      "inputs": [
        {
          "internalType": "enum NewsBulletin.BulletinType",
          "name": "bulletinType",
          "type": "uint8"
        },
        {
          "internalType": "string",
          "name": "title",
          "type": "string"
        },
        {
          "internalType": "string",
          "name": "body",
          "type": "string"
        },
        {
          "internalType": "string",
          "name": "metadataURI",
          "type": "string"
        }
      ],
      "name": "publishBulletin",
      "outputs": [
        {
          "internalType": "uint256",
          "name": "bulletinId",
          "type": "uint256"
        }
      ],
      "stateMutability": "nonpayable",
      "type": "function"
    },
    {
      "inputs": [
        {
          "internalType": "bytes32",
          "name": "role",
          "type": "bytes32"
        },
        {
          "internalType": "address",
          "name": "callerConfirmation",
          "type": "address"
        }
      ],
      "name": "renounceRole",
      "outputs": [],
      "stateMutability": "nonpayable",
      "type": "function"
    },
    {
      "inputs": [
        {
          "internalType": "bytes32",
          "name": "role",
          "type": "bytes32"
        },
        {
          "internalType": "address",
          "name": "account",
          "type": "address"
        }
      ],
      "name": "revokeRole",
      "outputs": [],
      "stateMutability": "nonpayable",
      "type": "function"
    },
    {
      "inputs": [
        {
          "internalType": "bytes4",
          "name": "interfaceId",
          "type": "bytes4"
        }
      ],
      "name": "supportsInterface",
      "outputs": [
        {
          "internalType": "bool",
          "name": "",
          "type": "bool"
        }
      ],
      "stateMutability": "view",
      "type": "function"
    },
    {
      "inputs": [],
      "name": "totalBulletins",
      "outputs": [
        {
          "internalType": "uint256",
          "name": "",
          "type": "uint256"
        }
      ],
      "stateMutability": "view",
      "type": "function"
    },
    {
      "inputs": [],
      "name": "unpause",
      "outputs": [],
      "stateMutability": "nonpayable",
      "type": "function"
    }
  ],
  "bytecode": "0x60806040523480156200001157600080fd5b5060405162001a2038038062001a20833981016040819052620000349162000125565b6200004160008262000076565b506200006e7fd9d062b29c8756d894f301c5167d214c34d627724cd7fc859ab9329c9330cf518262000076565b505062000157565b6000828152602081815260408083206001600160a01b038516845290915281205460ff166200011b576000838152602081815260408083206001600160a01b03861684529091529020805460ff19166001179055620000d23390565b6001600160a01b0316826001600160a01b0316847f2f8788117e7eff1d82e926ec794901d17c78024a50270940304540a733656f0d60405160405180910390a45060016200011f565b5060005b92915050565b6000602082840312156200013857600080fd5b81516001600160a01b03811681146200015057600080fd5b9392505050565b6118b980620001676000396000f3fe608060405234801561001057600080fd5b50600436106101165760003560e01c806383e7f5e5116100a2578063a217fddf11610071578063a217fddf1461024f578063b18dcea814610257578063c467d03214610277578063cba67f621461028c578063d547741f1461029f57600080fd5b806383e7f5e5146101ed5780638456cb591461020d57806391d14854146102155780639cbed5821461022857600080fd5b80632f2ff15d116100e95780632f2ff15d1461019f57806336568abe146101b45780633f4ba83a146101c75780634edbd566146101cf5780635c975abb146101e257600080fd5b806301ffc9a71461011b5780630cb77cdc14610143578063248a9ca314610155578063250052e714610178575b600080fd5b61012e610129366004611296565b6102b2565b60405190151581526020015b60405180910390f35b6002545b60405190815260200161013a565b6101476101633660046112c7565b60009081526020819052604090206001015490565b61018b6101863660046112c7565b6102e9565b60405161013a989796959493929190611360565b6101b26101ad3660046113e1565b6104d9565b005b6101b26101c23660046113e1565b610504565b6101b261053c565b6101476101dd36600461147a565b610552565b60015460ff1661012e565b6102006101fb366004611525565b610830565b60405161013a9190611540565b6101b26108ac565b61012e6102233660046113e1565b6108bf565b6101477fd9d062b29c8756d894f301c5167d214c34d627724cd7fc859ab9329c9330cf5181565b610147600081565b61026a6102653660046112c7565b6108e8565b60405161013a9190611623565b61027f610b4c565b60405161013a9190611636565b6101b261029a3660046112c7565b610f2e565b6101b26102ad3660046113e1565b610faf565b60006001600160e01b03198216637965db0b60e01b14806102e357506301ffc9a760e01b6001600160e01b03198316145b92915050565b600360205260009081526040902080546001820154600283018054929360ff9092169261031590611698565b80601f016020809104026020016040519081016040528092919081815260200182805461034190611698565b801561038e5780601f106103635761010080835404028352916020019161038e565b820191906000526020600020905b81548152906001019060200180831161037157829003601f168201915b5050505050908060030180546103a390611698565b80601f01602080910402602001604051908101604052809291908181526020018280546103cf90611698565b801561041c5780601f106103f15761010080835404028352916020019161041c565b820191906000526020600020905b8154815290600101906020018083116103ff57829003601f168201915b50505060048401546005850154600686015460078701805496976001600160a01b039094169692955060ff90911693509061045690611698565b80601f016020809104026020016040519081016040528092919081815260200182805461048290611698565b80156104cf5780601f106104a4576101008083540402835291602001916104cf565b820191906000526020600020905b8154815290600101906020018083116104b257829003601f168201915b5050505050905088565b6000828152602081905260409020600101546104f481610fd4565b6104fe8383610fde565b50505050565b6001600160a01b038116331461052d5760405163334bd91960e11b815260040160405180910390fd5b6105378282611070565b505050565b600061054781610fd4565b61054f6110db565b50565b60007fd9d062b29c8756d894f301c5167d214c34d627724cd7fc859ab9329c9330cf5161057e81610fd4565b61058661112d565b60008790036105a8576040516352ddcdef60e11b815260040160405180910390fd5b60008590036105ca5760405163da84d67d60e01b815260040160405180910390fd5b6002600081546105d9906116d2565b91905081905591506040518061010001604052808381526020018a6003811115610605576106056112e0565b815260200189898080601f016020809104026020016040519081016040528093929190818152602001838380828437600092019190915250505090825250604080516020601f8a01819004810282018101909252888152918101919089908990819084018382808284376000920182905250938552505033602084015250426040830152606090910190815260200185858080601f01602080910402602001604051908101604052809392919081815260200183838082843760009201829052509390945250508481526003602081815260409092208451815591840151600180840180549495509193919260ff19909216918490811115610709576107096112e0565b021790555060408201516002820190610722908261175d565b5060608201516003820190610737908261175d565b5060808201516004820180546001600160a01b0319166001600160a01b0390921691909117905560a0820151600582015560c082015160068201805460ff19166001838181111561078a5761078a6112e0565b021790555060e082015160078201906107a3908261175d565b50905050600460008a60038111156107bd576107bd6112e0565b81526020808201929092526040908101600090812080546001810182559082529290209091018390555182907fb41a722c71d416f421f63977d9c549ee0d1636f12b0c8b86b70bebeae3750b259061081c908c908c908c90339061181d565b60405180910390a250979650505050505050565b606060046000836003811115610848576108486112e0565b81526020019081526020016000208054806020026020016040519081016040528092919081815260200182805480156108a057602002820191906000526020600020905b81548152602001906001019080831161088c575b50505050509050919050565b60006108b781610fd4565b61054f611153565b6000918252602082815260408084206001600160a01b0393909316845291905290205460ff1690565b6108f0611236565b6108f98261118e565b604080516101008101909152815481526001820154909190602083019060ff16600381111561092a5761092a6112e0565b600381111561093b5761093b6112e0565b815260200160028201805461094f90611698565b80601f016020809104026020016040519081016040528092919081815260200182805461097b90611698565b80156109c85780601f1061099d576101008083540402835291602001916109c8565b820191906000526020600020905b8154815290600101906020018083116109ab57829003601f168201915b505050505081526020016003820180546109e190611698565b80601f0160208091040260200160405190810160405280929190818152602001828054610a0d90611698565b8015610a5a5780601f10610a2f57610100808354040283529160200191610a5a565b820191906000526020600020905b815481529060010190602001808311610a3d57829003601f168201915b505050918352505060048201546001600160a01b0316602082015260058201546040820152600682015460609091019060ff166001811115610a9e57610a9e6112e0565b6001811115610aaf57610aaf6112e0565b8152602001600782018054610ac390611698565b80601f0160208091040260200160405190810160405280929190818152602001828054610aef90611698565b8015610b3c5780601f10610b1157610100808354040283529160200191610b3c565b820191906000526020600020905b815481529060010190602001808311610b1f57829003601f168201915b5050505050815250509050919050565b6060600060025467ffffffffffffffff811115610b6b57610b6b6116f9565b604051908082528060200260200182016040528015610ba457816020015b610b91611236565b815260200190600190039081610b895790505b509050600060015b6002548111610e795760008181526003602052604081206006015460ff166001811115610bdb57610bdb6112e0565b03610e67576000818152600360208181526040928390208351610100810190945280548452600181015490929184019160ff90911690811115610c2057610c206112e0565b6003811115610c3157610c316112e0565b8152602001600282018054610c4590611698565b80601f0160208091040260200160405190810160405280929190818152602001828054610c7190611698565b8015610cbe5780601f10610c9357610100808354040283529160200191610cbe565b820191906000526020600020905b815481529060010190602001808311610ca157829003601f168201915b50505050508152602001600382018054610cd790611698565b80601f0160208091040260200160405190810160405280929190818152602001828054610d0390611698565b8015610d505780601f10610d2557610100808354040283529160200191610d50565b820191906000526020600020905b815481529060010190602001808311610d3357829003601f168201915b505050918352505060048201546001600160a01b0316602082015260058201546040820152600682015460609091019060ff166001811115610d9457610d946112e0565b6001811115610da557610da56112e0565b8152602001600782018054610db990611698565b80601f0160208091040260200160405190810160405280929190818152602001828054610de590611698565b8015610e325780601f10610e0757610100808354040283529160200191610e32565b820191906000526020600020905b815481529060010190602001808311610e1557829003601f168201915b505050505081525050838381518110610e4d57610e4d61186d565b60200260200101819052508180610e63906116d2565b9250505b80610e71816116d2565b915050610bac565b5060008167ffffffffffffffff811115610e9557610e956116f9565b604051908082528060200260200182016040528015610ece57816020015b610ebb611236565b815260200190600190039081610eb35790505b50905060005b82811015610f2657838181518110610eee57610eee61186d565b6020026020010151828281518110610f0857610f0861186d565b60200260200101819052508080610f1e906116d2565b915050610ed4565b509392505050565b7fd9d062b29c8756d894f301c5167d214c34d627724cd7fc859ab9329c9330cf51610f5881610fd4565b6000610f638361118e565b60068101805460ff1916600117905560405133815290915083907fa58b51c322de29379641b3c89bf49c9eeef6442539926b7bab82dda3269b337e9060200160405180910390a2505050565b600082815260208190526040902060010154610fca81610fd4565b6104fe8383611070565b61054f81336111d6565b6000610fea83836108bf565b611068576000838152602081815260408083206001600160a01b03861684529091529020805460ff191660011790556110203390565b6001600160a01b0316826001600160a01b0316847f2f8788117e7eff1d82e926ec794901d17c78024a50270940304540a733656f0d60405160405180910390a45060016102e3565b5060006102e3565b600061107c83836108bf565b15611068576000838152602081815260408083206001600160a01b0386168085529252808320805460ff1916905551339286917ff6391f5c32d9c69d2a47ea670b442974b53935d1edc7fd64eb21e047a839171b9190a45060016102e3565b6110e3611213565b6001805460ff191690557f5db9ee0a495bf2e6ff9c91a7834c1ba4fdd244a5e8aa4e537bd38aeae4b073aa335b6040516001600160a01b03909116815260200160405180910390a1565b60015460ff16156111515760405163d93c066560e01b815260040160405180910390fd5b565b61115b61112d565b6001805460ff1916811790557f62e78cea01bee320cd4e420270b5ea74000d11b0c9f74754ebdbfc544b05a25833611110565b600081158061119e575060025482115b156111c45760405163198067c760e11b8152600481018390526024015b60405180910390fd5b50600090815260036020526040902090565b6111e082826108bf565b61120f5760405163e2517d3f60e01b81526001600160a01b0382166004820152602481018390526044016111bb565b5050565b60015460ff1661115157604051638dfc202b60e01b815260040160405180910390fd5b604080516101008101909152600080825260208201908152602001606081526020016060815260200160006001600160a01b031681526020016000815260200160006001811115611289576112896112e0565b8152602001606081525090565b6000602082840312156112a857600080fd5b81356001600160e01b0319811681146112c057600080fd5b9392505050565b6000602082840312156112d957600080fd5b5035919050565b634e487b7160e01b600052602160045260246000fd5b60048110611306576113066112e0565b9052565b6000815180845260005b8181101561133057602081850181015186830182015201611314565b506000602082860101526020601f19601f83011685010191505092915050565b60028110611306576113066112e0565b60006101008a8352611375602084018b6112f6565b8060408401526113878184018a61130a565b9050828103606084015261139b818961130a565b6001600160a01b038816608085015260a0840187905290506113c060c0840186611350565b82810360e08401526113d2818561130a565b9b9a5050505050505050505050565b600080604083850312156113f457600080fd5b8235915060208301356001600160a01b038116811461141257600080fd5b809150509250929050565b80356004811061142c57600080fd5b919050565b60008083601f84011261144357600080fd5b50813567ffffffffffffffff81111561145b57600080fd5b60208301915083602082850101111561147357600080fd5b9250929050565b60008060008060008060006080888a03121561149557600080fd5b61149e8861141d565b9650602088013567ffffffffffffffff808211156114bb57600080fd5b6114c78b838c01611431565b909850965060408a01359150808211156114e057600080fd5b6114ec8b838c01611431565b909650945060608a013591508082111561150557600080fd5b506115128a828b01611431565b989b979a50959850939692959293505050565b60006020828403121561153757600080fd5b6112c08261141d565b6020808252825182820181905260009190848201906040850190845b818110156115785783518352928401929184019160010161155c565b50909695505050505050565b600061010082518452602083015161159f60208601826112f6565b5060408301518160408601526115b78286018261130a565b915050606083015184820360608601526115d1828261130a565b91505060018060a01b03608084015116608085015260a083015160a085015260c083015161160260c0860182611350565b5060e083015184820360e086015261161a828261130a565b95945050505050565b6020815260006112c06020830184611584565b6000602080830181845280855180835260408601915060408160051b870101925083870160005b8281101561168b57603f19888603018452611679858351611584565b9450928501929085019060010161165d565b5092979650505050505050565b600181811c908216806116ac57607f821691505b6020821081036116cc57634e487b7160e01b600052602260045260246000fd5b50919050565b6000600182016116f257634e487b7160e01b600052601160045260246000fd5b5060010190565b634e487b7160e01b600052604160045260246000fd5b601f82111561053757600081815260208120601f850160051c810160208610156117365750805b601f850160051c820191505b8181101561175557828155600101611742565b505050505050565b815167ffffffffffffffff811115611777576117776116f9565b61178b816117858454611698565b8461170f565b602080601f8311600181146117c057600084156117a85750858301515b600019600386901b1c1916600185901b178555611755565b600085815260208120601f198616915b828110156117ef578886015182559484019460019091019084016117d0565b508582101561180d5787850151600019600388901b60f8161c191681555b5050505050600190811b01905550565b61182781866112f6565b606060208201528260608201528284608083013760008184016080908101919091526001600160a01b03929092166040820152601f909201601f19169091010192915050565b634e487b7160e01b600052603260045260246000fdfea26469706673582212205de948e4d1af091bb08e90d1256a9f24c1feeaff424d5fb32c76244fa0e9960d64736f6c63430008140033",
  "linkReferences": {},
  "deployedLinkReferences": {}
}