{
  "_format": "hh-sol-artifact-1",
  "contractName": "PriceOracle",
  "sourceName": "contracts/PriceOracle.sol",
  "abi": [
    {
      "inputs": [
        {
          "internalType": "address",
          "name": "_cUSD",
          "type": "address"
        },
        {
          "internalType": "address",
          "name": "admin",
          "type": "address"
        }
      ],
      "stateMutability": "nonpayable",
      "type": "constructor"
    },
    {
      "inputs": [],
      "name": "AccessControlBadConfirmation",
      "type": "error"
    },
    {
      "inputs": [
        {
          "internalType": "address",
          "name": "account",
          "type": "address"
        },
        {
          "internalType": "bytes32",
          "name": "neededRole",
          "type": "bytes32"
        }
      ],
      "name": "AccessControlUnauthorizedAccount",
      "type": "error"
    },
    {
      "inputs": [],
      "name": "EnforcedPause",
      "type": "error"
    },
    {
      "inputs": [],
      "name": "ExpectedPause",
      "type": "error"
    },
    {
      "inputs": [
        {
          "internalType": "uint256",
          "name": "price",
          "type": "uint256"
        }
      ],
      "name": "InvalidPrice",
      "type": "error"
    },
    {
      "inputs": [],
      "name": "ZeroPrice",
      "type": "error"
    },
    {
      "anonymous": false,
      "inputs": [
        {
          "indexed": false,
          "internalType": "address",
          "name": "account",
          "type": "address"
        }
      ],
      "name": "Paused",
      "type": "event"
    },
    {
      "anonymous": false,
      "inputs": [
        {
          "indexed": true,
          "internalType": "uint256",
          "name": "priceId",
          "type": "uint256"
        },
        {
          "indexed": false,
          "internalType": "enum PriceOracle.FibreType",
          "name": "fibreType",
          "type": "uint8"
        },
        {
          "indexed": false,
          "internalType": "enum PriceOracle.Grade",
          "name": "grade",
          "type": "uint8"
        },
        {
          "indexed": false,
          "internalType": "uint256",
          "name": "pricePerKgWei",
          "type": "uint256"
        }
      ],
      "name": "PriceHistoryAdded",
      "type": "event"
    },
    {
      "anonymous": false,
      "inputs": [
        {
          "indexed": true,
          "internalType": "enum PriceOracle.FibreType",
          "name": "fibreType",
          "type": "uint8"
        },
        {
          "indexed": true,
          "internalType": "enum PriceOracle.Grade",
          "name": "grade",
          "type": "uint8"
        },
        {
          "indexed": false,
          "internalType": "uint256",
          "name": "pricePerKgWei",
          "type": "uint256"
        },
        {
          "indexed": false,
          "internalType": "address",
          "name": "submittedBy",
          "type": "address"
        }
      ],
      "name": "PriceUpdated",
      "type": "event"
    },
    {
      "anonymous": false,
      "inputs": [
        {
          "indexed": true,
          "internalType": "bytes32",
          "name": "role",
          "type": "bytes32"
        },
        {
          "indexed": true,
          "internalType": "bytes32",
          "name": "previousAdminRole",
          "type": "bytes32"
        },
        {
          "indexed": true,
          "internalType": "bytes32",
          "name": "newAdminRole",
          "type": "bytes32"
        }
      ],
      "name": "RoleAdminChanged",
      "type": "event"
    },
    {
      "anonymous": false,
      "inputs": [
        {
          "indexed": true,
          "internalType": "bytes32",
          "name": "role",
          "type": "bytes32"
        },
        {
          "indexed": true,
          "internalType": "address",
          "name": "account",
          "type": "address"
        },
        {
          "indexed": true,
          "internalType": "address",
          "name": "sender",
          "type": "address"
        }
      ],
      "name": "RoleGranted",
      "type": "event"
    },
    {
      "anonymous": false,
      "inputs": [
        {
          "indexed": true,
          "internalType": "bytes32",
          "name": "role",
          "type": "bytes32"
        },
        {
          "indexed": true,
          "internalType": "address",
          "name": "account",
          "type": "address"
        },
        {
          "indexed": true,
          "internalType": "address",
          "name": "sender",
          "type": "address"
        }
      ],
      "name": "RoleRevoked",
      "type": "event"
    },
    {
      "anonymous": false,
      "inputs": [
        {
          "indexed": false,
          "internalType": "address",
          "name": "account",
          "type": "address"
        }
      ],
      "name": "Unpaused",
      "type": "event"
    },
    {
      "inputs": [],
      "name": "DEFAULT_ADMIN_ROLE",
      "outputs": [
        {
          "internalType": "bytes32",
          "name": "",
          "type": "bytes32"
        }
      ],
      "stateMutability": "view",
      "type": "function"
    },
    {
      "inputs": [],
      "name": "ORACLE_ROLE",
      "outputs": [
        {
          "internalType": "bytes32",
          "name": "",
          "type": "bytes32"
        }
      ],
      "stateMutability": "view",
      "type": "function"
    },
    {
      "inputs": [
        {
          "internalType": "enum PriceOracle.FibreType[]",
          "name": "fibreTypes",
          "type": "uint8[]"
        },
        {
          "internalType": "enum PriceOracle.Grade[]",
          "name": "grades",
          "type": "uint8[]"
        },
        {
          "internalType": "uint256[]",
          "name": "prices",
          "type": "uint256[]"
        }
      ],
      "name": "batchUpdatePrices",
      "outputs": [],
      "stateMutability": "nonpayable",
      "type": "function"
    },
    {
      "inputs": [],
      "name": "cUSD",
      "outputs": [
        {
          "internalType": "contract IERC20",
          "name": "",
          "type": "address"
        }
      ],
      "stateMutability": "view",
      "type": "function"
    },
    {
      "inputs": [
        {
          "internalType": "enum PriceOracle.FibreType",
          "name": "",
          "type": "uint8"
        },
        {
          "internalType": "enum PriceOracle.Grade",
          "name": "",
          "type": "uint8"
        }
      ],
      "name": "currentPrices",
      "outputs": [
        {
          "internalType": "enum PriceOracle.FibreType",
          "name": "fibreType",
          "type": "uint8"
        },
        {
          "internalType": "enum PriceOracle.Grade",
          "name": "grade",
          "type": "uint8"
        },
        {
          "internalType": "uint256",
          "name": "pricePerKgWei",
          "type": "uint256"
        },
        {
          "internalType": "uint256",
          "name": "timestamp",
          "type": "uint256"
        },
        {
          "internalType": "address",
          "name": "submittedBy",
          "type": "address"
        }
      ],
      "stateMutability": "view",
      "type": "function"
    },
    {
      "inputs": [],
      "name": "getAllCurrentPrices",
      "outputs": [
        {
          "internalType": "uint256",
          "name": "woolA",
          "type": "uint256"
        },
        {
          "internalType": "uint256",
          "name": "woolB",
          "type": "uint256"
        },
        {
          "internalType": "uint256",
          "name": "woolC",
          "type": "uint256"
        },
        {
          "internalType": "uint256",
          "name": "mohairA",
          "type": "uint256"
        },
        {
          "internalType": "uint256",
          "name": "mohairB",
          "type": "uint256"
        },
        {
          "internalType": "uint256",
          "name": "mohairC",
          "type": "uint256"
        }
      ],
      "stateMutability": "view",
      "type": "function"
    },
    {
      "inputs": [
        {
          "internalType": "enum PriceOracle.FibreType",
          "name": "fibreType",
          "type": "uint8"
        },
        {
          "internalType": "enum PriceOracle.Grade",
          "name": "grade",
          "type": "uint8"
        }
      ],
      "name": "getCurrentPrice",
      "outputs": [
        {
          "internalType": "uint256",
          "name": "pricePerKgWei",
          "type": "uint256"
        },
        {
          "internalType": "uint256",
          "name": "timestamp",
          "type": "uint256"
        }
      ],
      "stateMutability": "view",
      "type": "function"
    },
    {
      "inputs": [
        {
          "internalType": "enum PriceOracle.FibreType",
          "name": "fibreType",
          "type": "uint8"
        },
        {
          "internalType": "enum PriceOracle.Grade",
          "name": "grade",
          "type": "uint8"
        }
      ],
      "name": "getPriceHistory",
      "outputs": [
        {
          "internalType": "uint256[]",
          "name": "",
          "type": "uint256[]"
        }
      ],
      "stateMutability": "view",
      "type": "function"
    },
    {
      "inputs": [
        {
          "internalType": "uint256",
          "name": "priceId",
          "type": "uint256"
        }
      ],
      "name": "getPriceHistoryEntry",
      "outputs": [
        {
          "components": [
            {
              "internalType": "uint256",
              "name": "priceId",
              "type": "uint256"
            },
            {
              "internalType": "enum PriceOracle.FibreType",
              "name": "fibreType",
              "type": "uint8"
            },
            {
              "internalType": "enum PriceOracle.Grade",
              "name": "grade",
              "type": "uint8"
            },
            {
              "internalType": "uint256",
              "name": "pricePerKgWei",
              "type": "uint256"
            },
            {
              "internalType": "uint256",
              "name": "timestamp",
              "type": "uint256"
            }
          ],
          "internalType": "struct PriceOracle.PriceHistory",
          "name": "",
          "type": "tuple"
        }
      ],
      "stateMutability": "view",
      "type": "function"
    },
    {
      "inputs": [
        {
          "internalType": "bytes32",
          "name": "role",
          "type": "bytes32"
        }
      ],
      "name": "getRoleAdmin",
      "outputs": [
        {
          "internalType": "bytes32",
          "name": "",
          "type": "bytes32"
        }
      ],
      "stateMutability": "view",
      "type": "function"
    },
    {
      "inputs": [
        {
          "internalType": "enum PriceOracle.FibreType",
          "name": "fibreType",
          "type": "uint8"
        },
        {
          "internalType": "enum PriceOracle.Grade",
          "name": "grade",
          "type": "uint8"
        },
        {
          "internalType": "uint32",
          "name": "weightGrams",
          "type": "uint32"
        }
      ],
      "name": "getSuggestedPrice",
      "outputs": [
        {
          "internalType": "uint256",
          "name": "suggestedPriceWei",
          "type": "uint256"
        }
      ],
      "stateMutability": "view",
      "type": "function"
    },
    {
      "inputs": [
        {
          "internalType": "bytes32",
          "name": "role",
          "type": "bytes32"
        },
        {
          "internalType": "address",
          "name": "account",
          "type": "address"
        }
      ],
      "name": "grantRole",
      "outputs": [],
      "stateMutability": "nonpayable",
      "type": "function"
    },
    {
      "inputs": [
        {
          "internalType": "bytes32",
          "name": "role",
          "type": "bytes32"
        },
        {
          "internalType": "address",
          "name": "account",
          "type": "address"
        }
      ],
      "name": "hasRole",
      "outputs": [
        {
          "internalType": "bool",
          "name": "",
          "type": "bool"
        }
      ],
      "stateMutability": "view",
      "type": "function"
    },
    {
      "inputs": [
        {
          "internalType": "enum PriceOracle.FibreType",
          "name": "fibreType",
          "type": "uint8"
        },
        {
          "internalType": "enum PriceOracle.Grade",
          "name": "grade",
          "type": "uint8"
        }
      ],
      "name": "isPriceStale",
      "outputs": [
        {
          "internalType": "bool",
          "name": "",
          "type": "bool"
        }
      ],
      "stateMutability": "view",
      "type": "function"
    },
    {
      "inputs": [],
      "name": "pause",
      "outputs": [],
      "stateMutability": "nonpayable",
      "type": "function"
    },
    {
      "inputs": [],
      "name": "paused",
      "outputs": [
        {
          "internalType": "bool",
          "name": "",
          "type": "bool"
        }
      ],
      "stateMutability": "view",
      "type": "function"
    },
    {
      "inputs": [
        {
          "internalType": "uint256",
          "name": "",
          "type": "uint256"
        }
      ],
      "name": "priceHistory",
      "outputs": [
        {
          "internalType": "uint256",
          "name": "priceId",
          "type": "uint256"
        },
        {
          "internalType": "enum PriceOracle.FibreType",
          "name": "fibreType",
          "type": "uint8"
        },
        {
          "internalType": "enum PriceOracle.Grade",
          "name": "grade",
          "type": "uint8"
        },
        {
          "internalType": "uint256",
          "name": "pricePerKgWei",
          "type": "uint256"
        },
        {
          "internalType": "uint256",
          "name": "timestamp",
          "type": "uint256"
        }
      ],
      "stateMutability": "view",
      "type": "function"
    },
    {
      "inputs": [
        {
          "internalType": "bytes32",
          "name": "role",
          "type": "bytes32"
        },
        {
          "internalType": "address",
          "name": "callerConfirmation",
          "type": "address"
        }
      ],
      "name": "renounceRole",
      "outputs": [],
      "stateMutability": "nonpayable",
      "type": "function"
    },
    {
      "inputs": [
        {
          "internalType": "bytes32",
          "name": "role",
          "type": "bytes32"
        },
        {
          "internalType": "address",
          "name": "account",
          "type": "address"
        }
      ],
      "name": "revokeRole",
      "outputs": [],
      "stateMutability": "nonpayable",
      "type": "function"
    },
    {
      "inputs": [
        {
          "internalType": "bytes4",
          "name": "interfaceId",
          "type": "bytes4"
        }
      ],
      "name": "supportsInterface",
      "outputs": [
        {
          "internalType": "bool",
          "name": "",
          "type": "bool"
        }
      ],
      "stateMutability": "view",
      "type": "function"
    },
    {
      "inputs": [],
      "name": "unpause",
      "outputs": [],
      "stateMutability": "nonpayable",
      "type": "function"
    },
    {
      "inputs": [
        {
          "internalType": "enum PriceOracle.FibreType",
          "name": "fibreType",
          "type": "uint8"
        },
        {
          "internalType": "enum PriceOracle.Grade",
          "name": "grade",
          "type": "uint8"
        },
        {
          "internalType": "uint256",
          "name": "pricePerKgWei",
          "type": "uint256"
        }
      ],
      "name": "updatePrice",
      "outputs": [],
      "stateMutability": "nonpayable",
      "type": "function"
    }
  ],
  "bytecode": "0x60a06040523480156200001157600080fd5b5060405162001cba38038062001cba833981016040819052620000349162000150565b6001600160a01b0382166080526200004e60008262000084565b506200007b7f68e79a7bf1e0bc45d0a330c573bc367f9cf464fd326078812f301165fbda4ef18262000084565b50505062000188565b6000828152602081815260408083206001600160a01b038516845290915281205460ff1662000129576000838152602081815260408083206001600160a01b03861684529091529020805460ff19166001179055620000e03390565b6001600160a01b0316826001600160a01b0316847f2f8788117e7eff1d82e926ec794901d17c78024a50270940304540a733656f0d60405160405180910390a45060016200012d565b5060005b92915050565b80516001600160a01b03811681146200014b57600080fd5b919050565b600080604083850312156200016457600080fd5b6200016f8362000133565b91506200017f6020840162000133565b90509250929050565b608051611b16620001a460003960006101c90152611b166000f3fe608060405234801561001057600080fd5b50600436106101425760003560e01c806358f9296f116100b857806391d148541161007c57806391d148541461040c578063a217fddf1461041f578063b27a048414610427578063d547741f14610479578063dc5096031461048c578063df33e980146104f057600080fd5b806358f9296f146102a45780635c975abb146103c6578063614e8a78146103d15780637f2a8819146103f15780638456cb591461040457600080fd5b80632f2ff15d1161010a5780632f2ff15d1461022657806336568abe1461023b578063375ec2cd1461024e5780633c16a2d5146102765780633f4ba83a146102895780634f37e9881461029157600080fd5b806301ffc9a71461014757806307e2cea51461016f5780631a28b7ab146101a45780631fccf672146101c4578063248a9ca314610203575b600080fd5b61015a610155366004611666565b610503565b60405190151581526020015b60405180910390f35b6101967f68e79a7bf1e0bc45d0a330c573bc367f9cf464fd326078812f301165fbda4ef181565b604051908152602001610166565b6101b76101b23660046116b3565b61053a565b60405161016691906116e6565b6101eb7f000000000000000000000000000000000000000000000000000000000000000081565b6040516001600160a01b039091168152602001610166565b61019661021136600461172a565b60009081526020819052604090206001015490565b610239610234366004611743565b6105fb565b005b610239610249366004611743565b610626565b61026161025c3660046116b3565b61065e565b60408051928352602083019190915201610166565b61015a6102843660046116b3565b610779565b6102396108ac565b61023961029f36600461177f565b6108c2565b7f84fa35e963a209ed7b6693816f0819bcb70c934337c6902235d48a9c59ebe6ec547ff5d2b9d7b7dcf31fafb527f48cb641b3e286ba85117ea973378ae75f2b0f27ca547f0cd92e5b4e6598c1949a71e034c2db052fecdb0cbb23287b5cc133a4ab147475547feb972bfd9e24bc26d8a6be6cef621408cbdcf8fa2ccd03b0e5bf1d9b7c401def547ffb8d863de1250aa620936e91467e1af01a92eb0e70a9507f29fbc3ded4c65f265460026000527fa15bc60c955c405d20d9149c709e2460f1c2d9a497496a7f46004d1772c3054c6020527f63383099118369e3b7e10810450c200ba30ca74f16a798c21d846e7b8f29f8e654604080519687526020870195909552938501929092526060840152608083015260a082015260c001610166565b60015460ff1661015a565b6103e46103df36600461172a565b610b47565b60405161016691906117f5565b6101966103ff36600461183e565b610c1f565b610239610d6c565b61015a61041a366004611743565b610d7f565b610196600081565b61046861043536600461172a565b6004602052600090815260409020805460018201546002830154600390930154919260ff80831693610100909304169185565b60405161016695949392919061188e565b610239610487366004611743565b610da8565b6104df61049a3660046116b3565b60036020818152600093845260408085209091529183529120805460018201546002830154929093015460ff808316946101009093041692906001600160a01b031685565b6040516101669594939291906118c2565b6102396104fe366004611947565b610dcd565b60006001600160e01b03198216637965db0b60e01b148061053457506301ffc9a760e01b6001600160e01b03198316145b92915050565b606060056000846001811115610552576105526117bb565b6001811115610563576105636117bb565b81526020019081526020016000206000836002811115610585576105856117bb565b6002811115610596576105966117bb565b81526020019081526020016000208054806020026020016040519081016040528092919081815260200182805480156105ee57602002820191906000526020600020905b8154815260200190600101908083116105da575b5050505050905092915050565b600082815260208190526040902060010154610616816112a1565b61062083836112ab565b50505050565b6001600160a01b038116331461064f5760405163334bd91960e11b815260040160405180910390fd5b610659828261133d565b505050565b600080600060036000866001811115610679576106796117bb565b600181111561068a5761068a6117bb565b815260200190815260200160002060008560028111156106ac576106ac6117bb565b60028111156106bd576106bd6117bb565b815260208101919091526040908101600020815160a081019092528054829060ff1660018111156106f0576106f06117bb565b6001811115610701576107016117bb565b81528154602090910190610100900460ff166002811115610724576107246117bb565b6002811115610735576107356117bb565b81526001820154602082015260028201546040808301919091526003909201546001600160a01b0316606091820152908201519101519093509150505b9250929050565b60008060036000856001811115610792576107926117bb565b60018111156107a3576107a36117bb565b815260200190815260200160002060008460028111156107c5576107c56117bb565b60028111156107d6576107d66117bb565b815260208101919091526040908101600020815160a081019092528054829060ff166001811115610809576108096117bb565b600181111561081a5761081a6117bb565b81528154602090910190610100900460ff16600281111561083d5761083d6117bb565b600281111561084e5761084e6117bb565b815260018201546020820152600282015460408201526003909101546001600160a01b0316606091820152810151909150600003610890576001915050610534565b60608101516108a29062093a806119f7565b4211949350505050565b60006108b7816112a1565b6108bf6113a8565b50565b7f68e79a7bf1e0bc45d0a330c573bc367f9cf464fd326078812f301165fbda4ef16108ec816112a1565b6108f46113fa565b8160000361091557604051634dfba02360e01b815260040160405180910390fd5b60006003600086600181111561092d5761092d6117bb565b600181111561093e5761093e6117bb565b81526020019081526020016000206000856002811115610960576109606117bb565b6002811115610971576109716117bb565b815260200190815260200160002090506000816001015411156109a2576109a2858583600101548460020154611420565b6040518060a001604052808660018111156109bf576109bf6117bb565b81526020018560028111156109d6576109d66117bb565b8152602081018590524260408201523360609091015260036000876001811115610a0257610a026117bb565b6001811115610a1357610a136117bb565b81526020019081526020016000206000866002811115610a3557610a356117bb565b6002811115610a4657610a466117bb565b8152602081019190915260400160002081518154829060ff191660018381811115610a7357610a736117bb565b021790555060208201518154829061ff001916610100836002811115610a9b57610a9b6117bb565b0217905550604082015181600101556060820151816002015560808201518160030160006101000a8154816001600160a01b0302191690836001600160a01b03160217905550905050836002811115610af657610af66117bb565b856001811115610b0857610b086117bb565b604080518681523360208201527fe59194db9fb01d8edcd01205cd1105aec7cd3b65077f2cb7ae0d8058436e97dd910160405180910390a35050505050565b610b7a6040805160a081019091526000808252602082019081526020016000815260200160008152602001600081525090565b600082815260046020908152604091829020825160a0810190935280548352600180820154919284019160ff1690811115610bb757610bb76117bb565b6001811115610bc857610bc86117bb565b81526020016001820160019054906101000a900460ff166002811115610bf057610bf06117bb565b6002811115610c0157610c016117bb565b81526002820154602082015260039091015460409091015292915050565b60008060036000866001811115610c3857610c386117bb565b6001811115610c4957610c496117bb565b81526020019081526020016000206000856002811115610c6b57610c6b6117bb565b6002811115610c7c57610c7c6117bb565b815260208101919091526040908101600020815160a081019092528054829060ff166001811115610caf57610caf6117bb565b6001811115610cc057610cc06117bb565b81528154602090910190610100900460ff166002811115610ce357610ce36117bb565b6002811115610cf457610cf46117bb565b81526001820154602082015260028201546040808301919091526003909201546001600160a01b0316606090910152810151909150600003610d3a576000915050610d65565b6000610d486103e885611a0a565b63ffffffff169050808260400151610d609190611a3b565b925050505b9392505050565b6000610d77816112a1565b6108bf6115cb565b6000918252602082815260408084206001600160a01b0393909316845291905290205460ff1690565b600082815260208190526040902060010154610dc3816112a1565b610620838361133d565b7f68e79a7bf1e0bc45d0a330c573bc367f9cf464fd326078812f301165fbda4ef1610df7816112a1565b610dff6113fa565b8584148015610e0d57508382145b610e565760405162461bcd60e51b8152602060048201526015602482015274082e4e4c2f240d8cadccee8d040dad2e6dac2e8c6d605b1b60448201526064015b60405180910390fd5b60005b8681101561129757838382818110610e7357610e73611a52565b90506020020135600003610e9a57604051634dfba02360e01b815260040160405180910390fd5b6000600360008a8a85818110610eb257610eb2611a52565b9050602002016020810190610ec79190611a68565b6001811115610ed857610ed86117bb565b6001811115610ee957610ee96117bb565b81526020019081526020016000206000888885818110610f0b57610f0b611a52565b9050602002016020810190610f209190611a83565b6002811115610f3157610f316117bb565b6002811115610f4257610f426117bb565b81526020019081526020016000209050600081600101541115610fbf57610fbf898984818110610f7457610f74611a52565b9050602002016020810190610f899190611a68565b888885818110610f9b57610f9b611a52565b9050602002016020810190610fb09190611a83565b83600101548460020154611420565b6040518060a001604052808a8a85818110610fdc57610fdc611a52565b9050602002016020810190610ff19190611a68565b6001811115611002576110026117bb565b815260200188888581811061101957611019611a52565b905060200201602081019061102e9190611a83565b600281111561103f5761103f6117bb565b815260200186868581811061105657611056611a52565b905060200201358152602001428152602001336001600160a01b0316815250600360008b8b8681811061108b5761108b611a52565b90506020020160208101906110a09190611a68565b60018111156110b1576110b16117bb565b60018111156110c2576110c26117bb565b815260200190815260200160002060008989868181106110e4576110e4611a52565b90506020020160208101906110f99190611a83565b600281111561110a5761110a6117bb565b600281111561111b5761111b6117bb565b8152602081019190915260400160002081518154829060ff191660018381811115611148576111486117bb565b021790555060208201518154829061ff001916610100836002811115611170576111706117bb565b02179055506040820151600182015560608201516002820155608090910151600390910180546001600160a01b0319166001600160a01b039092169190911790558686838181106111c3576111c3611a52565b90506020020160208101906111d89190611a83565b60028111156111e9576111e96117bb565b8989848181106111fb576111fb611a52565b90506020020160208101906112109190611a68565b6001811115611221576112216117bb565b7fe59194db9fb01d8edcd01205cd1105aec7cd3b65077f2cb7ae0d8058436e97dd87878681811061125457611254611a52565b905060200201353360405161127c9291909182526001600160a01b0316602082015260400190565b60405180910390a3508061128f81611a9e565b915050610e59565b5050505050505050565b6108bf8133611606565b60006112b78383610d7f565b611335576000838152602081815260408083206001600160a01b03861684529091529020805460ff191660011790556112ed3390565b6001600160a01b0316826001600160a01b0316847f2f8788117e7eff1d82e926ec794901d17c78024a50270940304540a733656f0d60405160405180910390a4506001610534565b506000610534565b60006113498383610d7f565b15611335576000838152602081815260408083206001600160a01b0386168085529252808320805460ff1916905551339286917ff6391f5c32d9c69d2a47ea670b442974b53935d1edc7fd64eb21e047a839171b9190a4506001610534565b6113b0611643565b6001805460ff191690557f5db9ee0a495bf2e6ff9c91a7834c1ba4fdd244a5e8aa4e537bd38aeae4b073aa335b6040516001600160a01b03909116815260200160405180910390a1565b60015460ff161561141e5760405163d93c066560e01b815260040160405180910390fd5b565b6002805490600061143083611a9e565b91905055506040518060a00160405280600254815260200185600181111561145a5761145a6117bb565b8152602001846002811115611471576114716117bb565b81526020808201859052604091820184905260025460009081526004825291909120825181559082015160018083018054909160ff199091169083818111156114bc576114bc6117bb565b0217905550604082015160018201805461ff0019166101008360028111156114e6576114e66117bb565b02179055506060820151600282015560809091015160039091015560056000856001811115611517576115176117bb565b6001811115611528576115286117bb565b8152602001908152602001600020600084600281111561154a5761154a6117bb565b600281111561155b5761155b6117bb565b815260208082019290925260409081016000908120600280548254600181018455928452949092200192909255905490517f0727b4d3cf8fdbb6bd9820a7c43ed2484e9279e5cc7fffec8fba168e8be4c4b3906115bd90879087908790611ab7565b60405180910390a250505050565b6115d36113fa565b6001805460ff1916811790557f62e78cea01bee320cd4e420270b5ea74000d11b0c9f74754ebdbfc544b05a258336113dd565b6116108282610d7f565b61163f5760405163e2517d3f60e01b81526001600160a01b038216600482015260248101839052604401610e4d565b5050565b60015460ff1661141e57604051638dfc202b60e01b815260040160405180910390fd5b60006020828403121561167857600080fd5b81356001600160e01b031981168114610d6557600080fd5b80356002811061169f57600080fd5b919050565b80356003811061169f57600080fd5b600080604083850312156116c657600080fd5b6116cf83611690565b91506116dd602084016116a4565b90509250929050565b6020808252825182820181905260009190848201906040850190845b8181101561171e57835183529284019291840191600101611702565b50909695505050505050565b60006020828403121561173c57600080fd5b5035919050565b6000806040838503121561175657600080fd5b8235915060208301356001600160a01b038116811461177457600080fd5b809150509250929050565b60008060006060848603121561179457600080fd5b61179d84611690565b92506117ab602085016116a4565b9150604084013590509250925092565b634e487b7160e01b600052602160045260246000fd5b600281106117e1576117e16117bb565b9052565b600381106117e1576117e16117bb565b8151815260208083015160a0830191611810908401826117d1565b50604083015161182360408401826117e5565b50606083015160608301526080830151608083015292915050565b60008060006060848603121561185357600080fd5b61185c84611690565b925061186a602085016116a4565b9150604084013563ffffffff8116811461188357600080fd5b809150509250925092565b85815260a081016118a260208301876117d1565b6118af60408301866117e5565b6060820193909352608001529392505050565b60a081016118d082886117d1565b6118dd60208301876117e5565b604082019490945260608101929092526001600160a01b031660809091015292915050565b60008083601f84011261191457600080fd5b50813567ffffffffffffffff81111561192c57600080fd5b6020830191508360208260051b850101111561077257600080fd5b6000806000806000806060878903121561196057600080fd5b863567ffffffffffffffff8082111561197857600080fd5b6119848a838b01611902565b9098509650602089013591508082111561199d57600080fd5b6119a98a838b01611902565b909650945060408901359150808211156119c257600080fd5b506119cf89828a01611902565b979a9699509497509295939492505050565b634e487b7160e01b600052601160045260246000fd5b80820180821115610534576105346119e1565b600063ffffffff80841680611a2f57634e487b7160e01b600052601260045260246000fd5b92169190910492915050565b8082028115828204841417610534576105346119e1565b634e487b7160e01b600052603260045260246000fd5b600060208284031215611a7a57600080fd5b610d6582611690565b600060208284031215611a9557600080fd5b610d65826116a4565b600060018201611ab057611ab06119e1565b5060010190565b60608101611ac582866117d1565b611ad260208301856117e5565b82604083015294935050505056fea2646970667358221220be6938661c4ad4333d0c2cc0b6f9e4c85dbcefc378c35cd950470af15068b55864736f6c63430008140033",
  "linkReferences": {},
  "deployedLinkReferences": {}
}