{
  "_format": "hh-sol-artifact-1",
  "contractName": "ProofOfOriginVerifier",
  "sourceName": "contracts/ProofOfOriginVerifier.sol",
  "abi": [
    {
      "inputs": [
        {
          "internalType": "address",
          "name": "_ledger",
          "type": "address"
        }
      ],
      "stateMutability": "nonpayable",
      "type": "constructor"
    },
    {
      "anonymous": false,
      "inputs": [
        {
          "indexed": true,
          "internalType": "uint256",
          "name": "lotId",
          "type": "uint256"
        },
        {
          "indexed": false,
          "internalType": "bytes32",
          "name": "proofSubmitted",
          "type": "bytes32"
        },
        {
          "indexed": false,
          "internalType": "bool",
          "name": "valid",
          "type": "bool"
        },
        {
          "indexed": false,
          "internalType": "address",
          "name": "verifier",
          "type": "address"
        },
        {
          "indexed": false,
          "internalType": "uint256",
          "name": "timestamp",
          "type": "uint256"
        }
      ],
      "name": "VerificationLogged",
      "type": "event"
    },
    {
      "inputs": [
        {
          "internalType": "address",
          "name": "farmer",
          "type": "address"
        },
        {
          "internalType": "uint256",
          "name": "lotId",
          "type": "uint256"
        },
        {
          "internalType": "uint8",
          "name": "fibreType",
          "type": "uint8"
        },
        {
          "internalType": "uint8",
          "name": "grade",
          "type": "uint8"
        },
        {
          "internalType": "uint32",
          "name": "weightGrams",
          "type": "uint32"
        },
        {
          "internalType": "string",
          "name": "gpsZone",
          "type": "string"
        },
        {
          "internalType": "string",
          "name": "seasonYear",
          "type": "string"
        }
      ],
      "name": "computeExpectedProof",
      "outputs": [
        {
          "internalType": "bytes32",
          "name": "",
          "type": "bytes32"
        }
      ],
      "stateMutability": "pure",
      "type": "function"
    },
    {
      "inputs": [],
      "name": "ledger",
      "outputs": [
        {
          "internalType": "contract HarvestLedger",
          "name": "",
          "type": "address"
        }
      ],
      "stateMutability": "view",
      "type": "function"
    },
    {
      "inputs": [
        {
          "internalType": "uint256",
          "name": "lotId",
          "type": "uint256"
        },
        {
          "internalType": "bytes32",
          "name": "proofHash",
          "type": "bytes32"
        }
      ],
      "name": "logVerification",
      "outputs": [
        {
          "components": [
            {
              "internalType": "bool",
              "name": "valid",
              "type": "bool"
            },
            {
              "internalType": "bool",
              "name": "isValidated",
              "type": "bool"
            },
            {
              "internalType": "address",
              "name": "farmer",
              "type": "address"
            },
            {
              "internalType": "uint8",
              "name": "fibreType",
              "type": "uint8"
            },
            {
              "internalType": "uint8",
              "name": "grade",
              "type": "uint8"
            },
            {
              "internalType": "uint32",
              "name": "weightGrams",
              "type": "uint32"
            },
            {
              "internalType": "string",
              "name": "gpsZone",
              "type": "string"
            },
            {
              "internalType": "string",
              "name": "seasonYear",
              "type": "string"
            },
            {
              "internalType": "string",
              "name": "metadataURI",
              "type": "string"
            },
            {
              "internalType": "uint256",
              "name": "registeredAt",
              "type": "uint256"
            }
          ],
          "internalType": "struct ProofOfOriginVerifier.VerificationResult",
          "name": "result",
          "type": "tuple"
        }
      ],
      "stateMutability": "nonpayable",
      "type": "function"
    },
    {
      "inputs": [
        {
          "internalType": "uint256",
          "name": "lotId",
          "type": "uint256"
        },
        {
          "internalType": "bytes32",
          "name": "proofHash",
          "type": "bytes32"
        }
      ],
      "name": "verify",
      "outputs": [
        {
          "components": [
            {
              "internalType": "bool",
              "name": "valid",
              "type": "bool"
            },
            {
              "internalType": "bool",
              "name": "isValidated",
              "type": "bool"
            },
            {
              "internalType": "address",
              "name": "farmer",
              "type": "address"
            },
            {
              "internalType": "uint8",
              "name": "fibreType",
              "type": "uint8"
            },
            {
              "internalType": "uint8",
              "name": "grade",
              "type": "uint8"
            },
            {
              "internalType": "uint32",
              "name": "weightGrams",
              "type": "uint32"
            },
            {
              "internalType": "string",
              "name": "gpsZone",
              "type": "string"
            },
            {
              "internalType": "string",
              "name": "seasonYear",
              "type": "string"
            },
            {
              "internalType": "string",
              "name": "metadataURI",
              "type": "string"
            },
            {
              "internalType": "uint256",
              "name": "registeredAt",
              "type": "uint256"
            }
          ],
          "internalType": "struct ProofOfOriginVerifier.VerificationResult",
          "name": "result",
          "type": "tuple"
        }
      ],
      "stateMutability": "view",
      "type": "function"
    }
  ],
  "bytecode": "0x60a060405234801561001057600080fd5b50604051610c3b380380610c3b83398101604081905261002f91610040565b6001600160a01b0316608052610070565b60006020828403121561005257600080fd5b81516001600160a01b038116811461006957600080fd5b9392505050565b608051610ba3610098600039600081816092015281816101e401526102740152610ba36000f3fe608060405234801561001057600080fd5b506004361061004c5760003560e01c80630dc83df0146100515780631d97ce311461007a57806356397c351461008d578063ecb5fe5e146100cc575b600080fd5b61006461005f366004610444565b6100ed565b60405161007191906104b6565b60405180910390f35b610064610088366004610444565b6101b2565b6100b47f000000000000000000000000000000000000000000000000000000000000000081565b6040516001600160a01b039091168152602001610071565b6100df6100da366004610615565b6103a9565b604051908152602001610071565b6100f56103f1565b604051631d97ce3160e01b815260048101849052602481018390523090631d97ce3190604401600060405180830381865afa158015610138573d6000803e3d6000fd5b505050506040513d6000823e601f3d908101601f1916820160405261016091908101906107fd565b805160408051858152911515602083015233828201524260608301525191925084917f8595cc5d3cfd031ace3e51d6b18a6c838c01b496f09dcc3247a13a2394c6ba079181900360800190a292915050565b6101ba6103f1565b60405163398df04160e11b8152600481018490526024810183905260009081906001600160a01b037f0000000000000000000000000000000000000000000000000000000000000000169063731be082906044016040805180830381865afa15801561022a573d6000803e3d6000fd5b505050506040513d601f19601f8201168201806040525081019061024e9190610939565b6040516355ccae8960e11b81526004810188905291935091506000906001600160a01b037f0000000000000000000000000000000000000000000000000000000000000000169063ab995d1290602401600060405180830381865afa1580156102bb573d6000803e3d6000fd5b505050506040513d6000823e601f3d908101601f191682016040526102e3919081019061098a565b604080516101408101909152841515815290915060208101600184600381111561030f5761030f610ad6565b141515815260200182602001516001600160a01b031681526020018260400151600181111561034057610340610ad6565b60ff1681526020018260600151600281111561035e5761035e610ad6565b60ff168152602001826080015163ffffffff1681526020018260a0015181526020018260c0015181526020018261018001518152602001826101200151815250935050505092915050565b60008989898989898989896040516020016103cc99989796959493929190610aec565b6040516020818303038152906040528051906020012090509998505050505050505050565b604080516101408101825260008082526020820181905291810182905260608082018390526080820183905260a0820183905260c0820181905260e0820181905261010082015261012081019190915290565b6000806040838503121561045757600080fd5b50508035926020909101359150565b60005b83811015610481578181015183820152602001610469565b50506000910152565b600081518084526104a2816020860160208601610466565b601f01601f19169290920160200192915050565b602081526104c960208201835115159052565b600060208301516104de604084018215159052565b5060408301516001600160a01b038116606084015250606083015160ff8116608084015250608083015160ff811660a08401525060a083015163ffffffff811660c08401525060c08301516101408060e085015261054061016085018361048a565b915060e0850151601f19610100818786030181880152610560858461048a565b94508088015192505061012081878603018188015261057f858461048a565b970151959092019490945250929392505050565b6001600160a01b03811681146105a857600080fd5b50565b60ff811681146105a857600080fd5b63ffffffff811681146105a857600080fd5b60008083601f8401126105de57600080fd5b50813567ffffffffffffffff8111156105f657600080fd5b60208301915083602082850101111561060e57600080fd5b9250929050565b600080600080600080600080600060e08a8c03121561063357600080fd5b893561063e81610593565b985060208a0135975060408a0135610655816105ab565b965060608a0135610665816105ab565b955060808a0135610675816105ba565b945060a08a013567ffffffffffffffff8082111561069257600080fd5b61069e8d838e016105cc565b909650945060c08c01359150808211156106b757600080fd5b506106c48c828d016105cc565b915080935050809150509295985092959850929598565b634e487b7160e01b600052604160045260246000fd5b604051610140810167ffffffffffffffff81118282101715610715576107156106db565b60405290565b6040516101a0810167ffffffffffffffff81118282101715610715576107156106db565b8051801515811461074f57600080fd5b919050565b805161074f81610593565b805161074f816105ab565b805161074f816105ba565b600082601f83011261078657600080fd5b815167ffffffffffffffff808211156107a1576107a16106db565b604051601f8301601f19908116603f011681019082821181831017156107c9576107c96106db565b816040528381528660208588010111156107e257600080fd5b6107f3846020830160208901610466565b9695505050505050565b60006020828403121561080f57600080fd5b815167ffffffffffffffff8082111561082757600080fd5b90830190610140828603121561083c57600080fd5b6108446106f1565b61084d8361073f565b815261085b6020840161073f565b602082015261086c60408401610754565b604082015261087d6060840161075f565b606082015261088e6080840161075f565b608082015261089f60a0840161076a565b60a082015260c0830151828111156108b657600080fd5b6108c287828601610775565b60c08301525060e0830151828111156108da57600080fd5b6108e687828601610775565b60e083015250610100808401518381111561090057600080fd5b61090c88828701610775565b91830191909152506101209283015192810192909252509392505050565b80516004811061074f57600080fd5b6000806040838503121561094c57600080fd5b6109558361073f565b91506109636020840161092a565b90509250929050565b80516002811061074f57600080fd5b80516003811061074f57600080fd5b60006020828403121561099c57600080fd5b815167ffffffffffffffff808211156109b457600080fd5b908301906101a082860312156109c957600080fd5b6109d161071b565b825181526109e160208401610754565b60208201526109f26040840161096c565b6040820152610a036060840161097b565b6060820152610a146080840161076a565b608082015260a083015182811115610a2b57600080fd5b610a3787828601610775565b60a08301525060c083015182811115610a4f57600080fd5b610a5b87828601610775565b60c08301525060e083015160e0820152610100610a7981850161092a565b9082015261012083810151908201526101408084015190820152610160610aa1818501610754565b908201526101808381015183811115610ab957600080fd5b610ac588828701610775565b918301919091525095945050505050565b634e487b7160e01b600052602160045260246000fd5b6bffffffffffffffffffffffff1960608b901b168152601481018990526001600160f81b031960f889811b8216603484015288901b1660358201526001600160e01b031960e087901b16603682015260008486603a840137848201603a810160008152848682375060009301603a019283525090999850505050505050505056fea2646970667358221220831628b4e488beacd634073c84c77441b6b4695aae346d9a655382197903957464736f6c63430008140033",
  "linkReferences": {},
  "deployedLinkReferences": {}
}