{
  "_format": "hh-sol-artifact-1",
  "contractName": "ReputationSystem",
  "sourceName": "contracts/ReputationSystem.sol",
  "abi": [
    {
      "inputs": [
        {
          "internalType": "address",
          "name": "admin",
          "type": "address"
        }
      ],
      "stateMutability": "nonpayable",
      "type": "constructor"
    },
    {
      "inputs": [],
      "name": "AccessControlBadConfirmation",
      "type": "error"
    },
    {
      "inputs": [
        {
          "internalType": "address",
          "name": "account",
          "type": "address"
        },
        {
          "internalType": "bytes32",
          "name": "neededRole",
          "type": "bytes32"
        }
      ],
      "name": "AccessControlUnauthorizedAccount",
      "type": "error"
    },
    {
      "inputs": [
        {
          "internalType": "address",
          "name": "reviewer",
          "type": "address"
        },
        {
          "internalType": "address",
          "name": "reviewed",
          "type": "address"
        }
      ],
      "name": "CannotReviewSelf",
      "type": "error"
    },
    {
      "inputs": [],
      "name": "EnforcedPause",
      "type": "error"
    },
    {
      "inputs": [
        {
          "internalType": "address",
          "name": "wallet",
          "type": "address"
        }
      ],
      "name": "EntityNotFound",
      "type": "error"
    },
    {
      "inputs": [],
      "name": "ExpectedPause",
      "type": "error"
    },
    {
      "inputs": [
        {
          "internalType": "uint8",
          "name": "score",
          "type": "uint8"
        }
      ],
      "name": "InvalidScore",
      "type": "error"
    },
    {
      "inputs": [
        {
          "internalType": "uint256",
          "name": "reviewId",
          "type": "uint256"
        }
      ],
      "name": "ReviewNotFound",
      "type": "error"
    },
    {
      "anonymous": false,
      "inputs": [
        {
          "indexed": false,
          "internalType": "address",
          "name": "account",
          "type": "address"
        }
      ],
      "name": "Paused",
      "type": "event"
    },
    {
      "anonymous": false,
      "inputs": [
        {
          "indexed": true,
          "internalType": "address",
          "name": "wallet",
          "type": "address"
        },
        {
          "indexed": false,
          "internalType": "string",
          "name": "reason",
          "type": "string"
        }
      ],
      "name": "ReputationReset",
      "type": "event"
    },
    {
      "anonymous": false,
      "inputs": [
        {
          "indexed": true,
          "internalType": "address",
          "name": "wallet",
          "type": "address"
        },
        {
          "indexed": false,
          "internalType": "enum ReputationSystem.Rating",
          "name": "newRating",
          "type": "uint8"
        },
        {
          "indexed": false,
          "internalType": "uint256",
          "name": "totalScore",
          "type": "uint256"
        }
      ],
      "name": "ReputationUpdated",
      "type": "event"
    },
    {
      "anonymous": false,
      "inputs": [
        {
          "indexed": true,
          "internalType": "uint256",
          "name": "reviewId",
          "type": "uint256"
        },
        {
          "indexed": true,
          "internalType": "address",
          "name": "reviewer",
          "type": "address"
        },
        {
          "indexed": true,
          "internalType": "address",
          "name": "reviewed",
          "type": "address"
        },
        {
          "indexed": false,
          "internalType": "uint8",
          "name": "score",
          "type": "uint8"
        }
      ],
      "name": "ReviewSubmitted",
      "type": "event"
    },
    {
      "anonymous": false,
      "inputs": [
        {
          "indexed": true,
          "internalType": "bytes32",
          "name": "role",
          "type": "bytes32"
        },
        {
          "indexed": true,
          "internalType": "bytes32",
          "name": "previousAdminRole",
          "type": "bytes32"
        },
        {
          "indexed": true,
          "internalType": "bytes32",
          "name": "newAdminRole",
          "type": "bytes32"
        }
      ],
      "name": "RoleAdminChanged",
      "type": "event"
    },
    {
      "anonymous": false,
      "inputs": [
        {
          "indexed": true,
          "internalType": "bytes32",
          "name": "role",
          "type": "bytes32"
        },
        {
          "indexed": true,
          "internalType": "address",
          "name": "account",
          "type": "address"
        },
        {
          "indexed": true,
          "internalType": "address",
          "name": "sender",
          "type": "address"
        }
      ],
      "name": "RoleGranted",
      "type": "event"
    },
    {
      "anonymous": false,
      "inputs": [
        {
          "indexed": true,
          "internalType": "bytes32",
          "name": "role",
          "type": "bytes32"
        },
        {
          "indexed": true,
          "internalType": "address",
          "name": "account",
          "type": "address"
        },
        {
          "indexed": true,
          "internalType": "address",
          "name": "sender",
          "type": "address"
        }
      ],
      "name": "RoleRevoked",
      "type": "event"
    },
    {
      "anonymous": false,
      "inputs": [
        {
          "indexed": false,
          "internalType": "address",
          "name": "account",
          "type": "address"
        }
      ],
      "name": "Unpaused",
      "type": "event"
    },
    {
      "inputs": [],
      "name": "DEFAULT_ADMIN_ROLE",
      "outputs": [
        {
          "internalType": "bytes32",
          "name": "",
          "type": "bytes32"
        }
      ],
      "stateMutability": "view",
      "type": "function"
    },
    {
      "inputs": [],
      "name": "VALIDATOR_ROLE",
      "outputs": [
        {
          "internalType": "bytes32",
          "name": "",
          "type": "bytes32"
        }
      ],
      "stateMutability": "view",
      "type": "function"
    },
    {
      "inputs": [
        {
          "internalType": "address",
          "name": "entity",
          "type": "address"
        }
      ],
      "name": "getEntityReviews",
      "outputs": [
        {
          "internalType": "uint256[]",
          "name": "",
          "type": "uint256[]"
        }
      ],
      "stateMutability": "view",
      "type": "function"
    },
    {
      "inputs": [
        {
          "internalType": "address",
          "name": "wallet",
          "type": "address"
        }
      ],
      "name": "getReputation",
      "outputs": [
        {
          "components": [
            {
              "internalType": "uint256",
              "name": "entityId",
              "type": "uint256"
            },
            {
              "internalType": "enum ReputationSystem.EntityType",
              "name": "entityType",
              "type": "uint8"
            },
            {
              "internalType": "address",
              "name": "wallet",
              "type": "address"
            },
            {
              "internalType": "uint256",
              "name": "totalTransactions",
              "type": "uint256"
            },
            {
              "internalType": "uint256",
              "name": "successfulTransactions",
              "type": "uint256"
            },
            {
              "internalType": "uint256",
              "name": "disputesWon",
              "type": "uint256"
            },
            {
              "internalType": "uint256",
              "name": "disputesLost",
              "type": "uint256"
            },
            {
              "internalType": "uint256",
              "name": "totalScore",
              "type": "uint256"
            },
            {
              "internalType": "enum ReputationSystem.Rating",
              "name": "currentRating",
              "type": "uint8"
            },
            {
              "internalType": "uint256",
              "name": "lastUpdated",
              "type": "uint256"
            }
          ],
          "internalType": "struct ReputationSystem.Reputation",
          "name": "",
          "type": "tuple"
        }
      ],
      "stateMutability": "view",
      "type": "function"
    },
    {
      "inputs": [
        {
          "internalType": "uint256",
          "name": "reviewId",
          "type": "uint256"
        }
      ],
      "name": "getReview",
      "outputs": [
        {
          "components": [
            {
              "internalType": "uint256",
              "name": "reviewId",
              "type": "uint256"
            },
            {
              "internalType": "uint256",
              "name": "transactionId",
              "type": "uint256"
            },
            {
              "internalType": "address",
              "name": "reviewer",
              "type": "address"
            },
            {
              "internalType": "address",
              "name": "reviewed",
              "type": "address"
            },
            {
              "internalType": "enum ReputationSystem.EntityType",
              "name": "reviewedType",
              "type": "uint8"
            },
            {
              "internalType": "uint8",
              "name": "score",
              "type": "uint8"
            },
            {
              "internalType": "string",
              "name": "comment",
              "type": "string"
            },
            {
              "internalType": "uint256",
              "name": "timestamp",
              "type": "uint256"
            }
          ],
          "internalType": "struct ReputationSystem.Review",
          "name": "",
          "type": "tuple"
        }
      ],
      "stateMutability": "view",
      "type": "function"
    },
    {
      "inputs": [
        {
          "internalType": "bytes32",
          "name": "role",
          "type": "bytes32"
        }
      ],
      "name": "getRoleAdmin",
      "outputs": [
        {
          "internalType": "bytes32",
          "name": "",
          "type": "bytes32"
        }
      ],
      "stateMutability": "view",
      "type": "function"
    },
    {
      "inputs": [
        {
          "internalType": "bytes32",
          "name": "role",
          "type": "bytes32"
        },
        {
          "internalType": "address",
          "name": "account",
          "type": "address"
        }
      ],
      "name": "grantRole",
      "outputs": [],
      "stateMutability": "nonpayable",
      "type": "function"
    },
    {
      "inputs": [
        {
          "internalType": "bytes32",
          "name": "role",
          "type": "bytes32"
        },
        {
          "internalType": "address",
          "name": "account",
          "type": "address"
        }
      ],
      "name": "hasRole",
      "outputs": [
        {
          "internalType": "bool",
          "name": "",
          "type": "bool"
        }
      ],
      "stateMutability": "view",
      "type": "function"
    },
    {
      "inputs": [],
      "name": "pause",
      "outputs": [],
      "stateMutability": "nonpayable",
      "type": "function"
    },
    {
      "inputs": [],
      "name": "paused",
      "outputs": [
        {
          "internalType": "bool",
          "name": "",
          "type": "bool"
        }
      ],
      "stateMutability": "view",
      "type": "function"
    },
    {
      "inputs": [
        {
          "internalType": "address",
          "name": "farmer",
          "type": "address"
        },
        {
          "internalType": "address",
          "name": "buyer",
          "type": "address"
        },
        {
          "internalType": "bool",
          "name": "farmerWon",
          "type": "bool"
        }
      ],
      "name": "recordDisputeOutcome",
      "outputs": [],
      "stateMutability": "nonpayable",
      "type": "function"
    },
    {
      "inputs": [
        {
          "internalType": "address",
          "name": "farmer",
          "type": "address"
        },
        {
          "internalType": "address",
          "name": "buyer",
          "type": "address"
        }
      ],
      "name": "recordSuccessfulTransaction",
      "outputs": [],
      "stateMutability": "nonpayable",
      "type": "function"
    },
    {
      "inputs": [
        {
          "internalType": "address",
          "name": "wallet",
          "type": "address"
        },
        {
          "internalType": "enum ReputationSystem.EntityType",
          "name": "entityType",
          "type": "uint8"
        }
      ],
      "name": "registerEntity",
      "outputs": [],
      "stateMutability": "nonpayable",
      "type": "function"
    },
    {
      "inputs": [
        {
          "internalType": "bytes32",
          "name": "role",
          "type": "bytes32"
        },
        {
          "internalType": "address",
          "name": "callerConfirmation",
          "type": "address"
        }
      ],
      "name": "renounceRole",
      "outputs": [],
      "stateMutability": "nonpayable",
      "type": "function"
    },
    {
      "inputs": [
        {
          "internalType": "address",
          "name": "",
          "type": "address"
        }
      ],
      "name": "reputations",
      "outputs": [
        {
          "internalType": "uint256",
          "name": "entityId",
          "type": "uint256"
        },
        {
          "internalType": "enum ReputationSystem.EntityType",
          "name": "entityType",
          "type": "uint8"
        },
        {
          "internalType": "address",
          "name": "wallet",
          "type": "address"
        },
        {
          "internalType": "uint256",
          "name": "totalTransactions",
          "type": "uint256"
        },
        {
          "internalType": "uint256",
          "name": "successfulTransactions",
          "type": "uint256"
        },
        {
          "internalType": "uint256",
          "name": "disputesWon",
          "type": "uint256"
        },
        {
          "internalType": "uint256",
          "name": "disputesLost",
          "type": "uint256"
        },
        {
          "internalType": "uint256",
          "name": "totalScore",
          "type": "uint256"
        },
        {
          "internalType": "enum ReputationSystem.Rating",
          "name": "currentRating",
          "type": "uint8"
        },
        {
          "internalType": "uint256",
          "name": "lastUpdated",
          "type": "uint256"
        }
      ],
      "stateMutability": "view",
      "type": "function"
    },
    {
      "inputs": [
        {
          "internalType": "address",
          "name": "wallet",
          "type": "address"
        },
        {
          "internalType": "string",
          "name": "reason",
          "type": "string"
        }
      ],
      "name": "resetReputation",
      "outputs": [],
      "stateMutability": "nonpayable",
      "type": "function"
    },
    {
      "inputs": [
        {
          "internalType": "uint256",
          "name": "",
          "type": "uint256"
        }
      ],
      "name": "reviews",
      "outputs": [
        {
          "internalType": "uint256",
          "name": "reviewId",
          "type": "uint256"
        },
        {
          "internalType": "uint256",
          "name": "transactionId",
          "type": "uint256"
        },
        {
          "internalType": "address",
          "name": "reviewer",
          "type": "address"
        },
        {
          "internalType": "address",
          "name": "reviewed",
          "type": "address"
        },
        {
          "internalType": "enum ReputationSystem.EntityType",
          "name": "reviewedType",
          "type": "uint8"
        },
        {
          "internalType": "uint8",
          "name": "score",
          "type": "uint8"
        },
        {
          "internalType": "string",
          "name": "comment",
          "type": "string"
        },
        {
          "internalType": "uint256",
          "name": "timestamp",
          "type": "uint256"
        }
      ],
      "stateMutability": "view",
      "type": "function"
    },
    {
      "inputs": [
        {
          "internalType": "bytes32",
          "name": "role",
          "type": "bytes32"
        },
        {
          "internalType": "address",
          "name": "account",
          "type": "address"
        }
      ],
      "name": "revokeRole",
      "outputs": [],
      "stateMutability": "nonpayable",
      "type": "function"
    },
    {
      "inputs": [
        {
          "internalType": "uint256",
          "name": "transactionId",
          "type": "uint256"
        },
        {
          "internalType": "address",
          "name": "reviewed",
          "type": "address"
        },
        {
          "internalType": "enum ReputationSystem.EntityType",
          "name": "reviewedType",
          "type": "uint8"
        },
        {
          "internalType": "uint8",
          "name": "score",
          "type": "uint8"
        },
        {
          "internalType": "string",
          "name": "comment",
          "type": "string"
        }
      ],
      "name": "submitReview",
      "outputs": [
        {
          "internalType": "uint256",
          "name": "reviewId",
          "type": "uint256"
        }
      ],
      "stateMutability": "nonpayable",
      "type": "function"
    },
    {
      "inputs": [
        {
          "internalType": "bytes4",
          "name": "interfaceId",
          "type": "bytes4"
        }
      ],
      "name": "supportsInterface",
      "outputs": [
        {
          "internalType": "bool",
          "name": "",
          "type": "bool"
        }
      ],
      "stateMutability": "view",
      "type": "function"
    },
    {
      "inputs": [],
      "name": "unpause",
      "outputs": [],
      "stateMutability": "nonpayable",
      "type": "function"
    }
  ],
  "bytecode": "0x60806040523480156200001157600080fd5b5060405162001dbf38038062001dbf833981016040819052620000349162000125565b6200004160008262000076565b506200006e7f21702c8af46127c7fa207f89d0b0a8441bb32959a0ac7df790e9ab1a25c989268262000076565b505062000157565b6000828152602081815260408083206001600160a01b038516845290915281205460ff166200011b576000838152602081815260408083206001600160a01b03861684529091529020805460ff19166001179055620000d23390565b6001600160a01b0316826001600160a01b0316847f2f8788117e7eff1d82e926ec794901d17c78024a50270940304540a733656f0d60405160405180910390a45060016200011f565b5060005b92915050565b6000602082840312156200013857600080fd5b81516001600160a01b03811681146200015057600080fd5b9392505050565b611c5880620001676000396000f3fe608060405234801561001057600080fd5b50600436106101375760003560e01c806391d14854116100b8578063a81c29401161007c578063a81c2940146102fa578063c49baebe1461030d578063d547741f14610334578063e83ddcea14610347578063eb4fe7351461036e578063f0ae38fd1461038157600080fd5b806391d148541461027f578063970229d514610292578063990581b6146102b25780639c89a0e2146102d2578063a217fddf146102f257600080fd5b80633f4ba83a116100ff5780633f4ba83a1461023e5780635741b60a146102465780635c975abb146102595780637ff63138146102645780638456cb591461027757600080fd5b806301ffc9a71461013c57806306fa15a714610164578063248a9ca3146101e55780632f2ff15d1461021657806336568abe1461022b575b600080fd5b61014f61014a3660046114da565b610394565b60405190151581526020015b60405180910390f35b6101cf610172366004611527565b6004602081905260009182526040909120805460018201546002830154600384015494840154600585015460068601546007870154600890970154959760ff808716986101009097046001600160a01b031697959691959116908a565b60405161015b9a9998979695949392919061157c565b6102086101f33660046115e1565b60009081526020819052604090206001015490565b60405190815260200161015b565b6102296102243660046115fa565b6103cb565b005b6102296102393660046115fa565b6103f6565b61022961042e565b610229610254366004611626565b610444565b60015460ff1661014f565b610229610272366004611699565b610466565b610229610539565b61014f61028d3660046115fa565b61054c565b6102a56102a0366004611527565b610575565b60405161015b91906116ec565b6102c56102c03660046115e1565b6105e1565b60405161015b9190611776565b6102e56102e0366004611527565b610791565b60405161015b9190611801565b610208600081565b61022961030836600461189e565b6108ce565b6102087f21702c8af46127c7fa207f89d0b0a8441bb32959a0ac7df790e9ab1a25c9892681565b6102296103423660046115fa565b610af9565b61035a6103553660046115e1565b610b1e565b60405161015b9897969594939291906118c8565b61020861037c36600461192c565b610c00565b61022961038f3660046119b3565b610ec2565b60006001600160e01b03198216637965db0b60e01b14806103c557506301ffc9a760e01b6001600160e01b03198316145b92915050565b6000828152602081905260409020600101546103e681610fc2565b6103f08383610fcc565b50505050565b6001600160a01b038116331461041f5760405163334bd91960e11b815260040160405180910390fd5b610429828261105e565b505050565b600061043981610fc2565b6104416110c9565b50565b61044c61111b565b610457826001611141565b610462816001611141565b5050565b600061047181610fc2565b6001600160a01b038481166000908152600460205260409020600101546101009004166104c15760405163f9ff8bef60e01b81526001600160a01b03851660048201526024015b60405180910390fd5b6001600160a01b038416600081815260046020526040808220600681019290925560078201805460ff1916600117905542600890920191909155517fa9b60525a8918f3b9f448f4f72f978050282e8fb86f333f7bce333a7dacdc0cd9061052b90869086906119ff565b60405180910390a250505050565b600061054481610fc2565b6104416111d4565b6000918252602082815260408084206001600160a01b0393909316845291905290205460ff1690565b6001600160a01b0381166000908152600660209081526040918290208054835181840281018401909452808452606093928301828280156105d557602002820191906000526020600020905b8154815260200190600101908083116105c1575b50505050509050919050565b604080516101008101825260008082526020820181905291810182905260608082018390526080820183905260a0820183905260c082015260e081019190915281158061062f575060035482115b1561065057604051633d9c511560e11b8152600481018390526024016104b8565b600082815260056020908152604091829020825161010081018452815481526001808301549382019390935260028201546001600160a01b0390811694820194909452600382015493841660608201529290916080840191600160a01b900460ff16908111156106c2576106c2611542565b60018111156106d3576106d3611542565b81526003820154600160a81b900460ff1660208201526004820180546040909201916106fe90611a2e565b80601f016020809104026020016040519081016040528092919081815260200182805461072a90611a2e565b80156107775780601f1061074c57610100808354040283529160200191610777565b820191906000526020600020905b81548152906001019060200180831161075a57829003601f168201915b505050505081526020016005820154815250509050919050565b61079961146c565b6001600160a01b038281166000908152600460205260409020600101546101009004166107e45760405163f9ff8bef60e01b81526001600160a01b03831660048201526024016104b8565b6001600160a01b0382166000908152600460209081526040918290208251610140810190935280548352600180820154919284019160ff169081111561082c5761082c611542565b600181111561083d5761083d611542565b8152600182015461010090046001600160a01b0316602082015260028201546040820152600380830154606083015260048301546080830152600583015460a0830152600683015460c0830152600783015460e09092019160ff16908111156108a8576108a8611542565b60038111156108b9576108b9611542565b81526020016008820154815250509050919050565b6108d661111b565b6001600160a01b0382811660009081526004602052604090206001015461010090041615610940576001600160a01b038216600090815260046020526040902060019081018054839260ff1990911690838181111561093757610937611542565b02179055505050565b6002805490600061095083611a7e565b9190505550604051806101400160405280600254815260200182600181111561097b5761097b611542565b8152602001836001600160a01b031681526020016000815260200160008152602001600081526020016000815260200160008152602001600160038111156109c5576109c5611542565b8152426020918201526001600160a01b03841660009081526004825260409020825181559082015160018083018054909160ff19909116908381811115610a0e57610a0e611542565b021790555060408201518160010160016101000a8154816001600160a01b0302191690836001600160a01b03160217905550606082015181600201556080820151816003015560a0820151816004015560c0820151816005015560e082015181600601556101008201518160070160006101000a81548160ff02191690836003811115610a9d57610a9d611542565b02179055506101208201518160080155905050816001600160a01b03167f995530532fa39be47c44313305a15cb6a5d78c5d8b1d963ce7dbff2e105250ec60016000604051610aed929190611a97565b60405180910390a25050565b600082815260208190526040902060010154610b1481610fc2565b6103f0838361105e565b60056020526000908152604090208054600182015460028301546003840154600485018054949593946001600160a01b03938416949383169360ff600160a01b8504811694600160a81b900416929091610b7790611a2e565b80601f0160208091040260200160405190810160405280929190818152602001828054610ba390611a2e565b8015610bf05780601f10610bc557610100808354040283529160200191610bf0565b820191906000526020600020905b815481529060010190602001808311610bd357829003601f168201915b5050505050908060050154905088565b6000610c0a61111b565b60018460ff161080610c1f575060058460ff16115b15610c42576040516306fae60560e11b815260ff851660048201526024016104b8565b6001600160a01b0386163303610c7c57604051632fc5166960e21b81523360048201526001600160a01b03871660248201526044016104b8565b600360008154610c8b90611a7e565b9190508190559050604051806101000160405280828152602001888152602001336001600160a01b03168152602001876001600160a01b03168152602001866001811115610cdb57610cdb611542565b81526020018560ff16815260200184848080601f016020809104026020016040519081016040528093929190818152602001838380828437600092018290525093855250504260209384015250838152600582526040908190208351815591830151600180840191909155908301516002830180546001600160a01b03199081166001600160a01b039384161790915560608501516003850180549283169190931690811783556080860151936001600160a81b03199092161790600160a01b908490811115610dad57610dad611542565b021790555060a082015160038201805460ff909216600160a81b0260ff60a81b1990921691909117905560c08201516004820190610deb9082611b16565b5060e091909101516005909101556001600160a01b038616600081815260066020818152604080842080546001810182559085528285200186905593835260049052918120909101805460ff87169290610e46908490611bd6565b90915550506001600160a01b038616600090815260046020526040902042600890910155610e738661120f565b60405160ff851681526001600160a01b03871690339083907f73838c8181e68ccb58141bf7cbb01b8fcb260ebc4843abe09ed0e310bb091e149060200160405180910390a49695505050505050565b7f21702c8af46127c7fa207f89d0b0a8441bb32959a0ac7df790e9ab1a25c98926610eec81610fc2565b610ef461111b565b8115610f57576001600160a01b0384166000908152600460208190526040822001805491610f2183611a7e565b90915550506001600160a01b0383166000908152600460205260408120600501805491610f4d83611a7e565b9190505550610fb0565b6001600160a01b0384166000908152600460205260408120600501805491610f7e83611a7e565b90915550506001600160a01b0383166000908152600460208190526040822001805491610faa83611a7e565b91905055505b610fb98461120f565b6103f08361120f565b6104418133611410565b6000610fd8838361054c565b611056576000838152602081815260408083206001600160a01b03861684529091529020805460ff1916600117905561100e3390565b6001600160a01b0316826001600160a01b0316847f2f8788117e7eff1d82e926ec794901d17c78024a50270940304540a733656f0d60405160405180910390a45060016103c5565b5060006103c5565b600061106a838361054c565b15611056576000838152602081815260408083206001600160a01b0386168085529252808320805460ff1916905551339286917ff6391f5c32d9c69d2a47ea670b442974b53935d1edc7fd64eb21e047a839171b9190a45060016103c5565b6110d1611449565b6001805460ff191690557f5db9ee0a495bf2e6ff9c91a7834c1ba4fdd244a5e8aa4e537bd38aeae4b073aa335b6040516001600160a01b03909116815260200160405180910390a1565b60015460ff161561113f5760405163d93c066560e01b815260040160405180910390fd5b565b6001600160a01b0382811660009081526004602052604090206001015461010090041661116c575050565b6001600160a01b038216600090815260046020526040812060020180549161119383611a7e565b919050555080156111cb576001600160a01b03821660009081526004602052604081206003018054916111c583611a7e565b91905055505b6104628261120f565b6111dc61111b565b6001805460ff1916811790557f62e78cea01bee320cd4e420270b5ea74000d11b0c9f74754ebdbfc544b05a258336110fe565b6001600160a01b0381166000908152600460205260408120600281015490910361124457600701805460ff1916600117905550565b600081600201548260030154606461125c9190611be9565b6112669190611c00565b6001600160a01b0384166000908152600660205260408120549192508161128e57600361129e565b81846006015461129e9190611c00565b90506000846005015485600401546112b69190611bd6565b905060008082116112c85760326112e4565b81866004015460646112da9190611be9565b6112e49190611c00565b9050600060646112f5836028611be9565b6112ff9190611c00565b606461130c866014611be9565b6113169190611c00565b6064611323896028611be9565b61132d9190611c00565b6113379190611bd6565b6113419190611bd6565b905060558110611367576007870180546003919060ff19166001835b02179055506113af565b60468110611385576007870180546002919060ff191660018361135d565b603281106113a2576007870180546001919060ff1916828061135d565b60078701805460ff191690555b426008880155600787015460068801546040516001600160a01b038b16927f995530532fa39be47c44313305a15cb6a5d78c5d8b1d963ce7dbff2e105250ec926113fe9260ff90921691611a97565b60405180910390a25050505050505050565b61141a828261054c565b6104625760405163e2517d3f60e01b81526001600160a01b0382166004820152602481018390526044016104b8565b60015460ff1661113f57604051638dfc202b60e01b815260040160405180910390fd5b60408051610140810190915260008082526020820190815260200160006001600160a01b031681526020016000815260200160008152602001600081526020016000815260200160008152602001600060038111156114cd576114cd611542565b8152602001600081525090565b6000602082840312156114ec57600080fd5b81356001600160e01b03198116811461150457600080fd5b9392505050565b80356001600160a01b038116811461152257600080fd5b919050565b60006020828403121561153957600080fd5b6115048261150b565b634e487b7160e01b600052602160045260246000fd5b6002811061156857611568611542565b9052565b6004811061156857611568611542565b8a81526101408101611591602083018c611558565b60018060a01b038a1660408301528860608301528760808301528660a08301528560c08301528460e08301526115cb61010083018561156c565b826101208301529b9a5050505050505050505050565b6000602082840312156115f357600080fd5b5035919050565b6000806040838503121561160d57600080fd5b8235915061161d6020840161150b565b90509250929050565b6000806040838503121561163957600080fd5b6116428361150b565b915061161d6020840161150b565b60008083601f84011261166257600080fd5b50813567ffffffffffffffff81111561167a57600080fd5b60208301915083602082850101111561169257600080fd5b9250929050565b6000806000604084860312156116ae57600080fd5b6116b78461150b565b9250602084013567ffffffffffffffff8111156116d357600080fd5b6116df86828701611650565b9497909650939450505050565b6020808252825182820181905260009190848201906040850190845b8181101561172457835183529284019291840191600101611708565b50909695505050505050565b6000815180845260005b818110156117565760208185018101518683018201520161173a565b506000602082860101526020601f19601f83011685010191505092915050565b6020815281516020820152602082015160408201526000604083015160018060a01b038082166060850152806060860151166080850152505060808301516117c160a0840182611558565b5060a083015160ff811660c08401525060c08301516101008060e08501526117ed610120850183611730565b60e095909501519301929092525090919050565b8151815260208083015161014083019161181d90840182611558565b50604083015161183860408401826001600160a01b03169052565b50606083015160608301526080830151608083015260a083015160a083015260c083015160c083015260e083015160e08301526101008084015161187e8285018261156c565b505061012092830151919092015290565b80356002811061152257600080fd5b600080604083850312156118b157600080fd5b6118ba8361150b565b915061161d6020840161188f565b888152602081018890526001600160a01b0387811660408301528616606082015260006101006118fb6080840188611558565b60ff861660a08401528060c084015261191681840186611730565b9150508260e08301529998505050505050505050565b60008060008060008060a0878903121561194557600080fd5b863595506119556020880161150b565b94506119636040880161188f565b9350606087013560ff8116811461197957600080fd5b9250608087013567ffffffffffffffff81111561199557600080fd5b6119a189828a01611650565b979a9699509497509295939492505050565b6000806000606084860312156119c857600080fd5b6119d18461150b565b92506119df6020850161150b565b9150604084013580151581146119f457600080fd5b809150509250925092565b60208152816020820152818360408301376000818301604090810191909152601f909201601f19160101919050565b600181811c90821680611a4257607f821691505b602082108103611a6257634e487b7160e01b600052602260045260246000fd5b50919050565b634e487b7160e01b600052601160045260246000fd5b600060018201611a9057611a90611a68565b5060010190565b60408101611aa5828561156c565b8260208301529392505050565b634e487b7160e01b600052604160045260246000fd5b601f82111561042957600081815260208120601f850160051c81016020861015611aef5750805b601f850160051c820191505b81811015611b0e57828155600101611afb565b505050505050565b815167ffffffffffffffff811115611b3057611b30611ab2565b611b4481611b3e8454611a2e565b84611ac8565b602080601f831160018114611b795760008415611b615750858301515b600019600386901b1c1916600185901b178555611b0e565b600085815260208120601f198616915b82811015611ba857888601518255948401946001909101908401611b89565b5085821015611bc65787850151600019600388901b60f8161c191681555b5050505050600190811b01905550565b808201808211156103c5576103c5611a68565b80820281158282048414176103c5576103c5611a68565b600082611c1d57634e487b7160e01b600052601260045260246000fd5b50049056fea26469706673582212200610e8c248e38ea48713f66fa1adb68de0b334591a95b1fed9a1b628fb7b817764736f6c63430008140033",
  "linkReferences": {},
  "deployedLinkReferences": {}
}